:100000000C94E0000C9471110C944A110C9423117F
:100010000C94FC100C9408010C9408010C94D5105D
:100020000C9408010C9491140C9498110C940712E0
:100030000C9408010C9408010C9408010C9408011C
:100040000C9408010C9408010C9408010C9408010C
:100050000C9408010C9408010C9408010C948B106A
:100060000C9408010C945F140C9439140C9408013E
:100070000C9408010C9408010C9408010C940801DC
:100080000C9408010C9408010C9408010C940801CC
:100090000C940D150C9408010C9408010C940801A3
:1000A0000C9408010C9408010C9408010000000055
:1000B0002300260029002C002F00080B000202025A
:1000C00000000904000001020200000524001001E4
:1000D0000524010101042402060524060001070588
:1000E000810310004009040100020A000000070516
:1000F00002024000000705830240000004030904D7
:1001000012010002EF020140FB1F00230001010267
:100110000301506F6C6F6C7520436F72706F72616A
:1001200074696F6E00506F6C6F6C7520412D537445
:100130006172203332553400070605040100080AB5
:100140000B0C0D0900000000240027002A002D00E0
:10015000300000000000250028002B002E00310098
:10016000040404040403040502020202040302025C
:10017000020206060606060604040202020404043D
:100180000802011040804010204080408008020496
:10019000018040201002011080102040402000000B
:1001A000000200090F0000030401000C0000000021
:1001B00000000000000000000000000000007616B3
:1001C00011241FBECFEFDAE0DEBFCDBF26E0AEE8E0
:1001D000B2E001C01D92A834B207E1F712E0A0E03E
:1001E000B1E0E4EBFBE302C005900D92AE38B1073D
:1001F000D9F710E0C0EED0E004C02197FE010E94C4
:10020000BD1CCF3DD107C9F70E9495170C94D81D8E
:100210000C94000090913E0380913D032FEF3FEF3F
:10022000981748F4E92FF0E0E35EFC4F208130E0BE
:100230009F5F90933E03C901089590913E03809182
:100240003D032FEF3FEF981748F4E92FF0E0E35E0E
:10025000FC4F208130E09F5F90933E03C9010895D9
:1002600080913D0390913E03891B990B0895FC01F9
:1002700080911403882311F13FB7F89482E08093B2
:10028000E9002091F200822F90E01816190614F46C
:1002900081E090E0882339F0289844E640931303E6
:1002A0004091F1004083222339F02091F200211186
:1002B00003C02BE62093E8003FBF08958FEF9FEF28
:1002C00008952FB7F89483E08093E9009091E800B7
:1002D000892F807295FF04C09091F20080E4891B01
:1002E0002FBF089580910B0381110DC082E0809390
:1002F000070384E08093080310920A031092090315
:1003000081E080930B0387E093E0089581508F3064
:1003100008F047C0E82FF0E0E057FE4F0C94BD1CFA
:10032000AD01B1019F01A501A901D101D101D10107
:10033000B401BA01BE01C201C801D101CC01809152
:1003400080008F77809380000895809180008F7D5A
:10035000F9CF80918000877FF5CF84B58F7784BDFA
:10036000089584B58F7DFBCF809190008F77809327
:1003700090000895809190008F7DF9CF809190003A
:10038000877FF5CF8091C0008F778093C00008955C
:100390008091C0008F7DF9CF8091C200877F8093CC
:1003A000C20008951F93CF93DF93282F30E0F90107
:1003B000E256FE4F8491F901E158FE4FD491F901C4
:1003C000E05AFE4FC491CC23A9F0162F81110E9450
:1003D0008601EC2FF0E0EE0FFF1FEE5AFE4FA591C5
:1003E000B4918FB7F894EC91111108C0D095DE2329
:1003F000DC938FBFDF91CF911F910895DE2BF8CF53
:10040000CF93DF9390E0FC01E158FE4F2491805A96
:100410009E4FFC0184918823C9F090E0880F991FBA
:10042000FC01EC5BFE4FA591B491FC01EE5AFE4F2E
:10043000C591D49161110DC09FB7F8948C9120950E
:1004400082238C938881282328839FBFDF91CF91BB
:100450000895623051F49FB7F8943C91822F8095B3
:1004600083238C93E8812E2BEFCF8FB7F894EC91F8
:100470002E2B2C938FBFEACF823108F08251E82FC8
:10048000F0E0E85CFE4FE49190917B008E2F880FA6
:10049000880F80729F7D892B80937B00E770E064DA
:1004A000E0937C0080917A00806480937A00809150
:1004B0007A0086FDFCCF80917800909179000895B4
:1004C0003FB7F8948091030390910403A091050332
:1004D000B091060326B5A89B05C02F3F19F00196E1
:1004E000A11DB11D3FBFBA2FA92F982F8827BC018E
:1004F000CD01620F711D811D911D42E0660F771FB6
:10050000881F991F4A95D1F708958F929F92AF92B5
:10051000BF92CF92DF92EF92FF924B015C010E945B
:1005200060026B017C010E9460026C197D098E09DA
:100530009F09683E734081059105A8F321E0821A66
:100540009108A108B10888EEC80E83E0D81EE11C0E
:10055000F11C81149104A104B10429F7FF90EF90DC
:10056000DF90CF90BF90AF909F908F9008952FB75E
:10057000F8946091FF0270910003809101039091C3
:1005800002032FBF08950895089508950895409196
:10059000F4025091F5022091F2023091F3024217D9
:1005A0005307B4F49091E8009570E1F39091E8005E
:1005B00092FD19C08093F1008091F4029091F502B0
:1005C00001968F739927892B19F48EEF8093E80099
:1005D0008091F4029091F50201969093F502809338
:1005E000F40281E0089580E00895EF92FF920F9366
:1005F0001F93CF93DF93F82E192FE62E042F81E05F
:10060000860F880F0E94C70283E00E94C702CF2D89
:10061000D12FEC0EFD2EF11CCE15DF05B9F007FF32
:1006200013C0FE0184910E94C702182F80E00E942F
:10063000C702812321968111EFCFDF91CF911F91C6
:100640000F91FF90EF9008958881EDCF81E0F5CF75
:10065000DF92EF92FF920F931F93CF93DF93D82EE9
:100660008A01EB017B01E40EF51ECE15DF0559F082
:10067000D7FE12C0FE0184910E94C702219681110B
:10068000F4CF0FEF1FEFC801DF91CF911F910F91B2
:10069000FF90EF90DF9008958881EECF0F931F9326
:1006A000CF93DF931F92CDB7DEB782E0898342E418
:1006B00050E06AEB70E080E80E9428030E9472011B
:1006C000DC0112960D911C910115110589F0D801DC
:1006D000ED91FC910280F381E02DBE016F5F7F4FB1
:1006E000C801099597FD04C0F80100851185ECCF7C
:1006F00089810F90DF91CF911F910F9108956150E3
:1007000030F02091F100FC0120830196F8CF289869
:1007100084E6809313030895AF92BF92CF92DF9245
:10072000EF92FF920F931F93CF93DF936C017B01A6
:100730008B01040F151FEB015E01AE18BF08C01737
:10074000D10759F06991D601ED91FC910190F081AA
:10075000E02DC6010995892B79F7C501DF91CF916D
:100760001F910F91FF90EF90DF90CF90BF90AF90CF
:100770000895FC01538D448D252F30E0842F90E0A7
:10078000821B930B541710F0CF960895019708958C
:10079000FC01918D828D981761F0A28DAE0FBF2F55
:1007A000B11D5D968C91928D9F5F9F73928F90E0AB
:1007B00008958FEF9FEF0895FC01918D828D98171A
:1007C00031F0828DE80FF11D858D90E008958FEF57
:1007D0009FEF0895FC01918D228D892F90E0805C20
:1007E0009F4F821B91098F73992708958FE893E09B
:1007F0000E94EA0321E0892B09F420E0822F08956A
:1008000080E090E0892B29F00E94F60381110C947E
:1008100000000895FC01A48DA80FB92FB11DA35AA3
:10082000BF4F2C91848D90E001968F739927848F10
:10083000A689B7892C93A089B1898C9182748C93F5
:10084000938D848D981306C00288F389E02D8081F2
:100850008F7D80830895EF92FF920F931F93CF9324
:10086000DF93EC0181E0888F9B8D8C8D981319C0EC
:10087000E889F989808185FF14C09FB7F894EE89D3
:10088000FF896083E889F9898081827480839FBFB2
:1008900081E090E0DF91CF911F910F91FF90EF9059
:1008A0000895F62E0B8D10E00F5F1F4F0F73112769
:1008B000E02E8C8D8E110CC00FB607FCFACFE889A4
:1008C000F989808185FFF5CFCE010E940A04F1CF1E
:1008D000EB8DEC0FFD2FF11DE35AFF4FF0829FB718
:1008E000F8940B8FEA89FB8980818062CFCFCF9308
:1008F000DF93EC01888D8823B9F0AA89BB89E88948
:10090000F9898C9185FD03C0808186FD0DC00FB6ED
:1009100007FCF7CF8C9185FFF2CF808185FFEDCF6B
:10092000CE010E940A04E9CFDF91CF9108958F9202
:100930009F92AF92BF92CF92DF92EF92FF920F936E
:100940001F93CF93DF936C017B018A0180910B0190
:10095000882309F45CC080911403882309F457C0EC
:100960008091F80280FF05C08091E0008260809352
:10097000E000E801B12C8AEFA82E93E0892E2AE34B
:10098000922E209711F4BB20D9F10E9461018111B0
:100990000AC0AA94AA20D9F161E070E080E090E05A
:1009A0000E948502EECF8C171D0611F00CF08C2FE3
:1009B0009FB7F8948092E9002091E80025FD02C0DD
:1009C0009FBFDFCF282F30E0C21BD30BF701815030
:1009D00020F041914093F100FACFE20EF31EBB20CC
:1009E00021F09092E800B12CEBCF8091E80085FDDA
:1009F000E7CF9092E800BB24B394209709F3F3CF9C
:100A00005D9884E68093F702101611063CF081E0B1
:100A100090E0F6019383828310E000E0C801DF914B
:100A2000CF911F910F91FF90EF90DF90CF90BF90EB
:100A3000AF909F908F900895CF93DF931F92CDB783
:100A4000DEB76983DC01ED91FC910280F381E02D3A
:100A500041E050E0BE016F5F7F4F09950F90DF913D
:100A6000CF91089583E08093E9008091F20088237C
:100A700019F08AE38093E80008950E94610190E0F4
:100A80000895CF93DF931F92CDB7DEB7FC01848525
:100A9000958597FD08C02FEF3FEF358724870F908E
:100AA000DF91CF910895CE0101960E943701019701
:100AB00019F4898190E0F3CF8FEF9FEFF0CF0F9380
:100AC0001F93CF93DF931F92CDB7DEB78C01FC014C
:100AD0008485958597FF0BC0CE0101960E94370152
:100AE000019771F4898190E0F80195878487F80176
:100AF000848595850F90DF91CF911F910F91089577
:100B00008FEF9FEFF1CFFC018485958597FD0BC09A
:100B10009FB7F89482E08093E9008091F2009FBF34
:100B200090E0019608959FB7F89482E08093E900E1
:100B30008091F2009FBF90E008952E98269A2D98FC
:100B4000259A2A98229A2998219A2F98279A8AEAF0
:100B50008093800089E18093810084EA91E0909302
:100B6000870080938600109289001092880010926E
:100B70008B0010928A0010928D0010928C000895C4
:100B80000F931F93CF93DF938C01EB018091E102D0
:100B9000811105C081E08093E1020E949D0580E003
:100BA00017FF04C011950195110981E00D3291E004
:100BB000190714F00CE211E010938B0000938A00E7
:100BC000882329F12A9A229A8091E102811105C095
:100BD00081E08093E1020E949D0580E0D7FF04C080
:100BE000D195C195D10981E0CD3291E0D90714F0BA
:100BF000CCE2D1E0D0938900C0938800882349F0EB
:100C0000299A219ADF91CF911F910F9108952A98E7
:100C1000DACF2998F6CF70E060E090E080E00C94A5
:100C2000C0058CB1282F30E035952795359527954F
:100C3000422F417083B190E054E0959587955A9585
:100C4000E1F7822781702091DF029091E0026091AC
:100C5000DD027091DE0224279827291B330B260F13
:100C6000371F3093DE022093DD022091DF02909146
:100C7000E002281729F0941719F091E09093DC0214
:100C80008093DF024093E00208959FB191708CB190
:100C900086FB882780F989272091DA023091DB02D0
:100CA0004091D8025091D90229273827231B330BB2
:100CB000240F351F3093D9022093D8023091DA02E5
:100CC0002091DB02381729F0291719F021E0209331
:100CD000D7028093DA029093DB02089524982C9A2D
:100CE0006A98729A6E98769A8098889AF89491E0A9
:100CF00090936800EBE6F0E080818061808321E1E1
:100D000036E03093EB022093EA029BBB80917C0497
:100D10008F7E80937C0483B190917C048071892BB9
:100D200080937C04789485E496E0909315018093F9
:100D30001401EAE6F0E080818F7C80618083EE9A86
:100D40008CB182FB882780F98093E00293B1809177
:100D5000E0029295917089278093DF021092DE0263
:100D60001092DD021092DC028FB181708093DB0261
:100D70009CB18091DB0296FB992790F9892780939B
:100D8000DA021092D9021092D8021092D702089576
:100D90000F931F93CF93DF93EC01888581110EC0D1
:100DA000898591E098879A8562E0911101C060E0A1
:100DB0000E9400028FE090E00197F1F7298530E072
:100DC000F901E256FE4F8491F901E158FE4F04917A
:100DD000F901E05AFE4F14911123C9F081110E94CC
:100DE0008601E12FF0E0EE0FFF1FE455FF4FA591C4
:100DF000B491EC910E2331E009F430E0832F2B8580
:100E000082278170DF91CF911F910F91089580E02B
:100E1000F6CFCF93DF938DE295E00E94C806D1E034
:100E2000C82FCD270E94B70220913205213099F0BA
:100E300030F0223011F1233041F1C0E008C0C1117F
:100E4000FCCF7093340560933305D09332058C2F1B
:100E5000DF91CF910895CC2319F010923205EDCF98
:100E60002091330530913405621B730B6F3071058F
:100E700070F382E080933205E0CFCC2341F370938E
:100E800034056093330583E0F5CFCC2391F32091B3
:100E9000330530913405621B730B6F30710568F2B6
:100EA00010923205D4CF2091B402260F3327331F7E
:100EB00021323105ECF420916503FC0190E080E0E3
:100EC000243069F082E00895A091B4022191AC0130
:100ED0004C565D4FA40FB52FB11D2C93019686176C
:100EE00098F38091B402680F6093B40280E0089593
:100EF00081E008951092650381E08093640310926D
:100F00003F0361E082E00E94D20161E083E00E9441
:100F1000D201E9EBF0E080818E7F808380818D7F3C
:100F2000808388E48093B80085E48093BC000895B2
:100F3000CF93DF9391E0909393028823B9F0C0910F
:100F4000B800D091BA008091BC008A7B8093BC002D
:100F500060E082E00E94D20160E083E00E94D20162
:100F60000E947A07D093BA00C093B800DF91CF9166
:100F70000895CF92DF92EF92FF920F931F93CF933A
:100F8000DF93D0918E0381E0D13208F09CC0C091F4
:100F90008D030E9460026B017C01809165038111C9
:100FA0006CC082E08093650381E0809364038FEFDF
:100FB0008093630310926203D0936103ADE6B3E0C4
:100FC000E1E4F3E080E0D8138DC0109240038091FB
:100FD0004003CC0FC82BC093400380913F03813066
:100FE00009F084C010923F030E9460026B017C01F3
:100FF000809140038093BB008091670390916803C8
:10100000A0916903B0916A03892B8A2B8B2BA1F0E5
:101010000E946002009167031091680320916903A8
:1010200030916A036C197D098E099F09061717070D
:101030002807390708F442C08091BC0083FDD8CF4F
:1010400085EC8093BC000E9460026B017C01809162
:101050006503823009F44CC0809163038F3F09F42B
:1010600069C080916303803209F466C08091630394
:10107000803309F463C084E026C0809167039091B7
:101080006803A0916903B0916A03892B8A2B8B2B8B
:1010900009F483CF0E9460020091670310916803F6
:1010A0002091690330916A036C197D098E099F09AB
:1010B000061717072807390708F06FCF80916603D6
:1010C0000E94980785E010926C0310928E03109294
:1010D0006B03DF91CF911F910F91FF90EF90DF9005
:1010E000CF9008959D9191938F5F6DCF85EEA9CF9D
:1010F0008091670390916803A0916903B0916A039E
:10110000892B8A2B8B2B09F4A2CF0E9460020091BD
:101110006703109168032091690330916A036C1989
:101120007D098E099F09061717072807390708F058
:101130008ECFC4CF80E0C7CF82E0C5CF83E0C3CFDE
:101140008F929F92AF92BF92CF92DF92EF92FF92D7
:101150000F931F93CF93DF93D82FC62F142F613295
:1011600008F09CC00E9460026B017C0180916503C5
:1011700081116FC081E080936503109364039FEF3A
:1011800090936303109262039C0F9093610380938A
:10119000400380914003DD0FD82BD0934003809112
:1011A0003F03813009F07CC010923F030E9460022F
:1011B0006B017C01809140038093BB0080916703A9
:1011C00090916803A0916903B0916A03892B8A2BDF
:1011D0008B2BA1F00E9460020091670310916803BD
:1011E0002091690330916A036C197D098E099F096A
:1011F000061717072807390708F44CC08091BC0070
:1012000083FDD8CF85EC8093BC000E9460026B0107
:101210007C0180916503813009F444C080916203B0
:101220008C1710F4C0916203E1E4F3E0ADE1B3E0A8
:1012300080E08C1359C08C2FDF91CF911F910F91BB
:10124000FF90EF90DF90CF90BF90AF909F908F90E6
:1012500008958091670390916803A0916903B0910C
:101260006A03892B8A2B8B2B09F480CF0E946002A2
:101270008090670390906803A0906903B0906A0320
:101280006C197D098E099F0986169706A806B9066E
:1012900008F06CCF809166030E949807C0E0CBCF26
:1012A00085EEB1CF8091670390916803A0916903A7
:1012B000B0916A03892B8A2B8B2B09F4AACF0E9449
:1012C00060020091670310916803209169033091D7
:1012D0006A036C197D098E099F09061717072807ED
:1012E000390708F096CFD6CF91919D938F5FA1CF0C
:1012F000E0913E0380913D03E81730F4F0E0E35EB7
:10130000FC4F808190E008958FEF9FEF0895CF927A
:10131000DF92EF92FF920F931F93CF93DF937C01A5
:10132000CB018A0120916B03222389F0EB016B0131
:10133000C40ED51ECC15DD0569F06991D701ED917C
:10134000FC910190F081E02DC7010995F3CF642F46
:101350000E945307C801DF91CF911F910F91FF9019
:10136000EF90DF90CF900895CF93DF931F92CDB78A
:10137000DEB7698320916B032223F9F020918E035D
:10138000203258F021E030E0FC013383228390E0EA
:1013900080E00F90DF91CF91089580916C03E82F4A
:1013A000F0E0E359FC4F998190838F5F80936C0349
:1013B00080938E0381E090E0ECCF61E0CE01019656
:1013C0000E945307F7CF90E080E00895FC017183FD
:1013D00060834681578151874087248135813783D7
:1013E0002683828193819583848373836283241708
:1013F000350724F457834683318720876817790798
:1014000024F4918380837583648384819581681734
:10141000790724F493838283758364838081918127
:10142000268137818217930724F4318320839783A1
:10143000868384819581268137818217930724F4DE
:1014400035832483978386838281938120853185A8
:101450008217930724F433832283918780878281C4
:101460009381248135818217930724F43383228367
:1014700095838483848195810895CF92DF92EF9242
:10148000FF92CF93DF93EC010E94B7026B017C01C6
:1014900080918F0290919002A0919102B09192025E
:1014A000B701A601481B590B6A0B7B0B8C859D85E8
:1014B000B0E0A0E0481759076A077B0708F448C066
:1014C000809117039091180390931603809315034E
:1014D00080911B0390911C0390931A03809319032E
:1014E00080918E02811105C081E080938E020E945E
:1014F0006E06F8948091DD029091DE0278949093CC
:1015000018038093170380918E02811105C081E03A
:1015100080938E020E946E06F8948091D80290917A
:10152000D902789490931C0380931B030E94B70206
:10153000C0928F02D0929002E0929102F0929202B9
:1015400081E0DF91CF91FF90EF90DF90CF900895F1
:1015500080E0F7CF4F925F926F927F928F929F922F
:10156000AF92BF92CF92DF92EF92FF92CF93DF9331
:10157000CDB7DEB72C970FB6F894DEBF0FBECDBF48
:101580006B017C0129833A834B835C8380E391E088
:101590000E943D0A882309F4FBC02091300130915C
:1015A00031014091320150913301609138017091C5
:1015B000390180913A0190913B010E94301D2B012D
:1015C0003C0160913C0170913D0190E080E00E94FF
:1015D000A01B20E030E04AE754E40E94301D4B019C
:1015E0005C0160911703709118038091150390912D
:1015F0001603681B790B072E000C880B990B0E94B1
:10160000A21BA30192010E94DD1BA50194010E946F
:10161000301D9B01AC01C701B6010E94C31C6B01C8
:101620007C0160911B0370911C03809119039091C0
:101630001A03681B790B072E000C880B990B0E946C
:10164000A21BA30192010E94DD1BA50194010E942F
:10165000301D9B01AC0169817A818B819C810E9444
:10166000C31C2B013C012091DF043091E004409128
:10167000E1045091E204C701B6010E94C41C6987CD
:101680007A878B879C876093DF047093E004809354
:10169000E1049093E2042091E3043091E40440914A
:1016A000E5045091E604C301B2010E94C41C4B0141
:1016B0005C018092E3049092E404A092E504B0926D
:1016C000E6048091C3049091C404A091C504B09134
:1016D000C60489839A83AB83BC838091C7049091AD
:1016E000C804A091C904B091CA048D839E83AF83BE
:1016F000B88729813A814B815C81C301B2010E9484
:10170000DD1B2B013C012D813E814F815885C50198
:10171000B4010E94DD1B9B01AC01C301B2010E9418
:10172000C41C0E94A21D4B0129813A814B815C811E
:10173000C701B6010E94DD1B6B017C012D813E813A
:101740004F81588569857A858B859C850E94DD1B34
:101750009B01AC01C701B6010E94C41C0E94A21DDE
:10176000CB01B4012C960FB6F894DEBF0FBECDBFEF
:10177000DF91CF91FF90EF90DF90CF90BF90AF902F
:101780009F908F907F906F905F904F900C94C005CA
:101790002C960FB6F894DEBF0FBECDBFDF91CF9170
:1017A000FF90EF90DF90CF90BF90AF909F908F9081
:1017B0007F906F905F904F900895CF92DF92EF925D
:1017C000FF9270E060E090E080E00E94C0050E941F
:1017D000B7026B017C010E94B7026C197D098E096A
:1017E0009F09623C71418105910548F420E030E099
:1017F0004CED52ECCA01B9010E94AA0AECCF70E08C
:1018000060E090E080E00E94C00581E0FF90EF90F2
:10181000DF90CF900895FC0101900020E9F7319707
:10182000AF01481B590BBC018CE294E00C94970467
:101830008F929F92AF92BF920F931F93CF93DF939C
:10184000CDB7DEB7A1970FB6F894DEBF0FBECDBF00
:1018500019A2423008F44AE08E010F5D1F4F842E1A
:10186000912CB12CA12CA50194010E949B1CE62F68
:10187000B901CA01EA30F4F4E05DD801EE938D01BC
:10188000232B242B252B79F790E080E0109719F07B
:10189000CD010E940B0CA1960FB6F894DEBF0FBECF
:1018A000CDBFDF91CF911F910F91BF90AF909F90CF
:1018B0008F900895E95CE1CFCF93DF930E940B0CEA
:1018C000EC0181E891E00E940B0C8C0F9D1FDF91D1
:1018D000CF910895AF92BF92CF92DF92EF92FF9295
:1018E0000F931F93CF93DF93CDB7DEB760970FB6FB
:1018F000F894DEBF0FBECDBF7C0183EE93E001976D
:10190000F1F741E060E18DE30E94A00810923E03F0
:1019100080933D03803149F58E010F5F1F4F5E01BB
:1019200081E1A80EB11C68010E941D01F80181939C
:101930008F01AE16BF06C1F780E1F601D701019015
:101940000D928A95E1F781E060960FB6F894DEBFBC
:101950000FBECDBFDF91CF911F910F91FF90EF9000
:10196000DF90CF90BF90AF90089580E0EDCF4F9281
:101970005F926F927F928F929F92AF92BF92CF921F
:10198000DF92EF92FF92CF93DF93CDB7DEB76097F0
:101990000FB6F894DEBF0FBECDBF80E391E00E948A
:1019A0003D0A882309F4E6C08DEF95E00E946A0C99
:1019B0008090030690900406A090E904B090EA0499
:1019C000B4016A197B0990E080E00E94A01B6B01C2
:1019D0007C01A818B908B50190E080E00E94A01B26
:1019E0004B015C014091090650910A0620910706BF
:1019F00030910806429FC001439F900D529F900D69
:101A000011246091EB047091EC04681B790B90E059
:101A100080E00E94A01B2B013C012091DF0430914B
:101A2000E0044091E1045091E204C701B6010E9434
:101A3000C41C6D837E838F8398876093DF047093CB
:101A4000E0048093E1049093E2042091E304309158
:101A5000E4044091E5045091E604C501B4010E94FC
:101A6000C41C69877A878B879C876093E304709393
:101A7000E4048093E5049093E6042091CB04309134
:101A8000CC044091CD045091CE04C301B2010E9418
:101A9000DD1B6D877E878F87988B4090C3045090A5
:101AA000C4046090C5047090C6048091C7049091EE
:101AB000C804A091C904B091CA0489839A83AB83F6
:101AC000BC83A3019201C501B4010E94DD1B2D85D9
:101AD0003E854F8558890E94C41C4B015C012981B9
:101AE0003A814B815C8169857A858B859C850E94D2
:101AF000DD1B9B01AC01C501B4010E94C41C0E9406
:101B0000A21D4B01A3019201C701B6010E94DD1B7A
:101B10002D853E854F8558890E94C41C6B017C0130
:101B200029813A814B815C816D817E818F8198858D
:101B30000E94DD1B9B01AC01C701B6010E94C41CC1
:101B40000E94A21DCB01B40160960FB6F894DEBFCF
:101B50000FBECDBFDF91CF91FF90EF90DF90CF9080
:101B6000BF90AF909F908F907F906F905F904F90BD
:101B70000C94C00560960FB6F894DEBF0FBECDBFC3
:101B8000DF91CF91FF90EF90DF90CF90BF90AF901B
:101B90009F908F907F906F905F904F90089541E05D
:101BA0000E94A00810923E0380933D030895CF93B6
:101BB000C82F81E080936B03C0938D0310926C0358
:101BC00010928E036FE08DE794E00E94B4090E94AA
:101BD000B90781110DC061E08C2F0E94CF0D90914B
:101BE0003D0380913E03981719F0CF910C941D018D
:101BF0008FEF9FEFCF910895CF92DF92EF92FF92F8
:101C00000F931F93CF93DF938091440691E09093BD
:101C10006B0380938D0310926C0310928E0362E22B
:101C20008DE794E00E94B4090E94B90766E08091B4
:101C300044060E94CF0D0E94B702EB0180913D0344
:101C400090913E03891B990B2091450630914606E1
:101C500086309105D4F421153105D1F30E94B702E5
:101C60006C1B7D0B80914506909146068617970761
:101C700028F781E080934706DF91CF911F910F9164
:101C8000FF90EF90DF90CF9008950E941D01182FD4
:101C90000E941D01082F0E941D01C82F0E941D01D6
:101CA000D82F0E941D01F82E0E941D0160E0702FA8
:101CB000612B709328066093270600E01D2F0C2BE4
:101CC00010932A0600932906D82F80E0C82FCF2929
:101CD000D0932C06C0932B06C0903906D0903A06BC
:101CE000E0903B06F0903C06072E000C880B990B09
:101CF0000E94A21BA70196010E94DD1B20E030E09C
:101D00004AE754E40E94301D60932D0670932E061E
:101D100080932F0690933006B801110F880B990B12
:101D20000E94A21BA70196010E94DD1B20E030E06B
:101D30004AE754E40E94301D6093310670933206E6
:101D40008093330690933406BE01DD0F880B990B08
:101D50000E94A21BA70196010E94DD1B20E030E03B
:101D60004AE754E40E94301D6093350670933606AE
:101D700080933706909338067FCFFF920F931F937F
:101D8000CF93DF938091440691E090936B0380930F
:101D90008D0310926C0310928E0368E28DE794E03D
:101DA0000E94B4090E94B90766E0809144060E942F
:101DB000CF0D0E94B702EB0180913D0390913E034D
:101DC000891B990B20914506309146068630910576
:101DD000BCF421153105D1F30E94B7026C1B7D0BB9
:101DE00080914506909146068617970728F781E06F
:101DF00080934706DF91CF911F910F91FF90089537
:101E00000E941D01082F0E941D01F82E0E941D0135
:101E1000D82F0E941D01182F0E941D01C82F0E945B
:101E20001D0120E03F2D202B309322062093210618
:101E300020E0312F2D2B309324062093230620E021
:101E4000382F2C2B3093260620932506D3CF0F93C3
:101E50001F93CF93DF930E94BD0E0E94FC0D009153
:101E6000230610912406C0912506D0912606609184
:101E700021067091220689E195E00E94E609BC01E5
:101E8000990F880B990B0E94A21B23E23BED49E7B7
:101E90005DE30E94DD1B0E94A21D7093920460937B
:101EA0009104B80185E095E00E94E609BC01990F14
:101EB000880B990B0E94A21B23E23BED49E75DE3EF
:101EC0000E94DD1B0E94A21D7093940460939304F2
:101ED000BE0181EF94E00E94E609BC01990F880BD6
:101EE000990B0E94A21B23E23BED49E75DE30E94B0
:101EF000DD1B0E94A21D70939604609395042091AF
:101F00009104309192048091890490918A04281759
:101F10003907BCF0209193043091940437FF03C03B
:101F200031952195310981E040918B0450918C04C9
:101F3000421753070CF080E0DF91CF911F910F9172
:101F4000089581E0F9CFEF92FF920F931F93CF9303
:101F5000DF9370E060E090E080E00E94C005609157
:101F6000E7047091E804072E000C880B990B0E947F
:101F7000A21B2BEA3AEA4AE25EE30E94DD1B0E94C2
:101F8000A21DEB010091170310911803EE24FF240A
:101F9000E01AF10AA80117FDA7018091170390919B
:101FA000180397FF03C09195819591099A01281B09
:101FB000390B121613061CF09C01241B350BC2179B
:101FC000D3075CF020E030E048E452E460E070E0E9
:101FD00088E492EC0E94AA0ADDCF70E060E090E015
:101FE00080E00E94C00581E0DF91CF911F910F91A9
:101FF000FF90EF900895CF92DF92EF92FF92CF93F0
:10200000DF936C01990FEE08FF08F7FE1FC06DE229
:102010008CE294E00E941C05EC0166277727CB0137
:102020006C197D098E099F094AE00E94180CC80F9F
:10203000D91F81E891E00E940B0C8C0F9D1FDF914E
:10204000CF91FF90EF90DF90CF9008954AE0C701C5
:10205000B6010E94180CEC01ECCFCF93DF93BC01CA
:1020600090E080E04AE00E94180CEC0181E891E0E9
:102070000E940B0C8C0F9D1FDF91CF9108958BE870
:1020800091E00197F1F741E061E08DE30E94A00843
:1020900010923E0380933D03813019F40E941D018C
:1020A000089580E0089585ED8093BC0080916703DA
:1020B00090916803A0916903B0916A030796A11DEE
:1020C000B11D23E0B695A795979587952A95D1F7E9
:1020D0002091BC0024FD03C0109265030895409137
:1020E0006703509168036091690370916A03452BFF
:1020F000462B472B69F30097A105B10541F025E375
:102100002A95F1F700000197A109B109E1CF80916B
:1021100066030C9498071F920F920FB60F9211242A
:102120002F933F938F939F93AF93BF938091FF0221
:1021300090910003A0910103B09102033091FE023F
:1021400023E0230F2D3758F50196A11DB11D2093D3
:10215000FE028093FF0290930003A0930103B093CB
:1021600002038091030390910403A0910503B091B1
:1021700006030196A11DB11D8093030390930403F0
:10218000A0930503B0930603BF91AF919F918F91E8
:102190003F912F910F900FBE0F901F90189526E83A
:1021A000230F0296A11DB11DD2CF1F920F920FB621
:1021B0000F9211242F933F934F935F936F937F93CD
:1021C0008F939F93AF93BF93EF93FF93E09114018D
:1021D000F09115010995FF91EF91BF91AF919F91FA
:1021E0008F917F916F915F914F913F912F910F90C0
:1021F0000FBE0F901F9018951F920F920FB60F925F
:1022000011242F933F934F935F936F937F938F93FB
:102210009F93AF93BF93EF93FF93E0911201F091DF
:1022200013010995FF91EF91BF91AF919F918F910C
:102230007F916F915F914F913F912F910F900FBEC2
:102240000F901F9018951F920F920FB60F921124A6
:102250002F933F934F935F936F937F938F939F93AE
:10226000AF93BF93EF93FF93E0911001F0911101B1
:102270000995FF91EF91BF91AF919F918F917F91C0
:102280006F915F914F913F912F910F900FBE0F90E3
:102290001F9018951F920F920FB60F9211242F9333
:1022A0003F934F935F936F937F938F939F93AF93DE
:1022B000BF93EF93FF93E0910E01F0910F01099509
:1022C000FF91EF91BF91AF919F918F917F916F910E
:1022D0005F914F913F912F910F900FBE0F901F90E4
:1022E00018951F920F920FB60F9211242F933F93C0
:1022F0004F935F936F937F938F939F93AF93BF930E
:10230000EF93FF93E0910C01F0910D010995FF917E
:10231000EF91BF91AF919F918F917F916F915F915D
:102320004F913F912F910F900FBE0F901F901895D6
:102330001F920F920FB60F9211248F939F9380914B
:10234000E1009091E100937F9093E10083FF0FC043
:102350001092E90091E09093EB001092EC0092E370
:102360009093ED001092140398E09093F00082FF98
:1023700022C093E09093E9009091F200992319F024
:102380009AE39093E8009091F702992341F090919D
:10239000F70291509093F702911101C05D9A9091CC
:1023A0001303992341F090911303915090931303D9
:1023B000911101C0289A84FF18C08091E2008E7E9E
:1023C00081608093E2008091E1008F7E8093E10044
:1023D0008091F8028E7E80618093F8029F918F91A8
:1023E0000F900FBE0F901F90189580FFF7CF809130
:1023F000E2008E7E80618093E2008091E1008E7E1B
:102400008093E1008091F8028E7E8160E5CF1F927B
:102410000F920FB60F921124CF92DF92EF92FF929C
:102420000F931F932F933F934F935F936F937F93DC
:102430008F939F93AF93BF93EF93FF93CF93DF93CC
:10244000CDB7DEB76C97DEBFCDBF1092E9008091AB
:10245000E80083FF25C068E0CE0145960E947F0317
:1024600082EF8093E8008D8987FF39C09091E80062
:1024700090FFFCCF982F907609F034C19E894F8948
:10248000588D2F89F88C911131C0803861F5809179
:10249000F9028093F1001092F1008EEF8093E80032
:1024A0006C960FB6F894DEBF0FBECDBFDF91CF9113
:1024B000FF91EF91BF91AF919F918F917F916F911C
:1024C0005F914F913F912F911F910F91FF90EF904E
:1024D000DF90CF900F900FBE0F901F9018959EEF3A
:1024E0009093E800C7CF1092F100D5CF913059F406
:1024F0008111D3CF4130510581F68091F9028D7F52
:102500008093F902CACF933049F48111C6CF41308C
:10251000510519F68091F9028260F2CF953041F4AD
:102520008091E80080FFFCCF20682093E300B5CFC6
:10253000963009F0A9C00B8D1C8D22E01092E900A5
:102540001092F5021092F402F2122EC01092F302D1
:102550001092F2020E944E031F8299E09983FA8240
:1025600091E09E8390EA98879AEF99872091F402F0
:102570003091F502275F3F4F3C832B838D83109270
:10258000E9001092F5021092F4021093F302009306
:10259000F20249E050E0BE016F5F7F4F80E00E9491
:1025A00028030E944E0379CF1093F3020093F202A6
:1025B0000E947201DC0112960D911C91011511050A
:1025C00009F451C1D801ED91FC910480F581E02D11
:1025D000BE016B5E7F4FC8010995009709F03EC1AF
:1025E000F80100851185EACFF3E0FF120EC08F8954
:1025F000882309F440C0823061F440E862E185E25A
:1026000091E00E94F502811148CF81E28093EB00B6
:1026100047CF813029F440E862E182E191E0F1CFD7
:10262000833099F70E947201DC011296ED90FC90C4
:102630008E010F5F1F4F6801E114F10479F0D7019B
:10264000ED91FC910680F781E02DB801C701099555
:10265000080F111DF701E084F184EECFD8011C9220
:10266000F60101900020E9F73197BF016C197D094F
:1026700040E0C601C6CF6CEF70E0FB01449150E032
:1026800080E80E94280309CF973009F4BECF983024
:1026900021F481E08093F10000CF993009F0FDCE64
:1026A000837009F0B2CFEFE3F1E081E031E096E32F
:1026B0002191222371F08093E9003093EB00DF0138
:1026C00011972C912093EC009093ED008F5F873051
:1026D00079F78EE78093EA001092EA008F89809361
:1026E0001403DBCE8B8D9C8D1092E9001092F502C5
:1026F0001092F4029093F3028093F202898D81117B
:1027000092C08E899D89913A49F4813209F07DCF3A
:1027100047E050E064E071E080E0B3CF913209F02F
:1027200074CF833269F48F89988DB0E0A0E08093F4
:10273000000190930101A0930201B0930301ADCE7B
:10274000803269F48091E80082FFFCCF67E084E08A
:1027500091E00E947F038BEF8093E8009ECE82324F
:1027600009F09BCE8F8980930B01EEEFFFE78591F7
:1027700094918B3F9C4D51F1E0E0F8E08091040191
:1027800090910501A0910601B0910701803B944012
:10279000A105B105F1F480910B0180FD1AC0EE3F57
:1027A0008AE0F80789F587E797E79183808380912E
:1027B00060008093F60288E19BE00FB6F894A8953C
:1027C000809360000FBE9093600067CEEEEFFAE05A
:1027D000D5CF808191818737974709F05ECEA89544
:1027E000809160008861809360008091F602809300
:1027F0006000EE3F2AE0F20789F08091FE0A909196
:10280000FF0A9183808349CE808191818737980721
:1028100051F29093FF0A8093FE0AC5CF1092FF0AEF
:102820001092FE0A3ACE0E947201DC0112960D91BE
:102830001C910115110509F4E8CED801ED91FC9128
:102840000190F081E02DBE016B5E7F4FC8010995BC
:10285000811123CEF80100851185EBCF18161906DA
:102860000CF41BCED2CEF1E0FF12BECE60E071E0E0
:1028700004CF1F920F920FB60F9211242F933F9304
:102880004F935F936F937F938F939F93AF93BF9378
:10289000EF93FF938FE893E00E940A04FF91EF917A
:1028A000BF91AF919F918F917F916F915F914F9168
:1028B0003F912F910F900FBE0F901F9018951F9270
:1028C0000F920FB60F9211242F938F939F93EF9334
:1028D000FF93E0919F03F091A0038081E091A50315
:1028E000F091A60382FD1BC090818091A8038F5FA9
:1028F0008F732091A903821741F0E091A803F0E0C3
:10290000E157FC4F958F8093A803FF91EF919F9122
:102910008F912F910F900FBE0F901F90189580816F
:10292000F4CF1F920F920FB60F9211242F933F9363
:102930004F935F936F937F938F939F93AF93BF93C7
:10294000EF93FF93CF93DF9300D01F92CDB7DEB705
:1029500083B18983898190917C0489278A838091BE
:102960006B009A8189238B838B8180FF05C0E09166
:10297000E202F091E30209958B8181FF05C0E091AD
:10298000E402F091E50209958B8182FF05C0E09198
:10299000E602F091E70209958B8183FF05C0E09183
:1029A000E802F091E90209958B8184FF05C0E0916E
:1029B000EA02F091EB0209958B8185FF05C0E09159
:1029C000EC02F091ED0209958B8186FF05C0E09144
:1029D000EE02F091EF0209958B8187FF05C0E0912F
:1029E000F002F091F1020995898180937C040F90A7
:1029F0000F900F90DF91CF91FF91EF91BF91AF9129
:102A00009F918F917F916F915F914F913F912F9106
:102A10000F900FBE0F901F9018951F920F920FB638
:102A20000F9211242F933F934F935F936F937F9354
:102A30008F939F93AF93BF93EF93FF938091B900D0
:102A4000887F803609F44AC0F0F5883209F4A7C0BF
:102A500018F5803109F49BC0B8F4882309F4F9C053
:102A6000883009F494C0FF91EF91BF91AF919F918D
:102A70008F917F916F915F914F913F912F910F9027
:102A80000FBE0F901F901895883109F488C08032CE
:102A900051F78093630314C0803409F49DC040F45F
:102AA0008033B9F38833F9F68093630385ECB0C0C3
:102AB000803509F485C0883509F496C0883499F6C4
:102AC0000E945310D0CF883909F48CC038F588376C
:102AD00029F050F4883611F0803729F683E080938E
:102AE00065031092D60257C0883809F47BC080393C
:102AF00019F0803809F0B7CF8091D602803208F003
:102B000071C0E091D60281E08E0F8093D602809151
:102B1000BB00F0E0EA54FD4F80833DC0803B39F0BC
:102B2000E0F4803A09F479C0883A09F09CCF84E057
:102B3000809365031092B5021092B402E091FC02FA
:102B4000F091FD0209958091B40281110FC081E0DE
:102B50008093B4021092940209C0803C09F4A6CF7D
:102B6000883C09F4A3CF883B09F07DCFE091B50202
:102B700081E08E0F8093B502F0E0EC56FD4F80812E
:102B80008093BB009091B5028091B40229C08091DE
:102B900040038093BB0085EC8093BC0064CF909190
:102BA000620380916103981758F5E091620381E018
:102BB0008E0F80936203F0E0EF5BFC4F8081E9CFE2
:102BC000E091620381E08E0F809362038091BB00ED
:102BD000F0E0EF5BFC4F8083909162038091610392
:102BE0009817C8F285E8D8CFE091620381E08E0F94
:102BF000809362038091BB00F0E0EF5BFC4F808329
:102C00008091640381115CCF81E080933F0384EA6B
:102C10008093BC001092650326CF85EC8093BC00A6
:102C2000109265038091D602803230F4E091D60292
:102C3000F0E0EA54FD4F10826091D60270E0E0911E
:102C4000FA02F091FB0286EB92E009951092D6020F
:102C50000ACF1092630334CF1F93CF93DF93162FC5
:102C6000C1E2D6E09BA121E020936B0390938D03FA
:102C700010926C0310928E03682F8DE794E00E94EF
:102C8000B409612F8DE794E00E94B4090E94B9074E
:102C900088A3DF91CF911F910895CF93DF93C1E275
:102CA000D6E09BA121E020936B0390938D031092BB
:102CB0006C0310928E03682F8DE794E00E94B40994
:102CC0000E94B90788A361E08BA10E94CF0D0E94EA
:102CD0001D01C82F0E94B9078C2FDF91CF91089555
:102CE0002AE0FC0111922A95E9F70895CF93DF932A
:102CF000EFE8F3E01382128288EE93E0A0E0B0E008
:102D000084839583A683B78329E431E031832083CC
:102D10002DEC30E0358724872CEC30E03787268790
:102D200028EC30E0318B208B29EC30E0338B228B88
:102D30002AEC30E0358B248B2EEC30E0378B268B61
:102D4000118E128E138E148EECE2F4E01382128236
:102D500084839583A683B7832BE531E03183208379
:102D60002FEF3FEF3587248723B120937C04EDE7D5
:102D7000F4E01382128284839583A683B7838DE661
:102D800091E091838083E9E8F4E082E99FEF918309
:102D9000808387E390E0938382838CED95E0958335
:102DA000848386E990E09783868386E0A1E9B4E096
:102DB000ED01982F19929A95E9F71786168622E069
:102DC00030E0318B208B40E351E1538B428B4DEC53
:102DD0005CEC6CEA7FE3468B578B608F718F428F80
:102DE000538F648F758F49E25CE56FE07DE3468F1A
:102DF000578F60A371A313A612A6C1E0D0E0D5A798
:102E0000C4A737A726A723E030E031AB20AB24E0EE
:102E100030E033AB22AB25E030E035AB24ABEAE564
:102E2000F5E0DF011D928A95E9F710924F051092A7
:102E30004E0510924905EDE2F5E0128215821086EA
:102E40008EE0818781E0828783878FE791E091839D
:102E5000808389E195E00E94701685E095E00E94EC
:102E6000701681EF94E00E947016EFEBF4E08DECA9
:102E70009CECACECBDE380839183A283B38340E000
:102E800050E060E07FE344835583668377838087E7
:102E90009187A287B38783E393E3ABE2B1E48487AE
:102EA0009587A687B7878AE097EDA3E2BCE3848B7A
:102EB000958BA68BB78B88E790E0958F848F8AEFF0
:102EC00090E0978F868F80E590E093A782A781E4BA
:102ED00094E095A784A784E190E097A786A786E170
:102EE00090E091AB80AB88ED95E00E9470160E9457
:102EF000B70210920206109201061092FC058DE0B6
:102F000096E00E947016E1E2F6E0108E118E128EAD
:102F1000138E148E158E168E178ED2A3C1A315A2F2
:102F200014A216A2DF91CF910895789484B582609F
:102F300084BD84B5816084BD85B5826085BD85B55D
:102F4000816085BD80916E00816080936E001092DB
:102F50008100809181008260809381008091810056
:102F600081608093810080918000816080938000E7
:102F700080919100826080939100809191008160A6
:102F80008093910080919000816080939000809167
:102F9000C10084608093C1008091C10082608093F1
:102FA000C1008091C10081608093C1008091C30005
:102FB00081608093C3008091C00082608093C000D4
:102FC0008091C20081608093C20080917A00846009
:102FD00080937A0080917A00826080937A00809159
:102FE0007A00816080937A0080917A008068809373
:102FF0007A00109214031092F9021092F802809154
:10300000D70081608093D70080EA8093D80089B58B
:10301000806189BD89B5826089BD09B400FEFDCF9C
:1030200061E070E080E090E00E9485028091D8002D
:103030008F7C80618093D8008091E000807F8093B6
:10304000E0008091E1008E7E8093E1008DE080932E
:10305000E200559A209A10923E0310923D0310927E
:103060006C0310928E030E947A0783EC92E0909397
:10307000FD028093FC0284EC92E09093FB0280932B
:10308000FA028BE60E94D70D8936910509F0A4C09B
:1030900010924306109242068BE68093440680E12C
:1030A0000E944D1660E080E10E942C1683E2C82E3B
:1030B0008BEDD82E89E7E82E8DE3F82EC0923D06E1
:1030C000D0923E06E0923F06F09240068091420682
:1030D00090914306892B39F580E10E944D1660E0FE
:1030E00080E10E942C16C0923D06D0923E06E092EE
:1030F0003F06F092400681E10E944D16682F607FE6
:1031000081E10E942C1680E090E0ACE0B1E4809375
:10311000390690933A06A0933B06B0933C0664E0D0
:1031200082E10E942C1660E0809120010E94000242
:1031300061E080911C010E94000260E080911E010C
:103140000E94000260E080911A010E94000261E08A
:10315000809116010E94000260E0809118010E9497
:1031600000028091990490919A048230910509F4AB
:1031700051C008F048C0009709F451C08130910552
:1031800009F448C000E010E00E94BD0E0E94FC0D52
:103190008AE495E00E946A0C0E943F1090E09093B0
:1031A0009E0480939D0480919704909198048230AE
:1031B000910509F43CC1C0F5009709F4ADC0019731
:1031C00009F4BEC001151105F9F20E94F603882327
:1031D000D9F20E940000D8CF8AE60E94D70D893626
:1031E000910531F410924306109242068AE655CFBB
:1031F00084E891E00E945C0C64E670E080E090E07E
:103200000E948502F5CF8330910521F0843091052D
:1032100009F0B8CF9093980480939704B3CF10929D
:10322000980410929704AECF8330910509F4A7C19A
:10323000049741F68091990490919A04049711F6AD
:103240000E940907882331F0109298041092970485
:103250000E940B0680919D0490919E04892B09F495
:1032600007C28FE991E00E945C0C8AE495E00E941D
:103270006A0C882321F089EB91E00E945C0C80911C
:103280004E0590914F052091BD043091BE048217E8
:10329000930741F02091BB043091BC04821793073F
:1032A00009F090CF88EC91E00E945C0C809154056D
:1032B000909155050E942D108091560590915705CB
:1032C0000E942D1082E291E00E943D0A882309F4B9
:1032D00079CF60E085E10E94D20168EC70E080E087
:1032E00090E00E94850261E085E10E94D20168ECD5
:1032F00070E080E090E00E94850260E085E10E943D
:10330000D20168EC70E080E090E00E94850287E7DF
:1033100092E00E945C0CDDCF0E940907882359F0DF
:103320008091990490919A049093980480939704C3
:103330000E940B0647CF1092980410929704F8CF82
:103340008091990490919A04019709F03BCF0E94D3
:1033500009078111F0CF80919D0490919E04892BE3
:1033600009F430CF8FE991E00E945C0C0E943F107D
:103370008823A9F189EB91E00E945C0C80914E05B5
:1033800090914F052091B3043091B40482179307B4
:1033900039F02091B7043091B8048217930789F46B
:1033A00088EC91E00E945C0C809154059091550549
:1033B0000E942D1080915605909157050E942D1066
:1033C00001CF82E291E00E943D0A882309F4FACEFF
:1033D0000E94B70C8AEE91E00E940B0CF3CE209174
:1033E0004E0530914F058091B5049091B604281791
:1033F000390709F095C18CE192E00E945C0C809144
:103400005405909155050E942D108091560590917C
:1034100057050E942D1082E291E00E943D0A811121
:103420000E94B70C84E392E00E945C0CCBCE0E9419
:103430000907882331F010929804109297040E9493
:103440000B0680919D0490919E04892B09F46EC017
:103450008FE991E00E945C0C8AE495E00E946A0C7E
:10346000882309F4AFCE89EB91E00E945C0C809137
:103470004E0590914F052091B3043091B40482170A
:10348000930739F02091B7043091B804821793075D
:10349000D1F488EC91E00E945C0C809154059091ED
:1034A00055050E942D1080915605909157050E9458
:1034B0002D1082E291E00E943D0A882309F482CE19
:1034C0000E94B70C7FCE2091B9043091BA048217C4
:1034D000930709F077CE8EE392E00E945C0C809116
:1034E0005405909155050E942D108091560590919C
:1034F00057050E942D1082E291E00E943D0A811141
:10350000DFCF82E291E00E943D0A81115BCE6EEC3A
:103510007FEF82E390E00E94C0056BE470E08BE4F3
:1035200090E00E94C0058BE692E07ECF20E030E084
:1035300046E153E4CA01B9010E94AA0A0E94270F7A
:1035400081110E94DD0B0E94A30F0E94B70C4091D5
:103550005405509155058091560590915705489F07
:103560009001499F300D589F300D112480919B048C
:1035700090919C042817390709F024CED9CE809168
:10358000990490919A04039709F06AC00E94090770
:10359000882331F010929804109297040E940B0631
:1035A00080919D0490919E04892B09F459C08FE964
:1035B00091E00E945C0C8AE495E00E946A0C8823EA
:1035C00021F089EB91E00E945C0C80914E05909176
:1035D0004F052091BD043091BE048217930739F046
:1035E0002091BB043091BC0482179307C9F588EC85
:1035F00091E00E945C0C80915405909155050E94C9
:103600002D1080915605909157050E942D1082E251
:1036100091E00E943D0A882319F160E085E10E9453
:10362000D20168EC70E080E090E00E94850261E0E9
:1036300085E10E94D20168EC70E080E090E00E9499
:10364000850260E085E10E94D20168EC70E080E0D4
:1036500090E00E94850287E792E00E945C0CDDCF3B
:103660000E94270F882309F4ADCD0E94DD0BAACD5F
:103670008091ED040E943C02EC018091EF040E94D5
:103680003C02BE01681B790B072E000C880B990BBE
:103690000E94A21B6B017C018090BF049090C0042B
:1036A000A090C104B090C204A50194010E94DD1B4A
:1036B0002B013C01C701B6019058A50194010E945D
:1036C000DD1B6B017C018FE792E00E945C0C809116
:1036D000ED040E943C020E94FB0F86E892E00E94EB
:1036E0005C0C8091EF040E943C020E94FB0F20E0E2
:1036F00030E048E452E4C701B6010E94C41C0E94B5
:10370000A21D6B0120E030E048E452E4C301B201A5
:103710000E94C41C0E94A21DCB01B6010E94C005DC
:1037200020E030E046E153E4CA01B9010E94AA0A50
:103730000E94270F81110E94DD0B0E94A30F42CD32
:10374000E89409C097FB3EF490958095709561953B
:103750007F4F8F4F9F4F9923A9F0F92F96E9BB27F1
:103760009395F695879577956795B795F111F8CF6D
:10377000FAF4BB0F11F460FF1BC06F5F7F4F8F4FD8
:103780009F4F16C0882311F096E911C0772321F0CE
:103790009EE8872F762F05C0662371F096E8862F66
:1037A00070E060E02AF09A95660F771F881FDAF7BD
:1037B000880F9695879597F908950E94F01B0C94B1
:1037C000611C0E94531C38F00E945A1C20F0952363
:1037D00011F00C944A1C0C94501C11240C94951C50
:1037E0000E94721C70F3959FC1F3950F50E0551F16
:1037F000629FF001729FBB27F00DB11D639FAA2746
:10380000F00DB11DAA1F649F6627B00DA11D661F94
:10381000829F2227B00DA11D621F739FB00DA11DB5
:10382000621F839FA00D611D221F749F3327A00D6F
:10383000611D231F849F600D211D822F762F6A2F0B
:1038400011249F5750409AF0F1F088234AF0EE0F70
:10385000FF1FBB1F661F771F881F91505040A9F79D
:103860009E3F510580F00C944A1C0C94951C5F3FC0
:10387000E4F3983ED4F3869577956795B795F795D9
:10388000E7959F5FC1F7FE2B880F911D9695879551
:1038900097F9089597F99F6780E870E060E00895D0
:1038A0009FEF80EC089500240A9416161706180658
:1038B0000906089500240A94121613061406050634
:1038C0000895092E0394000C11F4882352F0BB0FC5
:1038D00040F4BF2B11F460FF04C06F5F7F4F8F4F28
:1038E0009F4F089557FD9058440F551F59F05F3F63
:1038F00071F04795880F97FB991F61F09F3F79F012
:1039000087950895121613061406551FF2CF469593
:10391000F1DF08C0161617061806991FF1CF869515
:103920007105610508940895E894BB2766277727F9
:10393000CB0197F90895A1E21A2EAA1BBB1BFD012A
:103940000DC0AA1FBB1FEE1FFF1FA217B307E4077E
:10395000F50720F0A21BB30BE40BF50B661F771FD6
:10396000881F991F1A9469F76095709580959095B6
:103970009B01AC01BD01CF010895EE0FFF1F059023
:10398000F491E02D09945058BB27AA270E94DB1C14
:103990000C94611C0E94531C38F00E945A1C20F0A9
:1039A00039F49F3F19F426F40C94501C0EF4E09562
:1039B000E7FB0C944A1CE92F0E94721C58F3BA17BB
:1039C000620773078407950720F079F4A6F50C9435
:1039D000941C0EF4E0950B2EBA2FA02D0B01B9010B
:1039E00090010C01CA01A0011124FF27591B99F075
:1039F000593F50F4503E68F11A16F040A22F232F81
:103A0000342F4427585FF3CF469537952795A795D0
:103A1000F0405395C9F77EF41F16BA0B620B730B77
:103A2000840BBAF09150A1F0FF0FBB1F661F771FE8
:103A3000881FC2F70EC0BA0F621F731F841F48F49D
:103A4000879577956795B795F7959E3F08F0B0CF26
:103A50009395880F08F09927EE0F9795879508950D
:103A60000E94441D0C94611C0E945A1C58F00E9434
:103A7000531C40F029F45F3F29F00C944A1C51116B
:103A80000C94951C0C94501C0E94721C68F3992392
:103A9000B1F3552391F3951B550BBB27AA2762174A
:103AA0007307840738F09F5F5F4F220F331F441F57
:103AB000AA1FA9F335D00E2E3AF0E0E832D091508B
:103AC0005040E695001CCAF72BD0FE2F29D0660F78
:103AD000771F881FBB1F261737074807AB07B0E8BB
:103AE00009F0BB0B802DBF01FF2793585F4F3AF0C1
:103AF0009E3F510578F00C944A1C0C94951C5F3F36
:103B0000E4F3983ED4F3869577956795B795F79546
:103B10009F5FC9F7880F911D9695879597F908952E
:103B2000E1E0660F771F881FBB1F621773078407CA
:103B3000BA0720F0621B730B840BBA0BEE1F88F7D9
:103B4000E09508950E94A91D6894B1110C94951CEC
:103B500008950E947A1C88F09F5798F0B92F9927F2
:103B6000B751B0F0E1F0660F771F881F991F1AF068
:103B7000BA95C9F714C0B13091F00E94941CB1E01D
:103B800008950C94941C672F782F8827B85F39F01C
:103B9000B93FCCF3869577956795B395D9F73EF401
:103BA00090958095709561957F4F8F4F9F4F0895A9
:043BB000F894FFCFB7
:103BB400FFFFFFFF00E1000000000000C602C60294
:103BC400C602C602C6020000010012000000010085
:103BD40012000000B44400000C4258E95B43320078
:103BE4000000B44400000C4258E95B43320000C1B9
:103BF4008081000000000000002B048C03B90377CF
:103C040004EA03C803DC03000000001C0597043D1C
:103C1400053205830541055F0500000000B40987EE
:103C240009E309C50230010A01780900000000C84F
:103C3400060D0A004661696C656420746F20646532
:103C44007465637420746865204C534D362E0049A6
:103C5400207365652061207461736B206973206330
:103C64006F6D696E6720757000492073656520610A
:103C740020736B7265777400204920616D20636F37
:103C84006D6D696E67207570206F6E207468652095
:103C94006368616C6C656E67650054686520636871
:103CA400616C6C656E676520697320636F6D706C01
:103CB4006574652E2054686520736B726577742073
:103CC4006973206465666561746564004920736581
:103CD40065207468652063757020636F6D696E6715
:103CE4002075700057686F6F6F686F6F6F004920A1
:103CF400736565207468652063757020636F6D69F2
:103D04006E67207570207961792E2E2E2077616977
:103D1400742061206D696E75746500414848484897
:103D24004848484848480042796520427965004C33
:0E3D34006566743A200052696768743A200090
:00000001FF
