:100000000C94E0000C943A120C9413120C94EC1122
:100010000C94C5110C9408010C9408010C949E11C9
:100020000C9408010C945A150C9461120C94D01283
:100030000C9408010C9408010C9408010C9408011C
:100040000C9408010C9408010C9408010C9408010C
:100050000C9408010C9408010C9408010C945411A0
:100060000C9408010C9428150C9402150C940801AA
:100070000C9408010C9408010C9408010C940801DC
:100080000C9408010C9408010C9408010C940801CC
:100090000C94D6150C9408010C9408010C940801DA
:1000A0000C9408010C9408010C9408010000000055
:1000B0002300260029002C002F00080B000202025A
:1000C00000000904000001020200000524001001E4
:1000D0000524010101042402060524060001070588
:1000E000810310004009040100020A000000070516
:1000F00002024000000705830240000004030904D7
:1001000012010002EF020140FB1F00230001010267
:100110000301506F6C6F6C7520436F72706F72616A
:1001200074696F6E00506F6C6F6C7520412D537445
:100130006172203332553400070605040100080AB5
:100140000B0C0D0900000000240027002A002D00E0
:10015000300000000000250028002B002E00310098
:10016000040404040403040502020202040302025C
:10017000020206060606060604040202020404043D
:100180000802011040804010204080408008020496
:10019000018040201002011080102040402000000B
:1001A000000200090F0000030401000C0000000021
:1001B00000000000000000000000000000003F17E9
:1001C00011241FBECFEFDAE0DEBFCDBF26E0AEEDDB
:1001D000B2E001C01D92A93AB207E1F712E0A0E037
:1001E000B1E0EEE1FEE302C005900D92AE3DB10735
:1001F000D9F710E0C0EED0E004C02197FE010E94C4
:10020000ED1DCF3DD107C9F70E9475180C940D1F45
:100210000C94000090918E0380918D032FEF3FEF9F
:10022000981748F4E92FF0E0E359FC4F208130E0C3
:100230009F5F90938E03C901089590918E038091E2
:100240008D032FEF3FEF981748F4E92FF0E0E359C3
:10025000FC4F208130E09F5F90938E03C901089589
:1002600080918D0390918E03891B990B0895FC0159
:1002700080916403882311F13FB7F89482E0809362
:10028000E9002091F200822F90E01816190614F46C
:1002900081E090E0882339F0289844E64093630396
:1002A0004091F1004083222339F02091F200211186
:1002B00003C02BE62093E8003FBF08958FEF9FEF28
:1002C00008952FB7F89483E08093E9009091E800B7
:1002D000892F807295FF04C09091F20080E4891B01
:1002E0002FBF089580915B0381110DC082E0809340
:1002F000570384E08093580310925A0310925903D5
:1003000081E080935B0387E593E0089581508F300F
:1003100008F047C0E82FF0E0E057FE4F0C94ED1DC9
:10032000AD01B1019F01A501A901D101D101D10107
:10033000B401BA01BE01C201C801D101CC01809152
:1003400080008F77809380000895809180008F7D5A
:10035000F9CF80918000877FF5CF84B58F7784BDFA
:10036000089584B58F7DFBCF809190008F77809327
:1003700090000895809190008F7DF9CF809190003A
:10038000877FF5CF8091C0008F778093C00008955C
:100390008091C0008F7DF9CF8091C200877F8093CC
:1003A000C20008951F93CF93DF93282F30E0F90107
:1003B000E256FE4F8491F901E158FE4FD491F901C4
:1003C000E05AFE4FC491CC23A9F0162F81110E9450
:1003D0008601EC2FF0E0EE0FFF1FEE5AFE4FA591C5
:1003E000B4918FB7F894EC91111108C0D095DE2329
:1003F000DC938FBFDF91CF911F910895DE2BF8CF53
:10040000CF93DF9390E0FC01E158FE4F2491805A96
:100410009E4FFC0184918823C9F090E0880F991FBA
:10042000FC01EC5BFE4FA591B491FC01EE5AFE4F2E
:10043000C591D49161110DC09FB7F8948C9120950E
:1004400082238C938881282328839FBFDF91CF91BB
:100450000895623051F49FB7F8943C91822F8095B3
:1004600083238C93E8812E2BEFCF8FB7F894EC91F8
:100470002E2B2C938FBFEACF823108F08251E82FC8
:10048000F0E0E85CFE4FE49190917B008E2F880FA6
:10049000880F80729F7D892B80937B00E770E064DA
:1004A000E0937C0080917A00806480937A00809150
:1004B0007A0086FDFCCF80917800909179000895B4
:1004C0003FB7F8948091530390915403A091550342
:1004D000B091560326B5A89B05C02F3F19F0019691
:1004E000A11DB11D3FBFBA2FA92F982F8827BC018E
:1004F000CD01620F711D811D911D42E0660F771FB6
:10050000881F991F4A95D1F708958F929F92AF92B5
:10051000BF92CF92DF92EF92FF924B015C010E945B
:1005200060026B017C010E9460026C197D098E09DA
:100530009F09683E734081059105A8F321E0821A66
:100540009108A108B10888EEC80E83E0D81EE11C0E
:10055000F11C81149104A104B10429F7FF90EF90DC
:10056000DF90CF90BF90AF909F908F9008952FB75E
:10057000F89460914F0370915003809151039091D2
:1005800052032FBF08950895089508950895409146
:100590004403509145032091420330914303421795
:1005A0005307B4F49091E8009570E1F39091E8005E
:1005B00092FD19C08093F10080914403909145030E
:1005C00001968F739927892B19F48EEF8093E80099
:1005D0008091440390914503019690934503809345
:1005E000440381E0089580E00895EF92FF920F9315
:1005F0001F93CF93DF93F82E192FE62E042F81E05F
:10060000860F880F0E94C70283E00E94C702CF2D89
:10061000D12FEC0EFD2EF11CCE15DF05B9F007FF32
:1006200013C0FE0184910E94C702182F80E00E942F
:10063000C702812321968111EFCFDF91CF911F91C6
:100640000F91FF90EF9008958881EDCF81E0F5CF75
:10065000DF92EF92FF920F931F93CF93DF93D82EE9
:100660008A01EB017B01E40EF51ECE15DF0559F082
:10067000D7FE12C0FE0184910E94C702219681110B
:10068000F4CF0FEF1FEFC801DF91CF911F910F91B2
:10069000FF90EF90DF9008958881EECF0F931F9326
:1006A000CF93DF931F92CDB7DEB782E0898342E418
:1006B00050E06AEB70E080E80E9428030E9472011B
:1006C000DC0112960D911C910115110589F0D801DC
:1006D000ED91FC910280F381E02DBE016F5F7F4FB1
:1006E000C801099597FD04C0F80100851185ECCF7C
:1006F00089810F90DF91CF911F910F9108956150E3
:1007000030F02091F100FC0120830196F8CF289869
:1007100084E6809363030895AF92BF92CF92DF92F5
:10072000EF92FF920F931F93CF93DF936C017B01A6
:100730008B01040F151FEB015E01AE18BF08C01737
:10074000D10759F06991D601ED91FC910190F081AA
:10075000E02DC6010995892B79F7C501DF91CF916D
:100760001F910F91FF90EF90DF90CF90BF90AF90CF
:100770000895FC01538D448D252F30E0842F90E0A7
:10078000821B930B541710F0CF960895019708958C
:10079000FC01918D828D981761F0A28DAE0FBF2F55
:1007A000B11D5D968C91928D9F5F9F73928F90E0AB
:1007B00008958FEF9FEF0895FC01918D828D98171A
:1007C00031F0828DE80FF11D858D90E008958FEF57
:1007D0009FEF0895FC01918D228D892F90E0805C20
:1007E0009F4F821B91098F73992708958FED93E096
:1007F0000E94EA0321E0892B09F420E0822F08956A
:1008000080E090E0892B29F00E94F60381110C947E
:1008100000000895FC01A48DA80FB92FB11DA35AA3
:10082000BF4F2C91848D90E001968F739927848F10
:10083000A689B7892C93A089B1898C9182748C93F5
:10084000938D848D981306C00288F389E02D8081F2
:100850008F7D80830895EF92FF920F931F93CF9324
:10086000DF93EC0181E0888F9B8D8C8D981319C0EC
:10087000E889F989808185FF14C09FB7F894EE89D3
:10088000FF896083E889F9898081827480839FBFB2
:1008900081E090E0DF91CF911F910F91FF90EF9059
:1008A0000895F62E0B8D10E00F5F1F4F0F73112769
:1008B000E02E8C8D8E110CC00FB607FCFACFE889A4
:1008C000F989808185FFF5CFCE010E940A04F1CF1E
:1008D000EB8DEC0FFD2FF11DE35AFF4FF0829FB718
:1008E000F8940B8FEA89FB8980818062CFCFCF9308
:1008F000DF93EC01888D8823B9F0AA89BB89E88948
:10090000F9898C9185FD03C0808186FD0DC00FB6ED
:1009100007FCF7CF8C9185FFF2CF808185FFEDCF6B
:10092000CE010E940A04E9CFDF91CF9108958F9202
:100930009F92AF92BF92CF92DF92EF92FF920F936E
:100940001F93CF93DF936C017B018A0180910B0190
:10095000882309F45CC080916403882309F457C09C
:100960008091480380FF05C08091E0008260809301
:10097000E000E801B12C8AEFA82E93E0892E2AE34B
:10098000922E209711F4BB20D9F10E9461018111B0
:100990000AC0AA94AA20D9F161E070E080E090E05A
:1009A0000E948502EECF8C171D0611F00CF08C2FE3
:1009B0009FB7F8948092E9002091E80025FD02C0DD
:1009C0009FBFDFCF282F30E0C21BD30BF701815030
:1009D00020F041914093F100FACFE20EF31EBB20CC
:1009E00021F09092E800B12CEBCF8091E80085FDDA
:1009F000E7CF9092E800BB24B394209709F3F3CF9C
:100A00005D9884E680934703101611063CF081E060
:100A100090E0F6019383828310E000E0C801DF914B
:100A2000CF911F910F91FF90EF90DF90CF90BF90EB
:100A3000AF909F908F900895CF93DF931F92CDB783
:100A4000DEB76983DC01ED91FC910280F381E02D3A
:100A500041E050E0BE016F5F7F4F09950F90DF913D
:100A6000CF91089583E08093E9008091F20088237C
:100A700019F08AE38093E80008950E94610190E0F4
:100A80000895CF93DF931F92CDB7DEB7FC01848525
:100A9000958597FD08C02FEF3FEF358724870F908E
:100AA000DF91CF910895CE0101960E943701019701
:100AB00019F4898190E0F3CF8FEF9FEFF0CF0F9380
:100AC0001F93CF93DF931F92CDB7DEB78C01FC014C
:100AD0008485958597FF0BC0CE0101960E94370152
:100AE000019771F4898190E0F80195878487F80176
:100AF000848595850F90DF91CF911F910F91089577
:100B00008FEF9FEFF1CFFC018485958597FD0BC09A
:100B10009FB7F89482E08093E9008091F2009FBF34
:100B200090E0019608959FB7F89482E08093E900E1
:100B30008091F2009FBF90E008952E98269A2D98FC
:100B4000259A2A98229A2998219A2F98279A8AEAF0
:100B50008093800089E18093810084EA91E0909302
:100B6000870080938600109289001092880010926E
:100B70008B0010928A0010928D0010928C000895C4
:100B80000F931F93CF93DF938C01EB01809131037F
:100B9000811105C081E0809331030E949D0580E0B2
:100BA00017FF04C011950195110981E00D3291E004
:100BB000190714F00CE211E010938B0000938A00E7
:100BC000882329F12A9A229A80913103811105C044
:100BD00081E0809331030E949D0580E0D7FF04C02F
:100BE000D195C195D10981E0CD3291E0D90714F0BA
:100BF000CCE2D1E0D0938900C0938800882349F0EB
:100C0000299A219ADF91CF911F910F9108952A98E7
:100C1000DACF2998F6CF70E060E090E080E00C94A5
:100C2000C0058CB1282F30E035952795359527954F
:100C3000422F417083B190E054E0959587955A9585
:100C4000E1F78227817020912F039091300360910A
:100C50002D0370912E0324279827291B330B260F71
:100C6000371F30932E0320932D0320912F03909153
:100C70003003281729F0941719F091E090932C0372
:100C800080932F034093300308959FB191708CB1EE
:100C900086FB882780F9892720912A0330912B032E
:100CA000409128035091290329273827231B330B10
:100CB000240F351F309329032093280330912A03F2
:100CC00020912B03381729F0291719F021E02093E0
:100CD000270380932A0390932B03089524982C9A3A
:100CE0006A98729A6E98769A8098889AF89491E0A9
:100CF00090936800EBE6F0E080818061808321E1E1
:100D000036E030933B0320933A039BBB8091CC04A5
:100D10008F7E8093CC0483B19091CC048071892B19
:100D20008093CC04789485E496E0909315018093A9
:100D30001401EAE6F0E080818F7C80618083EE9A86
:100D40008CB182FB882780F98093300393B1809126
:100D5000300392959170892780932F0310922E0370
:100D600010922D0310922C038FB1817080932B036E
:100D70009CB180912B0396FB992790F9892780934A
:100D80002A03109229031092280310922703089532
:100D90000F931F93CF93DF93EC01888581110EC0D1
:100DA000898591E098879A8562E0911101C060E0A1
:100DB0000E9400028FE090E00197F1F7298530E072
:100DC000F901E256FE4F8491F901E158FE4F04917A
:100DD000F901E05AFE4F14911123C9F081110E94CC
:100DE0008601E12FF0E0EE0FFF1FE455FF4FA591C4
:100DF000B491EC910E2331E009F430E0832F2B8580
:100E000082278170DF91CF911F910F91089580E02B
:100E1000F6CF0F931F93CF93DF93EC01E881F98115
:100E20000190F081E02D099501E0182F10270E9414
:100E3000B7022D81213091F030F02230E9F02330DB
:100E400009F110E005C01111FCCF7F836E830D8383
:100E5000812FDF91CF911F910F910895112311F0F0
:100E60001D82EFCF2E813F81621B730B6F307105A6
:100E700078F382E08D83E5CF112351F37F836E8376
:100E800083E0F8CF1123A9F32E813F81621B730BFE
:100E90006F307105B0F21D82DBCF20910403260F65
:100EA0003327331F21323105ECF42091B503FC01C7
:100EB00090E080E0243069F082E00895A09104037E
:100EC0002191AC014C515D4FA40FB52FB11D2C9356
:100ED0000196861798F380910403680F60930403CA
:100EE00080E0089581E008951092B50381E0809339
:100EF000B40310928F0361E082E00E94D20161E0AE
:100F000083E00E94D201E9EBF0E080818E7F808354
:100F100080818D7F808388E48093B80085E480930E
:100F2000BC000895CF93DF9391E09093E302882370
:100F3000B9F0C091B800D091BA008091BC008A7B12
:100F40008093BC0060E082E00E94D20160E083E018
:100F50000E94D2010E947407D093BA00C093B800D7
:100F6000DF91CF910895CF92DF92EF92FF920F938E
:100F70001F93CF93DF93D091DE0381E0D13208F04D
:100F80009CC0C091DD030E9460026B017C018091D6
:100F9000B50381116CC082E08093B50381E080933A
:100FA000B4038FEF8093B3031092B203D093B103D5
:100FB000ADEBB3E0E1E9F3E080E0D8138DC010922F
:100FC000900380919003CC0FC82BC0939003809125
:100FD0008F03813009F084C010928F030E94600259
:100FE0006B017C01809190038093BB008091B703DB
:100FF0009091B803A091B903B091BA03892B8A2BC1
:101000008B2BA1F00E9460020091B7031091B803EE
:101010002091B9033091BA036C197D098E099F099B
:10102000061717072807390708F442C08091BC004B
:1010300083FDD8CF85EC8093BC000E9460026B01D9
:101040007C018091B503823009F44CC08091B303D8
:101050008F3F09F469C08091B303803209F466C000
:101060008091B303803309F463C084E026C080918B
:10107000B7039091B803A091B903B091BA03892B3B
:101080008A2B8B2B09F483CF0E9460020091B70357
:101090001091B8032091B9033091BA036C197D09FE
:1010A0008E099F09061717072807390708F06FCF21
:1010B0008091B6030E94920785E01092BC031092C3
:1010C000DE031092BB03DF91CF911F910F91FF9030
:1010D000EF90DF90CF9008959D9191938F5F6DCFAA
:1010E00085EEA9CF8091B7039091B803A091B90381
:1010F000B091BA03892B8A2B8B2B09F4A2CF0E94C3
:1011000060020091B7031091B8032091B9033091A8
:10111000BA036C197D098E099F090617170728075E
:10112000390708F08ECFC4CF80E0C7CF82E0C5CFAB
:1011300083E0C3CF8F929F92AF92BF92CF92DF9204
:10114000EF92FF920F931F93CF93DF93D82FC62F69
:10115000142F613208F09CC00E9460026B017C0178
:101160008091B50381116FC081E08093B503109326
:10117000B4039FEF9093B3031092B2039C0F90932C
:10118000B1038093900380919003DD0FD82BD0930F
:10119000900380918F03813009F07CC010928F03FF
:1011A0000E9460026B017C01809190038093BB00E0
:1011B0008091B7039091B803A091B903B091BA039D
:1011C000892B8A2B8B2BA1F00E9460020091B70320
:1011D0001091B8032091B9033091BA036C197D09BD
:1011E0008E099F09061717072807390708F44CC00E
:1011F0008091BC0083FDD8CF85EC8093BC000E9419
:1012000060026B017C018091B503813009F444C018
:101210008091B2038C1710F4C091B203E1E9F3E0BE
:10122000ADE6B3E080E08C1359C08C2FDF91CF91F5
:101230001F910F91FF90EF90DF90CF90BF90AF90F4
:101240009F908F9008958091B7039091B803A091DB
:10125000B903B091BA03892B8A2B8B2B09F480CF69
:101260000E9460028090B7039090B803A090B903E9
:10127000B090BA036C197D098E099F0986169706EE
:10128000A806B90608F06CCF8091B6030E949207B9
:10129000C0E0CBCF85EEB1CF8091B7039091B8037A
:1012A000A091B903B091BA03892B8A2B8B2B09F437
:1012B000AACF0E9460020091B7031091B803209159
:1012C000B9033091BA036C197D098E099F0906177D
:1012D00017072807390708F096CFD6CF91919D932D
:1012E0008F5FA1CFE0918E0380918D03E81730F4DA
:1012F000F0E0E359FC4F808190E008958FEF9FEF7D
:101300000895CF92DF92EF92FF920F931F93CF93A6
:10131000DF937C01CB018A012091BB03222389F05A
:10132000EB016B01C40ED51ECC15DD0569F069918A
:10133000D701ED91FC910190F081E02DC701099555
:10134000F3CF642F0E944D07C801DF91CF911F9109
:101350000F91FF90EF90DF90CF900895CF93DF93A0
:101360001F92CDB7DEB769832091BB032223F9F02A
:101370002091DE03203258F021E030E0FC0133837D
:10138000228390E080E00F90DF91CF9108958091CB
:10139000BC03E82FF0E0E354FC4F998190838F5F0A
:1013A0008093BC038093DE0381E090E0ECCF61E0AA
:1013B000CE0101960E944D07F7CF90E080E008959E
:1013C000FC01718360834681578151874087248166
:1013D00035813783268382819381958384837383C8
:1013E00062832417350724F4578346833187208787
:1013F0006817790724F491838083758364838481DB
:1014000095816817790724F49383828375836483B5
:1014100080819181268137818217930724F431835B
:1014200020839783868384819581268137818217E3
:10143000930724F435832483978386838281938161
:10144000208531858217930724F433832283918783
:10145000808782819381248135818217930724F4C8
:101460003383228395838483848195810895CF92E9
:10147000DF92EF92FF92CF93DF93EC010E94B702CD
:101480006B017C018091DF029091E002A091E1026A
:10149000B091E202B701A601481B590B6A0B7B0B06
:1014A0008C859D85B0E0A0E0481759076A077B0747
:1014B00008F448C080916703909168039093660395
:1014C0008093650380916B0390916C0390936A0302
:1014D000809369038091DE02811105C081E08093D1
:1014E000DE020E946E06F89480912D0390912E03E7
:1014F000789490936803809367038091DE02811152
:1015000005C081E08093DE020E946E06F89480910F
:10151000280390912903789490936C0380936B0334
:101520000E94B702C092DF02D092E002E092E10294
:10153000F092E20281E0DF91CF91FF90EF90DF9097
:10154000CF90089580E0F7CF4F925F926F927F9295
:101550008F929F92AF92BF92CF92DF92EF92FF92C3
:10156000CF93DF93CDB7DEB72C970FB6F894DEBFDD
:101570000FBECDBF6B017C0129833A834B835C8313
:1015800080E391E00E94370A882309F4FBC0209190
:10159000300130913101409132015091330160911D
:1015A00038017091390180913A0190913B010E947C
:1015B000601E2B013C0160913C0170913D0190E067
:1015C00080E00E94D01C20E030E04AE754E40E9412
:1015D000601E4B015C01609167037091680380910C
:1015E000650390916603681B790B072E000C880B2E
:1015F000990B0E94D21CA30192010E940D1DA5010E
:1016000094010E94601E9B01AC01C701B6010E94BB
:10161000F31D6B017C0160916B0370916C038091F1
:10162000690390916A03681B790B072E000C880BE5
:10163000990B0E94D21CA30192010E940D1DA501CD
:1016400094010E94601E9B01AC0169817A818B81AB
:101650009C810E94F31D2B013C01209136053091A5
:1016600037054091380550913905C701B6010E94F0
:10167000F41D69877A878B879C8760933605709302
:101680003705809338059093390520913A053091BC
:101690003B0540913C0550913D05C301B2010E94BC
:1016A000F41D4B015C0180923A0590923B05A0929B
:1016B0003C05B0923D0580911C0590911D05A091BF
:1016C0001E05B0911F0589839A83AB83BC838091EB
:1016D000200590912105A0912205B09123058D83CD
:1016E0009E83AF83B88729813A814B815C81C30196
:1016F000B2010E940D1D2B013C012D813E814F81C5
:101700005885C501B4010E940D1D9B01AC01C301A8
:10171000B2010E94F41D0E94D21E4B0129813A8120
:101720004B815C81C701B6010E940D1D6B017C01DC
:101730002D813E814F81588569857A858B859C8571
:101740000E940D1D9B01AC01C701B6010E94F41D52
:101750000E94D21ECB01B4012C960FB6F894DEBFC6
:101760000FBECDBFDF91CF91FF90EF90DF90CF9074
:10177000BF90AF909F908F907F906F905F904F90B1
:101780000C94C0052C960FB6F894DEBF0FBECDBFEB
:10179000DF91CF91FF90EF90DF90CF90BF90AF900F
:1017A0009F908F907F906F905F904F9008958F9251
:1017B0009F92AF92BF92CF92DF92EF92FF920F93E0
:1017C0001F93CF93DF93EC017B0170E060E090E02A
:1017D00080E00E94C00560913E0570913F05072E94
:1017E000000C880B990B0E94D21C4B015C01BE01BE
:1017F000DD0F880B990B0E94D21C20E030E044E3FF
:1018000053E40E94601E9B01AC01C501B4010E941B
:101810000D1D0E94D21EEB01009167031091680319
:10182000CC24DD24C01AD10AA80117FDA60180919D
:1018300067039091680397FF03C091958195910983
:101840009A01281B390B121613061CF09C01241B4D
:10185000350BC217D307B4F020E030E048E452EC77
:1018600060E070E088E492E4E114F10441F020E0EB
:1018700030E048E452E460E070E088E492EC0E94DA
:10188000A40AD2CF70E060E090E080E00E94C00542
:1018900081E0DF91CF911F910F91FF90EF90DF904A
:1018A000CF90BF90AF909F908F900895CF92DF928E
:1018B000EF92FF9270E060E090E080E00E94C0054F
:1018C0000E94B7026B017C010E94B7026C197D096E
:1018D0008E099F09623C71418105910548F420E021
:1018E00030E04CED52ECCA01B9010E94A40AECCFE1
:1018F00070E060E090E080E00E94C00581E0FF9031
:10190000EF90DF90CF900895FC0101900020E9F75F
:101910003197AF01481B590BBC018CE794E00C9444
:1019200097048F929F92AF92BF920F931F93CF9382
:10193000DF93CDB7DEB7A1970FB6F894DEBF0FBE29
:10194000CDBF19A2423008F44AE08E010F5D1F4F4F
:10195000842E912CB12CA12CA50194010E94CB1DA9
:10196000E62FB901CA01EA30F4F4E05DD801EE9344
:101970008D01232B242B252B79F790E080E0109705
:1019800019F0CD010E94840CA1960FB6F894DEBF29
:101990000FBECDBFDF91CF911F910F91BF90AF9040
:1019A0009F908F900895E95CE1CFCF93DF930E94E1
:1019B000840CEC0187E891E00E94840C8C0F9D1F41
:1019C000DF91CF910895AF92BF92CF92DF92EF92C5
:1019D000FF920F931F93CF93DF93CDB7DEB760973E
:1019E0000FB6F894DEBF0FBECDBF7C0183EE93E04F
:1019F0000197F1F741E060E18DE30E949A081092AF
:101A00008E0380938D03803149F58E010F5F1F4F48
:101A10005E0181E1A80EB11C68010E941D01F80160
:101A200081938F01AE16BF06C1F780E1F601D701A1
:101A300001900D928A95E1F781E060960FB6F894D7
:101A4000DEBF0FBECDBFDF91CF911F910F91FF90F1
:101A5000EF90DF90CF90BF90AF90089580E0EDCFF2
:101A60004F925F926F927F928F929F92AF92BF92AE
:101A7000CF92DF92EF92FF92CF93DF93CDB7DEB795
:101A800060970FB6F894DEBF0FBECDBF80E391E044
:101A90000E94370A882309F4E6C08EE596E00E948A
:101AA000E30C8090640690906506A0904005B0908D
:101AB0004105B4016A197B0990E080E00E94D01CC6
:101AC0006B017C01A818B908B50190E080E00E9484
:101AD000D01C4B015C0140916A0650916B0620912D
:101AE000680630916906429FC001439F900D529F46
:101AF000900D11246091420570914305681B790B8C
:101B000090E080E00E94D01C2B013C012091360522
:101B1000309137054091380550913905C701B6011C
:101B20000E94F41D6D837E838F83988760933605B2
:101B300070933705809338059093390520913A05C5
:101B400030913B0540913C0550913D05C501B401E4
:101B50000E94F41D69877A878B879C8760933A057A
:101B600070933B0580933C0590933D05209124059F
:101B7000309125054091260550912705C301B201FA
:101B80000E940D1D6D877E878F87988B40901C0566
:101B900050901D0560901E0570901F0580912005D6
:101BA00090912105A0912205B091230589839A8304
:101BB000AB83BC83A3019201C501B4010E940D1D3A
:101BC0002D853E854F8558890E94F41D4B015C018F
:101BD00029813A814B815C8169857A858B859C85D9
:101BE0000E940D1D9B01AC01C501B4010E94F41DB2
:101BF0000E94D21E4B01A3019201C701B6010E94AF
:101C00000D1D2D853E854F8558890E94F41D6B0161
:101C10007C0129813A814B815C816D817E818F813C
:101C200098850E940D1D9B01AC01C701B6010E9461
:101C3000F41D0E94D21ECB01B40160960FB6F89439
:101C4000DEBF0FBECDBFDF91CF91FF90EF90DF9051
:101C5000CF90BF90AF909F908F907F906F905F904C
:101C60004F900C94C00560960FB6F894DEBF0FBE7F
:101C7000CDBFDF91CF91FF90EF90DF90CF90BF90DD
:101C8000AF909F908F907F906F905F904F9008954E
:101C900041E00E949A0810928E0380938D0308956C
:101CA000CF93C82F81E08093BB03C093DD031092D4
:101CB000BC031092DE036FE08DEC94E00E94AE094D
:101CC0000E94B30781110DC061E08C2F0E94480E65
:101CD00090918D0380918E03981719F0CF910C94F9
:101CE0001D018FEF9FEFCF910895CF92DF92EF927A
:101CF000FF920F931F93CF93DF938091A50691E0FE
:101D00009093BB038093DD031092BC031092DE031B
:101D100062E28DEC94E00E94AE090E94B30766E097
:101D20008091A5060E94480E0E94B702EB018091A7
:101D30008D0390918E03891B990B2091A6063091FB
:101D4000A70686309105D4F421153105D1F30E9400
:101D5000B7026C1B7D0B8091A6069091A706861793
:101D6000970728F781E08093A806DF91CF911F9114
:101D70000F91FF90EF90DF90CF9008950E941D018A
:101D8000182F0E941D01082F0E941D01C82F0E94BC
:101D90001D01D82F0E941D01F82E0E941D0160E038
:101DA000702F612B709389066093880600E01D2FC9
:101DB0000C2B10938B0600938A06D82F80E0C82F37
:101DC000CF29D0938D06C0938C06C0909A06D090F0
:101DD0009B06E0909C06F0909D06072E000C880B59
:101DE000990B0E94D21CA70196010E940D1D20E0B4
:101DF00030E04AE754E40E94601E60938E067093C0
:101E00008F068093900690939106B801110F880B6E
:101E1000990B0E94D21CA70196010E940D1D20E083
:101E200030E04AE754E40E94601E6093920670938B
:101E300093068093940690939506BE01DD0F880B60
:101E4000990B0E94D21CA70196010E940D1D20E053
:101E500030E04AE754E40E94601E60939606709357
:101E6000970680939806909399067FCFFF920F93E1
:101E70001F93CF93DF938091A50691E09093BB03CE
:101E80008093DD031092BC031092DE0368E28DECB8
:101E900094E00E94AE090E94B30766E08091A50617
:101EA0000E94480E0E94B702EB0180918D03909131
:101EB0008E03891B990B2091A6063091A7068630C8
:101EC0009105BCF421153105D1F30E94B7026C1BBA
:101ED0007D0B8091A6069091A7068617970728F795
:101EE00081E08093A806DF91CF911F910F91FF9021
:101EF00008950E941D01082F0E941D01F82E0E94C6
:101F00001D01D82F0E941D01182F0E941D01C82FEE
:101F10000E941D0120E03F2D202B3093830620934B
:101F2000820620E0312F2D2B3093850620938406E6
:101F300020E0382F2C2B3093870620938606D3CFB2
:101F40000F931F93CF93DF930E94360F0E94750E5D
:101F50000091840610918506C0918606D09187066F
:101F6000609182067091830682E795E00E94E00905
:101F7000BC01990F880B990B0E94D21C23E23BED08
:101F800049E75DE30E940D1D0E94D21E7093E2049A
:101F90006093E104B8018EE595E00E94E009BC0180
:101FA000990F880B990B0E94D21C23E23BED49E765
:101FB0005DE30E940D1D0E94D21E7093E4046093A5
:101FC000E304BE018AE495E00E94E009BC01990F98
:101FD000880B990B0E94D21C23E23BED49E75DE39D
:101FE0000E940D1D0E94D21E7093E6046093E504CA
:101FF0002091E1043091E2048091D9049091DA04B7
:1020000028173907BCF02091E3043091E40437FF2E
:1020100003C031952195310981E04091DB04509155
:10202000DC04421753070CF080E0DF91CF911F9141
:102030000F91089581E0F9CFCF92DF92EF92FF9256
:10204000CF93DF936C01990FEE08FF08F7FE1FC0D6
:102050006DE28CE794E00E941C05EC01662777276F
:10206000CB016C197D098E099F094AE00E94910CF1
:10207000C80FD91F87E891E00E94840C8C0F9D1F28
:10208000DF91CF91FF90EF90DF90CF9008954AE0DD
:10209000C701B6010E94910CEC01ECCF4F925F9208
:1020A0006F927F928F929F92AF92BF92CF92DF9268
:1020B000EF92FF920F931F93CF93DF93C8E1D5E088
:1020C0008EA50E943C028C0188A90E943C02B801A6
:1020D000681B790B072E000C880B990B0E94D21CF1
:1020E0006B017C0188809980AA80BB80A501940146
:1020F0000E940D1D2B013C01C701B6019058A5019E
:1021000094010E940D1D6B017C018AE891E00E9400
:10211000D50C8EA50E943C020E941C1081E991E022
:102120000E94D50C88A90E943C020E941C1020E04D
:1021300030E048E452E4C701B6010E94F41D0E9459
:10214000D21E6B0120E030E048E452E4C301B2014A
:102150000E94F41D0E94D21ECB01B601DF91CF91E7
:102160001F910F91FF90EF90DF90CF90BF90AF90B5
:102170009F908F907F906F905F904F900C94C005D0
:10218000CF93DF93BC0190E080E04AE00E94910C85
:10219000EC0187E891E00E94840C8C0F9D1FDF9179
:1021A000CF9108958BE891E00197F1F741E061E06C
:1021B0008DE30E949A0810928E0380938D038130E4
:1021C00019F40E941D01089580E008950E94081FDF
:1021D00085ED8093BC008091B7039091B803A091E6
:1021E000B903B091BA030796A11DB11D23E0B695BE
:1021F000A795979587952A95D1F72091BC0024FD46
:1022000003C01092B50308954091B7035091B803ED
:102210006091B9037091BA03452B462B472B69F3A4
:102220000097A105B10541F025E32A95F1F70000DB
:102230000197A109B109E1CF8091B6030C949207EF
:10224000CF93DF93A2EEB0E09C911C92E9EEF0E018
:1022500020811082C0EFD0E03881188240E05D9983
:1022600041605599426055985D9A80E18A95F1F7F1
:1022700089B141FB0EF0559840FB0EF05D980EF4CD
:102280005D9A41FB0EF4559A1082388320839C930B
:1022900090E025E0959587952A95E1F780959095B2
:1022A0008170DF91CF9108951F920F920FB60F9218
:1022B00011242F933F938F939F93AF93BF9380915C
:1022C0004F0390915003A0915103B091520330916C
:1022D0004E0323E0230F2D3758F50196A11DB11DA4
:1022E00020934E0380934F0390935003A093510388
:1022F000B09352038091530390915403A0915503DE
:10230000B09156030196A11DB11D80935303909384
:102310005403A0935503B0935603BF91AF919F917F
:102320008F913F912F910F900FBE0F901F90189596
:1023300026E8230F0296A11DB11DD2CF1F920F9246
:102340000FB60F9211242F933F934F935F936F9388
:102350007F938F939F93AF93BF93EF93FF93E091FE
:102360001401F09115010995FF91EF91BF91AF9183
:102370009F918F917F916F915F914F913F912F919D
:102380000F900FBE0F901F9018951F920F920FB6CF
:102390000F9211242F933F934F935F936F937F93EB
:1023A0008F939F93AF93BF93EF93FF93E0911201AD
:1023B000F09113010995FF91EF91BF91AF919F911A
:1023C0008F917F916F915F914F913F912F910F90DE
:1023D0000FBE0F901F9018951F920F920FB60F927D
:1023E00011242F933F934F935F936F937F938F931A
:1023F0009F93AF93BF93EF93FF93E0911001F09100
:1024000011010995FF91EF91BF91AF919F918F912C
:102410007F916F915F914F913F912F910F900FBEE0
:102420000F901F9018951F920F920FB60F921124C4
:102430002F933F934F935F936F937F938F939F93CC
:10244000AF93BF93EF93FF93E0910E01F0910F01D3
:102450000995FF91EF91BF91AF919F918F917F91DE
:102460006F915F914F913F912F910F900FBE0F9001
:102470001F9018951F920F920FB60F9211242F9351
:102480003F934F935F936F937F938F939F93AF93FC
:10249000BF93EF93FF93E0910C01F0910D0109952B
:1024A000FF91EF91BF91AF919F918F917F916F912C
:1024B0005F914F913F912F910F900FBE0F901F9002
:1024C00018951F920F920FB60F9211248F939F931E
:1024D0008091E1009091E100937F9093E10083FF70
:1024E0000FC01092E90091E09093EB001092EC0085
:1024F00092E39093ED001092640398E09093F000C3
:1025000082FF22C093E09093E9009091F20099231A
:1025100019F09AE39093E80090914703992341F0D2
:1025200090914703915090934703911101C05D9A98
:1025300090916303992341F090916303915090939C
:102540006303911101C0289A84FF18C08091E200B2
:102550008E7E81608093E2008091E1008F7E809387
:10256000E100809148038E7E8061809348039F91B3
:102570008F910F900FBE0F901F90189580FFF7CF8F
:102580008091E2008E7E80618093E2008091E10084
:102590008E7E8093E100809148038E7E8160E5CF3E
:1025A0001F920F920FB60F921124CF92DF92EF92EB
:1025B000FF920F931F932F933F934F935F936F93CC
:1025C0007F938F939F93AF93BF93EF93FF93CF939B
:1025D000DF93CDB7DEB76C97DEBFCDBF1092E900B9
:1025E0008091E80083FF25C068E0CE0145960E94F7
:1025F0007F0382EF8093E8008D8987FF39C0909137
:10260000E80090FFFCCF982F907609F034C19E89A6
:102610004F89588D2F89F88C911131C0803861F520
:10262000809149038093F1001092F1008EEF809326
:10263000E8006C960FB6F894DEBF0FBECDBFDF91F9
:10264000CF91FF91EF91BF91AF919F918F917F912A
:102650006F915F914F913F912F911F910F91FF903B
:10266000EF90DF90CF900F900FBE0F901F901895B6
:102670009EEF9093E800C7CF1092F100D5CF913034
:1026800059F48111D3CF4130510581F6809149032E
:102690008D7F80934903CACF933049F48111C6CF0F
:1026A0004130510519F6809149038260F2CF95308F
:1026B00041F48091E80080FFFCCF20682093E30084
:1026C000B5CF963009F0A9C00B8D1C8D22E0109279
:1026D000E9001092450310924403F2122EC01092AA
:1026E0004303109242030E944E031F8299E0998394
:1026F000FA8291E09E8390EA98879AEF99872091D9
:10270000440330914503275F3F4F3C832B838D83E8
:102710001092E90010924503109244031093430372
:102720000093420349E050E0BE016F5F7F4F80E0BD
:102730000E9428030E944E0379CF10934303009315
:1027400042030E947201DC0112960D911C91011549
:10275000110509F451C1D801ED91FC910480F58176
:10276000E02DBE016B5E7F4FC8010995009709F00F
:102770003EC1F80100851185EACFF3E0FF120EC0DB
:102780008F89882309F440C0823061F440E862E117
:1027900085E291E00E94F502811148CF81E28093A9
:1027A000EB0047CF813029F440E862E182E191E01B
:1027B000F1CF833099F70E947201DC011296ED90FF
:1027C000FC908E010F5F1F4F6801E114F10479F056
:1027D000D701ED91FC910680F781E02DB801C7018A
:1027E0000995080F111DF701E084F184EECFD8019F
:1027F0001C92F60101900020E9F73197BF016C1996
:102800007D0940E0C601C6CF6CEF70E0FB0144914A
:1028100050E080E80E94280309CF973009F4BECF2A
:10282000983021F481E08093F10000CF993009F0D5
:10283000FDCE837009F0B2CFEFE3F1E081E031E04B
:1028400096E32191222371F08093E9003093EB000D
:10285000DF0111972C912093EC009093ED008F5F96
:10286000873079F78EE78093EA001092EA008F892B
:1028700080936403DBCE8B8D9C8D1092E9001092C7
:102880004503109244039093430380934203898D40
:10289000811192C08E899D89913A49F4813209F063
:1028A0007DCF47E050E064E071E080E0B3CF91324B
:1028B00009F074CF833269F48F89988DB0E0A0E07D
:1028C0008093000190930101A0930201B093030152
:1028D000ADCE803269F48091E80082FFFCCF67E0E2
:1028E00084E091E00E947F038BEF8093E8009ECE0E
:1028F000823209F09BCE8F8980930B01EEEFFFE7C8
:10290000859194918B3F9C4D51F1E0E0F8E08091EE
:10291000040190910501A0910601B0910701803B4F
:102920009440A105B105F1F480910B0180FD1AC01E
:10293000EE3F8AE0F80789F587E797E79183808380
:10294000809160008093460388E19BE00FB6F89485
:10295000A895809360000FBE9093600067CEEEEF65
:10296000FAE0D5CF808191818737974709F05ECE15
:10297000A8958091600088618093600080914603F3
:1029800080936000EE3F2AE0F20789F08091FE0A12
:102990009091FF0A9183808349CE8081918187370E
:1029A000980751F29093FF0A8093FE0AC5CF1092C8
:1029B000FF0A1092FE0A3ACE0E947201DC011296C2
:1029C0000D911C910115110509F4E8CED801ED9186
:1029D000FC910190F081E02DBE016B5E7F4FC8013C
:1029E0000995811123CEF80100851185EBCF1816CA
:1029F00019060CF41BCED2CEF1E0FF12BECE60E081
:102A000071E004CF1F920F920FB60F9211242F93F3
:102A10003F934F935F936F937F938F939F93AF9366
:102A2000BF93EF93FF938FED93E00E940A04FF9111
:102A3000EF91BF91AF919F918F917F916F915F9136
:102A40004F913F912F910F900FBE0F901F901895AF
:102A50001F920F920FB60F9211242F938F939F9373
:102A6000EF93FF93E091EF03F091F0038081E09109
:102A7000F503F091F60382FD1BC090818091F8036D
:102A80008F5F8F732091F903821741F0E091F80373
:102A9000F0E0E152FC4F958F8093F803FF91EF91A6
:102AA0009F918F912F910F900FBE0F901F901895AF
:102AB0008081F4CF1F920F920FB60F9211242F93A3
:102AC0003F934F935F936F937F938F939F93AF93B6
:102AD000BF93EF93FF93CF93DF9300D01F92CDB7B7
:102AE000DEB783B1898389819091CC0489278A8359
:102AF00080916B009A8189238B838B8180FF05C035
:102B0000E0913203F091330309958B8181FF05C079
:102B1000E0913403F091350309958B8182FF05C064
:102B2000E0913603F091370309958B8183FF05C04F
:102B3000E0913803F091390309958B8184FF05C03A
:102B4000E0913A03F0913B0309958B8185FF05C025
:102B5000E0913C03F0913D0309958B8186FF05C010
:102B6000E0913E03F0913F0309958B8187FF05C0FB
:102B7000E0914003F0914103099589818093CC0451
:102B80000F900F900F90DF91CF91FF91EF91BF9138
:102B9000AF919F918F917F916F915F914F913F91F5
:102BA0002F910F900FBE0F901F9018951F920F92AC
:102BB0000FB60F9211242F933F934F935F936F9310
:102BC0007F938F939F93AF93BF93EF93FF938091E6
:102BD000B900887F803609F44AC0F0F5883209F4DC
:102BE000A7C018F5803109F49BC0B8F4882309F414
:102BF000F9C0883009F494C0FF91EF91BF91AF9173
:102C00009F918F917F916F915F914F913F912F9104
:102C10000F900FBE0F901F901895883109F488C04F
:102C2000803251F78093B30314C0803409F49DC0FF
:102C300040F48033B9F38833F9F68093B30385EC1D
:102C4000B0C0803509F485C0883509F496C0883451
:102C500099F60E94E810D0CF883909F48CC038F575
:102C6000883729F050F4883611F0803729F683E050
:102C70008093B5031092260357C0883809F47BC0AF
:102C8000803919F0803809F0B7CF8091260380325F
:102C900008F071C0E091260381E08E0F8093260337
:102CA0008091BB00F0E0EA5FFC4F80833DC0803B39
:102CB00039F0E0F4803A09F479C0883A09F09CCF01
:102CC00084E08093B5031092050310920403E09111
:102CD0004C03F0914D0309958091040381110FC0BD
:102CE00081E0809304031092E40209C0803C09F45F
:102CF000A6CF883C09F4A3CF883B09F07DCFE091B3
:102D0000050381E08E0F80930503F0E0EC51FD4F49
:102D100080818093BB00909105038091040329C0BA
:102D2000809190038093BB0085EC8093BC0064CFBE
:102D30009091B2038091B103981758F5E091B203D6
:102D400081E08E0F8093B203F0E0EF56FC4F80815C
:102D5000E9CFE091B20381E08E0F8093B2038091BE
:102D6000BB00F0E0EF56FC4F80839091B20380915E
:102D7000B1039817C8F285E8D8CFE091B20381E09B
:102D80008E0F8093B2038091BB00F0E0EF56FC4FB2
:102D900080838091B40381115CCF81E080938F03A5
:102DA00084EA8093BC001092B50326CF85EC809313
:102DB000BC001092B50380912603803230F4E0917C
:102DC0002603F0E0EA5FFC4F10826091260370E07A
:102DD000E0914A03F0914B0386E093E0099510924D
:102DE00026030ACF1092B30334CF1F93CF93DF9300
:102DF000162FC2E8D6E09BA121E02093BB0390935D
:102E0000DD031092BC031092DE03682F8DEC94E07A
:102E10000E94AE09612F8DEC94E00E94AE090E94E1
:102E2000B30788A3DF91CF911F910895CF93DF93CC
:102E3000C2E8D6E09BA121E02093BB039093DD0381
:102E40001092BC031092DE03682F8DEC94E00E9478
:102E5000AE090E94B30788A361E08BA10E94480ECF
:102E60000E941D01C82F0E94B3078C2FDF91CF91C4
:102E700008952AE0FC0111922A95E9F708950F932D
:102E80001F93CF93DF93EFEDF3E01382128288EE6E
:102E900093E0A0E0B0E084839583A683B78329E420
:102EA00031E0318320832DEC30E0358724872CEC12
:102EB00030E03787268728EC30E0318B208B29ECF7
:102EC00030E0338B228B2AEC30E0358B248B2EECD8
:102ED00030E0378B268B118E128E138E148EECE71A
:102EE000F4E01382128284839583A683B7832BE553
:102EF00031E0318320832FEF3FEF3587248723B1E3
:102F00002093CC04EDECF4E0138212828483958349
:102F1000A683B7838DE691E091838083E9EDF4E0A9
:102F200082E99FEF9183808387E390E0938382839C
:102F30008CED95E09583848386E990E09783868382
:102F400086E0A1EEB4E0ED01982F19929A95E9F789
:102F500017861686C1E0D0E0D18BC08B138A128A07
:102F6000158A148A20E331E1378B268B4DEC5CEC1B
:102F70006CEA7FE3428F538F648F758F468F578F34
:102F800060A371A349E25CE56FE07DE342A353A334
:102F900064A375A322E330E037A726A70AEF10E069
:102FA00011AB00AB12AA14AA13AAD6ABC5AB22E090
:102FB00030E030AF27AB23E030E032AF21AF24E088
:102FC00030E034AF23AF25E030E036AF25AFEBEB98
:102FD000F5E0DF011D928A95E9F71092B005109295
:102FE000AF051092AA05EEE8F5E012821582108670
:102FF0008EE0818781E08287838785E891E09183F5
:103000008083E6E8F5E0128215828FE791E09183F4
:10301000808382E795E00E9439178EE595E00E9453
:1030200039178AE495E00E943917E8E1F5E08DEC64
:103030009CECACECBDE380839183A283B38340E03E
:1030400050E060E07FE34483558366837783808725
:103050009187A287B38783E393E3ABE2B1E48487EC
:103060009587A687B7878AE097EDA3E2BCE3848BB8
:10307000958BA68BB78B88E790E0958F848F80E542
:1030800090E091A780A781E494E093A782A715A779
:1030900004A784E190E097A786A786E190E091AB32
:1030A00080AB89E396E00E9439170E94B702109224
:1030B00063061092620610925D068EE696E00E940C
:1030C0003917E2E8F6E0108E118E128E138E148EF0
:1030D000158E168E178ED2A3C1A315A214A216A206
:1030E000DF91CF911F910F910895789484B58260FC
:1030F00084BD84B5816084BD85B5826085BD85B59C
:10310000816085BD80916E00816080936E00109219
:103110008100809181008260809381008091810094
:103120008160809381008091800081608093800025
:1031300080919100826080939100809191008160E4
:1031400080939100809190008160809390008091A5
:10315000C10084608093C1008091C100826080932F
:10316000C1008091C10081608093C1008091C30043
:1031700081608093C3008091C00082608093C00012
:103180008091C20081608093C20080917A00846047
:1031900080937A0080917A00826080937A00809197
:1031A0007A00816080937A0080917A0080688093B1
:1031B0007A001092640310924903109248038091A0
:1031C000D70081608093D70080EA8093D80089B5CA
:1031D000806189BD89B5826089BD09B400FEFDCFDB
:1031E00061E070E080E090E00E9485028091D8006C
:1031F0008F7C80618093D8008091E000807F8093F5
:10320000E0008091E1008E7E8093E1008DE080936C
:10321000E200559A209A10928E0310928D0310921C
:10322000BC031092DE030E94740783EC92E090933B
:103230004D0380934C0384EC92E090934B03809376
:103240004A038BE60E94500E8936910509F0AEC004
:103250001092A4061092A3068BE68093A50680E147
:103260000E94161760E080E10E94F51623E2C22E4C
:103270002BEDD22E29E7E22E2DE3F22EC0929E06F0
:10328000D0929F06E092A006F092A1068091A3063C
:103290009091A406892B39F580E10E94161760E011
:1032A00080E10E94F516C0929E06D0929F06E092A1
:1032B000A006F092A10681E10E941617682F607F98
:1032C00081E10E94F51680E090E0ACE0B1E48093EB
:1032D0009A0690939B06A0939C06B0939D0664E08B
:1032E00082E10E94F51660E0809120010E940002B8
:1032F00061E080911C010E94000260E080911E014B
:103300000E94000260E080911A010E94000261E0C8
:10331000809116010E94000260E0809118010E94D5
:1033200000028091E9049091EA048230910509F449
:103330005BC008F052C0009709F45BC08130910572
:1033400009F452C000E010E083E0E82EF12CC2E066
:10335000D0E0BB24B39494E0C92ED12C0E94360F48
:103360000E94750E8BEA95E00E94E30C0E94D21039
:1033700090E09093F2048093F1048091E70490919F
:10338000E8048230910509F4CAC1C0F5009709F438
:10339000B0C0019709F4C3C001151105F9F20E94EC
:1033A000F6038823D9F20E940000D8CF8AE60E9453
:1033B000500E8936910531F41092A4061092A3069E
:1033C0008AE64BCF89E991E00E94D50C64E670E073
:1033D00080E090E00E948502F5CF8330910521F0D6
:1033E0008430910509F0AECF9093E8048093E70410
:1033F000A9CF1092E8041092E704A4CF833091057E
:1034000009F443C2049741F68091E9049091EA04DB
:10341000049709F0B5C28EE895E00E940907882359
:1034200031F01092E8041092E7040E940B0680919C
:10343000F1049091F204892B09F4AECF8FE392E06E
:103440000E94D50C8BEA95E00E94E30C882321F0C2
:1034500084EB91E00E94D50C8091AF059091B0056E
:1034600020911605309117058217930741F020919E
:103470001405309115058217930709F08DCF89E562
:1034800092E00E94D50C8091B5059091B6050E94FE
:10349000C0108091B7059091B8050E94C01082E2DB
:1034A00091E00E94370A882309F476CF60E085E135
:1034B0000E94D20168EC70E080E090E00E948502FA
:1034C00061E085E10E94D20168EC70E080E090E06C
:1034D0000E94850260E085E10E94D20168EC70E004
:1034E00080E090E00E94850285ED92E00E94D50C7C
:1034F000DDCF8EE895E00E940907882359F080917E
:10350000E9049091EA049093E8048093E7040E9410
:103510000B0642CF1092E8041092E704F8CF809196
:10352000EB049091EC048230910581F150F4009706
:1035300099F0019709F47EC0D093EC04C093EB049A
:103540002BCF8330910509F4BEC00497A9F761E041
:1035500070E08EE190E0E0C08EE895E00E940907FF
:10356000882349F08091ED049091EE049093EC044F
:103570008093EB0411CF86E895E00E940907811142
:10358000DBCF1092EC041092EB04C1CF8EE895E0F3
:103590000E940907882361F08091EB049091EC046C
:1035A0009093EE048093ED041092EC041092EB04DF
:1035B0000E944E100E94D210882391F08091AF0596
:1035C0009091B00520910C0530910D05821793075D
:1035D00011F1209110053091110582179307D9F050
:1035E00085E00E943C022091090530910A0582176E
:1035F00093070CF4D1CE8CE00E943C022091090587
:1036000030910A05821793070CF4C6CEF092EC04B1
:10361000E092EB04C1CE81E090E09093EC048093C3
:10362000EB0484EB91E00E94D50C83EC91E00E94C6
:10363000D50CB2CE0E94300D82E291E00E94370A92
:10364000811112C08091AF059091B00520910C05B9
:1036500030910D058217930769F120911005309183
:1036600011058217930731F182E291E00E94370A37
:10367000811192CE8091AF059091B00520910E05F9
:1036800030910F058217930741F020911205309178
:1036900013058217930709F07FCE8DE192E00E9417
:1036A000D50C68EC70E080E090E00E94850285E334
:1036B00092E0BDCF8BEE91E00E94840CD092EC049E
:1036C000C092EB0469CE0E94B7022B010E94B702A0
:1036D0002091070530910805240D351D2901712C15
:1036E000612C461657066806790658F020E030E04F
:1036F00040E252E4CA01B9010E94A40AB0920B054B
:103700001BCF80910B05882309F416CF10920B056F
:1037100070E060E08AE590E00E94D70B0DCF8091C9
:10372000E9049091EA04029709F036CE8EE895E01C
:103730000E940907882331F01092E8041092E704F0
:103740000E940B068091F1049091F204892B09F4F8
:103750006EC08FE392E00E94D50C8091F1049091AD
:10376000F204892B09F418CE84EB91E00E94D50C69
:103770008091AF059091B00520910C0530910D0519
:103780008217930739F020911005309111058217A7
:103790009307D1F489E592E00E94D50C8091B5059C
:1037A0009091B6050E94C0108091B7059091B80520
:1037B0000E94C01082E291E00E94370A882309F437
:1037C000EBCD0E94300DE8CD20911205309113050C
:1037D0008217930709F0E0CD8BE792E00E94D50CA9
:1037E0008091B5059091B6050E94C0108091B705F3
:1037F0009091B8050E94C01082E291E00E94370AC1
:103800008111DFCF82E291E00E94370A8111C4CD9D
:103810006EEC7FEF82E390E00E94C0056BE470E005
:103820008BE490E00E94C00588EA92E000CF20E09F
:1038300030E046E153E4CA01B9010E94A40A0E94A3
:10384000A00F882341F00E94560C61E070E08EE1E9
:1038500090E00E94D70B0E94300D4091B505509129
:10386000B6058091B7059091B805489F9001499F92
:10387000300D589F300D11248091EF049091F00489
:103880002817390709F088CD42CE8091E90490913C
:10389000EA04039709F06CC08EE895E00E940907DE
:1038A000882331F01092E8041092E7040E940B067E
:1038B0008091F1049091F204892B09F459C08FE3AF
:1038C00092E00E94D50C8091F1049091F204892B32
:1038D00021F084EB91E00E94D50C8091AF0590918E
:1038E000B00520911605309117058217930739F01E
:1038F000209114053091150582179307C9F584EBC3
:1039000092E00E94D50C8091B5059091B6050E9479
:10391000C0108091B7059091B8050E94C01082E256
:1039200091E00E94370A882319F160E085E10E9446
:10393000D20168EC70E080E090E00E94850261E0D6
:1039400085E10E94D20168EC70E080E090E00E9486
:10395000850260E085E10E94D20168EC70E080E0C1
:1039600090E00E94850285ED92E00E94D50CDDCFAB
:103970000E94A00F882309F40FCD0E94560C0CCD95
:103980000E944E100E94A00F882309F405CD0E94CA
:10399000560C61E070E08EE190E00E94D70BFCCC09
:1039A000E89409C097FB3EF49095809570956195D9
:1039B0007F4F8F4F9F4F9923A9F0F92F96E9BB278F
:1039C0009395F695879577956795B795F111F8CF0B
:1039D000FAF4BB0F11F460FF1BC06F5F7F4F8F4F76
:1039E0009F4F16C0882311F096E911C0772321F06C
:1039F0009EE8872F762F05C0662371F096E8862F04
:103A000070E060E02AF09A95660F771F881FDAF75A
:103A1000880F9695879597F908950E94201D0C941C
:103A2000911D0E94831D38F00E948A1D20F095236D
:103A300011F00C947A1D0C94801D11240C94C51D5A
:103A40000E94A21D70F3959FC1F3950F50E0551F82
:103A5000629FF001729FBB27F00DB11D639FAA27E3
:103A6000F00DB11DAA1F649F6627B00DA11D661F32
:103A7000829F2227B00DA11D621F739FB00DA11D53
:103A8000621F839FA00D611D221F749F3327A00D0D
:103A9000611D231F849F600D211D822F762F6A2FA9
:103AA00011249F5750409AF0F1F088234AF0EE0F0E
:103AB000FF1FBB1F661F771F881F91505040A9F73B
:103AC0009E3F510580F00C947A1D0C94C51D5F3FFC
:103AD000E4F3983ED4F3869577956795B795F79577
:103AE000E7959F5FC1F7FE2B880F911D96958795EF
:103AF00097F9089597F99F6780E870E060E008956E
:103B00009FEF80EC089500240A94161617061806F5
:103B10000906089500240A941216130614060506D1
:103B20000895092E0394000C11F4882352F0BB0F62
:103B300040F4BF2B11F460FF04C06F5F7F4F8F4FC5
:103B40009F4F089557FD9058440F551F59F05F3F00
:103B500071F04795880F97FB991F61F09F3F79F0AF
:103B600087950895121613061406551FF2CF469531
:103B7000F1DF08C0161617061806991FF1CF8695B3
:103B80007105610508940895E894BB276627772797
:103B9000CB0197F90895A1E21A2EAA1BBB1BFD01C8
:103BA0000DC0AA1FBB1FEE1FFF1FA217B307E4071C
:103BB000F50720F0A21BB30BE40BF50B661F771F74
:103BC000881F991F1A9469F7609570958095909554
:103BD0009B01AC01BD01CF010895EE0FFF1F0590C1
:103BE000F491E02D09945058BB27AA270E940B1E80
:103BF0000C94911D0E94831D38F00E948A1D20F0B4
:103C000039F49F3F19F426F40C94801D0EF4E095CE
:103C1000E7FB0C947A1DE92F0E94A21D58F3BA17F6
:103C2000620773078407950720F079F4A6F50C94D2
:103C3000C41D0EF4E0950B2EBA2FA02D0B01B90177
:103C400090010C01CA01A0011124FF27591B99F012
:103C5000593F50F4503E68F11A16F040A22F232F1E
:103C6000342F4427585FF3CF469537952795A7956E
:103C7000F0405395C9F77EF41F16BA0B620B730B15
:103C8000840BBAF09150A1F0FF0FBB1F661F771F86
:103C9000881FC2F70EC0BA0F621F731F841F48F43B
:103CA000879577956795B795F7959E3F08F0B0CFC4
:103CB0009395880F08F09927EE0F979587950895AB
:103CC0000E94741E0C94911D0E948A1D58F00E943F
:103CD000831D40F029F45F3F29F00C947A1D5111A7
:103CE0000C94C51D0C94801D0E94A21D68F399239D
:103CF000B1F3552391F3951B550BBB27AA276217E8
:103D00007307840738F09F5F5F4F220F331F441FF4
:103D1000AA1FA9F335D00E2E3AF0E0E832D0915028
:103D20005040E695001CCAF72BD0FE2F29D0660F15
:103D3000771F881FBB1F261737074807AB07B0E858
:103D400009F0BB0B802DBF01FF2793585F4F3AF05E
:103D50009E3F510578F00C947A1D0C94C51D5F3F71
:103D6000E4F3983ED4F3869577956795B795F795E4
:103D70009F5FC9F7880F911D9695879597F90895CC
:103D8000E1E0660F771F881FBB1F62177307840768
:103D9000BA0720F0621B730B840BBA0BEE1F88F777
:103DA000E09508950E94D91E6894B1110C94C51D28
:103DB00008950E94AA1D88F09F5798F0B92F99275F
:103DC000B751B0F0E1F0660F771F881F991F1AF006
:103DD000BA95C9F714C0B13091F00E94C41DB1E08A
:103DE00008950C94C41D672F782F8827B85F39F089
:103DF000B93FCCF3869577956795B395D9F73EF49F
:103E000090958095709561957F4F8F4F9F4F089546
:0E3E100081E090E0F8940C940D1FF894FFCF21
:103E1E00FFFFFFFF00E1000000000000C602C60227
:103E2E00C602C602C6020000010012000000010018
:103E3E0012000000B44400000C4258E95B4332000B
:103E4E000000B44400000C4258E95B43320000C14C
:103E5E008081000000000000002B048C03B9037762
:103E6E0004EA03C803DC03000000001C0597043DB0
:103E7E00053205830541055F0500000000AE09818E
:103E8E0009DD09C50230010A017209000000002097
:103E9E001100000000C8060D0A004C6566743A2039
:103EAE000052696768743A20004661696C65642047
:103EBE00746F2064657465637420746865204C5358
:103ECE004D362E004920736565206120736B726537
:103EDE0077740049206D75737420626520636F6D71
:103EEE00696E67207570206F6E2074686520636838
:103EFE00616C6C656E6765203A29005468652063B5
:103F0E0068616C6C656E676520697320636F6D7098
:103F1E006C6574652E2054686520736B72657774BA
:103F2E002069732064656665617465640049207359
:103F3E006565207468652063757020636F6D696EAA
:103F4E00672075700057686F6F6F686F6F6F0049ED
:103F5E00207365652061207461736B206973206323
:103F6E006F6D696E6720757000204920616D20634A
:103F7E006F6D6D696E67207570206F6E2074686549
:103F8E00206368616C6C656E6765004920736565BA
:103F9E00207468652063757020636F6D696E67208D
:103FAE007570207961792E2E2E20776169742061CB
:103FBE00206D696E75746500414848484848484808
:103FCE0048484800204920616D20636F6D696E6717
:103FDE00207570206F6E20746865206368616C6C4C
:0E3FEE00656E676500427965204279650000C6
:00000001FF
