:100000000C94E0000C94E3110C94BC110C94951129
:100010000C946E110C9408010C9408010C94471177
:100020000C9408010C9403150C940A120C94791288
:100030000C9408010C9408010C9408010C9408011C
:100040000C9408010C9408010C9408010C9408010C
:100050000C9408010C9408010C9408010C94FD10F8
:100060000C9408010C94D1140C94AB140C9408015A
:100070000C9408010C9408010C9408010C940801DC
:100080000C9408010C9408010C9408010C940801CC
:100090000C947F150C9408010C9408010C94080131
:1000A0000C9408010C9408010C9408010000000055
:1000B0002300260029002C002F00080B000202025A
:1000C00000000904000001020200000524001001E4
:1000D0000524010101042402060524060001070588
:1000E000810310004009040100020A000000070516
:1000F00002024000000705830240000004030904D7
:1001000012010002EF020140FB1F00230001010267
:100110000301506F6C6F6C7520436F72706F72616A
:1001200074696F6E00506F6C6F6C7520412D537445
:100130006172203332553400070605040100080AB5
:100140000B0C0D0900000000240027002A002D00E0
:10015000300000000000250028002B002E00310098
:10016000040404040403040502020202040302025C
:10017000020206060606060604040202020404043D
:100180000802011040804010204080408008020496
:10019000018040201002011080102040402000000B
:1001A000000200090F0000030401000C0000000021
:1001B0000000000000000000000000000000E81641
:1001C00011241FBECFEFDAE0DEBFCDBF26E0A8EDE1
:1001D000B2E001C01D92AB39B207E1F712E0A0E036
:1001E000B1E0E0E4FDE302C005900D92A83DB10747
:1001F000D9F710E0C0EED0E004C02197FE010E94C4
:10020000831DCF3DD107C9F70E9416180C949E1E7E
:100210000C94000090918803809187032FEF3FEFAB
:10022000981748F4E92FF0E0E959FC4F208130E0BD
:100230009F5F90938803C9010895909188038091EE
:1002400087032FEF3FEF981748F4E92FF0E0E959C3
:10025000FC4F208130E09F5F90938803C90108958F
:100260008091870390918803891B990B0895FC0165
:1002700080915E03882311F13FB7F89482E0809368
:10028000E9002091F200822F90E01816190614F46C
:1002900081E090E0882339F0289844E640935D039C
:1002A0004091F1004083222339F02091F200211186
:1002B00003C02BE62093E8003FBF08958FEF9FEF28
:1002C00008952FB7F89483E08093E9009091E800B7
:1002D000892F807295FF04C09091F20080E4891B01
:1002E0002FBF08958091550381110DC082E0809346
:1002F000510384E0809352031092540310925303ED
:1003000081E08093550381E593E0089581508F301B
:1003100008F047C0E82FF0E0E057FE4F0C94831D33
:10032000AD01B1019F01A501A901D101D101D10107
:10033000B401BA01BE01C201C801D101CC01809152
:1003400080008F77809380000895809180008F7D5A
:10035000F9CF80918000877FF5CF84B58F7784BDFA
:10036000089584B58F7DFBCF809190008F77809327
:1003700090000895809190008F7DF9CF809190003A
:10038000877FF5CF8091C0008F778093C00008955C
:100390008091C0008F7DF9CF8091C200877F8093CC
:1003A000C20008951F93CF93DF93282F30E0F90107
:1003B000E256FE4F8491F901E158FE4FD491F901C4
:1003C000E05AFE4FC491CC23A9F0162F81110E9450
:1003D0008601EC2FF0E0EE0FFF1FEE5AFE4FA591C5
:1003E000B4918FB7F894EC91111108C0D095DE2329
:1003F000DC938FBFDF91CF911F910895DE2BF8CF53
:10040000CF93DF9390E0FC01E158FE4F2491805A96
:100410009E4FFC0184918823C9F090E0880F991FBA
:10042000FC01EC5BFE4FA591B491FC01EE5AFE4F2E
:10043000C591D49161110DC09FB7F8948C9120950E
:1004400082238C938881282328839FBFDF91CF91BB
:100450000895623051F49FB7F8943C91822F8095B3
:1004600083238C93E8812E2BEFCF8FB7F894EC91F8
:100470002E2B2C938FBFEACF823108F08251E82FC8
:10048000F0E0E85CFE4FE49190917B008E2F880FA6
:10049000880F80729F7D892B80937B00E770E064DA
:1004A000E0937C0080917A00806480937A00809150
:1004B0007A0086FDFCCF80917800909179000895B4
:1004C0003FB7F89480914D0390914E03A0914F0354
:1004D000B091500326B5A89B05C02F3F19F0019697
:1004E000A11DB11D3FBFBA2FA92F982F8827BC018E
:1004F000CD01620F711D811D911D42E0660F771FB6
:10050000881F991F4A95D1F708958F929F92AF92B5
:10051000BF92CF92DF92EF92FF924B015C010E945B
:1005200060026B017C010E9460026C197D098E09DA
:100530009F09683E734081059105A8F321E0821A66
:100540009108A108B10888EEC80E83E0D81EE11C0E
:10055000F11C81149104A104B10429F7FF90EF90DC
:10056000DF90CF90BF90AF909F908F9008952FB75E
:10057000F8946091490370914A0380914B039091E4
:100580004C032FBF0895089508950895089540914C
:100590003E0350913F0320913C0330913D034217AD
:1005A0005307B4F49091E8009570E1F39091E8005E
:1005B00092FD19C08093F10080913E0390913F031A
:1005C00001968F739927892B19F48EEF8093E80099
:1005D00080913E0390913F03019690933F03809357
:1005E0003E0381E0089580E00895EF92FF920F931B
:1005F0001F93CF93DF93F82E192FE62E042F81E05F
:10060000860F880F0E94C70283E00E94C702CF2D89
:10061000D12FEC0EFD2EF11CCE15DF05B9F007FF32
:1006200013C0FE0184910E94C702182F80E00E942F
:10063000C702812321968111EFCFDF91CF911F91C6
:100640000F91FF90EF9008958881EDCF81E0F5CF75
:10065000DF92EF92FF920F931F93CF93DF93D82EE9
:100660008A01EB017B01E40EF51ECE15DF0559F082
:10067000D7FE12C0FE0184910E94C702219681110B
:10068000F4CF0FEF1FEFC801DF91CF911F910F91B2
:10069000FF90EF90DF9008958881EECF0F931F9326
:1006A000CF93DF931F92CDB7DEB782E0898342E418
:1006B00050E06AEB70E080E80E9428030E9472011B
:1006C000DC0112960D911C910115110589F0D801DC
:1006D000ED91FC910280F381E02DBE016F5F7F4FB1
:1006E000C801099597FD04C0F80100851185ECCF7C
:1006F00089810F90DF91CF911F910F9108956150E3
:1007000030F02091F100FC0120830196F8CF289869
:1007100084E680935D030895AF92BF92CF92DF92FB
:10072000EF92FF920F931F93CF93DF936C017B01A6
:100730008B01040F151FEB015E01AE18BF08C01737
:10074000D10759F06991D601ED91FC910190F081AA
:10075000E02DC6010995892B79F7C501DF91CF916D
:100760001F910F91FF90EF90DF90CF90BF90AF90CF
:100770000895FC01538D448D252F30E0842F90E0A7
:10078000821B930B541710F0CF960895019708958C
:10079000FC01918D828D981761F0A28DAE0FBF2F55
:1007A000B11D5D968C91928D9F5F9F73928F90E0AB
:1007B00008958FEF9FEF0895FC01918D828D98171A
:1007C00031F0828DE80FF11D858D90E008958FEF57
:1007D0009FEF0895FC01918D228D892F90E0805C20
:1007E0009F4F821B91098F739927089589ED93E09C
:1007F0000E94EA0321E0892B09F420E0822F08956A
:1008000080E090E0892B29F00E94F60381110C947E
:1008100000000895FC01A48DA80FB92FB11DA35AA3
:10082000BF4F2C91848D90E001968F739927848F10
:10083000A689B7892C93A089B1898C9182748C93F5
:10084000938D848D981306C00288F389E02D8081F2
:100850008F7D80830895EF92FF920F931F93CF9324
:10086000DF93EC0181E0888F9B8D8C8D981319C0EC
:10087000E889F989808185FF14C09FB7F894EE89D3
:10088000FF896083E889F9898081827480839FBFB2
:1008900081E090E0DF91CF911F910F91FF90EF9059
:1008A0000895F62E0B8D10E00F5F1F4F0F73112769
:1008B000E02E8C8D8E110CC00FB607FCFACFE889A4
:1008C000F989808185FFF5CFCE010E940A04F1CF1E
:1008D000EB8DEC0FFD2FF11DE35AFF4FF0829FB718
:1008E000F8940B8FEA89FB8980818062CFCFCF9308
:1008F000DF93EC01888D8823B9F0AA89BB89E88948
:10090000F9898C9185FD03C0808186FD0DC00FB6ED
:1009100007FCF7CF8C9185FFF2CF808185FFEDCF6B
:10092000CE010E940A04E9CFDF91CF9108958F9202
:100930009F92AF92BF92CF92DF92EF92FF920F936E
:100940001F93CF93DF936C017B018A0180910B0190
:10095000882309F45CC080915E03882309F457C0A2
:100960008091420380FF05C08091E0008260809307
:10097000E000E801B12C8AEFA82E93E0892E2AE34B
:10098000922E209711F4BB20D9F10E9461018111B0
:100990000AC0AA94AA20D9F161E070E080E090E05A
:1009A0000E948502EECF8C171D0611F00CF08C2FE3
:1009B0009FB7F8948092E9002091E80025FD02C0DD
:1009C0009FBFDFCF282F30E0C21BD30BF701815030
:1009D00020F041914093F100FACFE20EF31EBB20CC
:1009E00021F09092E800B12CEBCF8091E80085FDDA
:1009F000E7CF9092E800BB24B394209709F3F3CF9C
:100A00005D9884E680934103101611063CF081E066
:100A100090E0F6019383828310E000E0C801DF914B
:100A2000CF911F910F91FF90EF90DF90CF90BF90EB
:100A3000AF909F908F900895CF93DF931F92CDB783
:100A4000DEB76983DC01ED91FC910280F381E02D3A
:100A500041E050E0BE016F5F7F4F09950F90DF913D
:100A6000CF91089583E08093E9008091F20088237C
:100A700019F08AE38093E80008950E94610190E0F4
:100A80000895CF93DF931F92CDB7DEB7FC01848525
:100A9000958597FD08C02FEF3FEF358724870F908E
:100AA000DF91CF910895CE0101960E943701019701
:100AB00019F4898190E0F3CF8FEF9FEFF0CF0F9380
:100AC0001F93CF93DF931F92CDB7DEB78C01FC014C
:100AD0008485958597FF0BC0CE0101960E94370152
:100AE000019771F4898190E0F80195878487F80176
:100AF000848595850F90DF91CF911F910F91089577
:100B00008FEF9FEFF1CFFC018485958597FD0BC09A
:100B10009FB7F89482E08093E9008091F2009FBF34
:100B200090E0019608959FB7F89482E08093E900E1
:100B30008091F2009FBF90E008952E98269A2D98FC
:100B4000259A2A98229A2998219A2F98279A8AEAF0
:100B50008093800089E18093810084EA91E0909302
:100B6000870080938600109289001092880010926E
:100B70008B0010928A0010928D0010928C000895C4
:100B80000F931F93CF93DF938C01EB0180912B0385
:100B9000811105C081E080932B030E949D0580E0B8
:100BA00017FF04C011950195110981E00D3291E004
:100BB000190714F00CE211E010938B0000938A00E7
:100BC000882329F12A9A229A80912B03811105C04A
:100BD00081E080932B030E949D0580E0D7FF04C035
:100BE000D195C195D10981E0CD3291E0D90714F0BA
:100BF000CCE2D1E0D0938900C0938800882349F0EB
:100C0000299A219ADF91CF911F910F9108952A98E7
:100C1000DACF2998F6CF70E060E090E080E00C94A5
:100C2000C0058CB1282F30E035952795359527954F
:100C3000422F417083B190E054E0959587955A9585
:100C4000E1F7822781702091290390912A03609116
:100C500027037091280324279827291B330B260F7D
:100C6000371F309328032093270320912903909165
:100C70002A03281729F0941719F091E0909326037E
:100C80008093290340932A0308959FB191708CB1FA
:100C900086FB882780F9892720912403309125033A
:100CA000409122035091230329273827231B330B1C
:100CB000240F351F30932303209322033091240304
:100CC00020912503381729F0291719F021E02093E6
:100CD00021038093240390932503089524982C9A4C
:100CE0006A98729A6E98769A8098889AF89491E0A9
:100CF00090936800EBE6F0E080818061808321E1E1
:100D000036E030933503209334039BBB8091C604B7
:100D10008F7E8093C60483B19091C6048071892B25
:100D20008093C604789485E496E0909315018093AF
:100D30001401EAE6F0E080818F7C80618083EE9A86
:100D40008CB182FB882780F980932A0393B180912C
:100D50002A03929591708927809329031092280382
:100D600010922703109226038FB181708093250380
:100D70009CB18091250396FB992790F98927809350
:100D8000240310922303109222031092210308954A
:100D90000F931F93CF93DF93EC01888581110EC0D1
:100DA000898591E098879A8562E0911101C060E0A1
:100DB0000E9400028FE090E00197F1F7298530E072
:100DC000F901E256FE4F8491F901E158FE4F04917A
:100DD000F901E05AFE4F14911123C9F081110E94CC
:100DE0008601E12FF0E0EE0FFF1FE455FF4FA591C4
:100DF000B491EC910E2331E009F430E0832F2B8580
:100E000082278170DF91CF911F910F91089580E02B
:100E1000F6CFCF93DF9380E895E00E94C806D1E03B
:100E2000C82FCD270E94B70220918505213099F067
:100E300030F0223011F1233041F1C0E008C0C1117F
:100E4000FCCF7093870560938605D09385058C2F22
:100E5000DF91CF910895CC2319F010928505EDCF45
:100E60002091860530918705621B730B6F307105E9
:100E700070F382E080938505E0CFCC2341F370933B
:100E800087056093860583E0F5CFCC2391F320910D
:100E9000860530918705621B730B6F30710568F210
:100EA00010928505D4CF2091FE02260F3327331FE1
:100EB00021323105ECF42091AF03FC0190E080E099
:100EC000243069F082E00895A091FE022191AC01E6
:100ED00042525D4FA40FB52FB11D2C93019686177A
:100EE00098F38091FE02680F6093FE0280E00895FF
:100EF00081E008951092AF0381E08093AE031092D9
:100F0000890361E082E00E94D20161E083E00E94F7
:100F1000D201E9EBF0E080818E7F808380818D7F3C
:100F2000808388E48093B80085E48093BC000895B2
:100F3000CF93DF9391E09093DD028823B9F0C091C5
:100F4000B800D091BA008091BC008A7B8093BC002D
:100F500060E082E00E94D20160E083E00E94D20162
:100F60000E947A07D093BA00C093B800DF91CF9166
:100F70000895CF92DF92EF92FF920F931F93CF933A
:100F8000DF93D091D80381E0D13208F09CC0C091AA
:100F9000D7030E9460026B017C018091AF03811135
:100FA0006CC082E08093AF0381E08093AE038FEF4B
:100FB0008093AD031092AC03D093AB03A7EBB3E0E7
:100FC000EBE8F3E080E0D8138DC010928A038091A3
:100FD0008A03CC0FC82BC0938A0380918903813088
:100FE00009F084C0109289030E9460026B017C01A9
:100FF00080918A038093BB008091B1039091B203EA
:10100000A091B303B091B403892B8A2B8B2BA1F051
:101010000E9460020091B1031091B2032091B303CA
:101020003091B4036C197D098E099F0906171707C3
:101030002807390708F442C08091BC0083FDD8CF4F
:1010400085EC8093BC000E9460026B017C01809162
:10105000AF03823009F44CC08091AD038F3F09F497
:1010600069C08091AD03803209F466C08091AD0300
:10107000803309F463C084E026C08091B10390916D
:10108000B203A091B303B091B403892B8A2B8B2BAD
:1010900009F483CF0E9460020091B1031091B20362
:1010A0002091B3033091B4036C197D098E099F0917
:1010B000061717072807390708F06FCF8091B0038C
:1010C0000E94980785E01092B6031092D803109200
:1010D000B503DF91CF911F910F91FF90EF90DF90BB
:1010E000CF9008959D9191938F5F6DCF85EEA9CF9D
:1010F0008091B1039091B203A091B303B091B40376
:10110000892B8A2B8B2B09F4A2CF0E9460020091BD
:10111000B1031091B2032091B3033091B4036C1961
:101120007D098E099F09061717072807390708F058
:101130008ECFC4CF80E0C7CF82E0C5CF83E0C3CFDE
:101140008F929F92AF92BF92CF92DF92EF92FF92D7
:101150000F931F93CF93DF93D82FC62F142F613295
:1011600008F09CC00E9460026B017C018091AF037B
:1011700081116FC081E08093AF031093AE039FEFA6
:101180009093AD031092AC039C0F9093AB038093AC
:101190008A0380918A03DD0FD82BD0938A03809134
:1011A0008903813009F07CC0109289030E9460029B
:1011B0006B017C0180918A038093BB008091B10315
:1011C0009091B203A091B303B091B403892B8A2B01
:1011D0008B2BA1F00E9460020091B1031091B20329
:1011E0002091B3033091B4036C197D098E099F09D6
:1011F000061717072807390708F44CC08091BC0070
:1012000083FDD8CF85EC8093BC000E9460026B0107
:101210007C018091AF03813009F444C08091AC031C
:101220008C1710F4C091AC03EBE8F3E0A7E6B3E051
:1012300080E08C1359C08C2FDF91CF911F910F91BB
:10124000FF90EF90DF90CF90BF90AF909F908F90E6
:1012500008958091B1039091B203A091B303B0912E
:10126000B403892B8A2B8B2B09F480CF0E94600258
:101270008090B1039090B203A090B303B090B403F8
:101280006C197D098E099F0986169706A806B9066E
:1012900008F06CCF8091B0030E949807C0E0CBCFDC
:1012A00085EEB1CF8091B1039091B203A091B303C9
:1012B000B091B403892B8A2B8B2B09F4AACF0E94FF
:1012C00060020091B1031091B2032091B3033091F9
:1012D000B4036C197D098E099F09061717072807A3
:1012E000390708F096CFD6CF91919D938F5FA1CF0C
:1012F000E091880380918703E81730F4F0E0E95922
:10130000FC4F808190E008958FEF9FEF0895CF927A
:10131000DF92EF92FF920F931F93CF93DF937C01A5
:10132000CB018A012091B503222389F0EB016B01E7
:10133000C40ED51ECC15DD0569F06991D701ED917C
:10134000FC910190F081E02DC7010995F3CF642F46
:101350000E945307C801DF91CF911F910F91FF9019
:10136000EF90DF90CF900895CF93DF931F92CDB78A
:10137000DEB769832091B5032223F9F02091D803C9
:10138000203258F021E030E0FC013383228390E0EA
:1013900080E00F90DF91CF9108958091B603E82F00
:1013A000F0E0E954FC4F998190838F5F8093B603FE
:1013B0008093D80381E090E0ECCF61E0CE0101960C
:1013C0000E945307F7CF90E080E00895FC017183FD
:1013D00060834681578151874087248135813783D7
:1013E0002683828193819583848373836283241708
:1013F000350724F457834683318720876817790798
:1014000024F4918380837583648384819581681734
:10141000790724F493838283758364838081918127
:10142000268137818217930724F4318320839783A1
:10143000868384819581268137818217930724F4DE
:1014400035832483978386838281938120853185A8
:101450008217930724F433832283918780878281C4
:101460009381248135818217930724F43383228367
:1014700095838483848195810895CF92DF92EF9242
:10148000FF92CF93DF93EC010E94B7026B017C01C6
:101490008091D9029091DA02A091DB02B091DC0236
:1014A000B701A601481B590B6A0B7B0B8C859D85E8
:1014B000B0E0A0E0481759076A077B0708F448C066
:1014C00080916103909162039093600380935F0326
:1014D0008091650390916603909364038093630306
:1014E0008091D802811105C081E08093D8020E94CA
:1014F0006E06F89480912703909128037894909336
:101500006203809361038091D802811105C081E05C
:101510008093D8020E946E06F894809122039091E5
:101520002303789490936603809365030E94B70227
:10153000C092D902D092DA02E092DB02F092DC0291
:1015400081E0DF91CF91FF90EF90DF90CF900895F1
:1015500080E0F7CF4F925F926F927F928F929F922F
:10156000AF92BF92CF92DF92EF92FF92CF93DF9331
:10157000CDB7DEB72C970FB6F894DEBF0FBECDBF48
:101580006B017C0129833A834B835C8380E391E088
:101590000E943D0A882309F4FBC02091300130915C
:1015A00031014091320150913301609138017091C5
:1015B000390180913A0190913B010E94F61D2B0167
:1015C0003C0160913C0170913D0190E080E00E94FF
:1015D000661C20E030E04AE754E40E94F61D4B010F
:1015E0005C01609161037091620380915F0390914F
:1015F0006003681B790B072E000C880B990B0E9467
:10160000681CA30192010E94A31CA50194010E94E1
:10161000F61D9B01AC01C701B6010E94891D6B013B
:101620007C016091650370916603809163039091E2
:101630006403681B790B072E000C880B990B0E9422
:10164000681CA30192010E94A31CA50194010E94A1
:10165000F61D9B01AC0169817A818B819C810E947E
:10166000891D2B013C0120913005309131054091BD
:10167000320550913305C701B6010E948A1D698762
:101680007A878B879C8760933005709331058093B0
:101690003205909333052091340530913505409102
:1016A000360550913705C301B2010E948A1D4B01D6
:1016B0005C018092340590923505A0923605B09277
:1016C00037058091160590911705A0911805B091E6
:1016D000190589839A83AB83BC8380911A05909105
:1016E0001B05A0911C05B0911D058D839E83AF83C2
:1016F000B88729813A814B815C81C301B2010E9484
:10170000A31C2B013C012D813E814F815885C501D1
:10171000B4010E94A31C9B01AC01C301B2010E9451
:101720008A1D0E94681E4B0129813A814B815C8190
:10173000C701B6010E94A31C6B017C012D813E8173
:101740004F81588569857A858B859C850E94A31C6D
:101750009B01AC01C701B6010E948A1D0E94681E50
:10176000CB01B4012C960FB6F894DEBF0FBECDBFEF
:10177000DF91CF91FF90EF90DF90CF90BF90AF902F
:101780009F908F907F906F905F904F900C94C005CA
:101790002C960FB6F894DEBF0FBECDBFDF91CF9170
:1017A000FF90EF90DF90CF90BF90AF909F908F9081
:1017B0007F906F905F904F900895CF92DF92EF925D
:1017C000FF9270E060E090E080E00E94C0050E941F
:1017D000B7026B017C010E94B7026C197D098E096A
:1017E0009F09623C71418105910548F420E030E099
:1017F0004CED52ECCA01B9010E94AA0AECCF70E08C
:1018000060E090E080E00E94C00581E0FF90EF90F2
:10181000DF90CF900895FC0101900020E9F7319707
:10182000AF01481B590BBC0186E794E00C94970468
:101830008F929F92AF92BF920F931F93CF93DF939C
:10184000CDB7DEB7A1970FB6F894DEBF0FBECDBF00
:1018500019A2423008F44AE08E010F5D1F4F842E1A
:10186000912CB12CA12CA50194010E94611DE62FA1
:10187000B901CA01EA30F4F4E05DD801EE938D01BC
:10188000232B242B252B79F790E080E0109719F07B
:10189000CD010E940B0CA1960FB6F894DEBF0FBECF
:1018A000CDBFDF91CF911F910F91BF90AF909F90CF
:1018B0008F900895E95CE1CFCF93DF930E940B0CEA
:1018C000EC0181E891E00E940B0C8C0F9D1FDF91D1
:1018D000CF910895AF92BF92CF92DF92EF92FF9295
:1018E0000F931F93CF93DF93CDB7DEB760970FB6FB
:1018F000F894DEBF0FBECDBF7C0183EE93E001976D
:10190000F1F741E060E18DE30E94A00810928803A6
:1019100080938703803149F58E010F5F1F4F5E0171
:1019200081E1A80EB11C68010E941D01F80181939C
:101930008F01AE16BF06C1F780E1F601D701019015
:101940000D928A95E1F781E060960FB6F894DEBFBC
:101950000FBECDBFDF91CF911F910F91FF90EF9000
:10196000DF90CF90BF90AF90089580E0EDCF4F9281
:101970005F926F927F928F929F92AF92BF92CF921F
:10198000DF92EF92FF92CF93DF93CDB7DEB76097F0
:101990000FB6F894DEBF0FBECDBF80E391E00E948A
:1019A0003D0A882309F4E6C080E596E00E946A0CAF
:1019B0008090560690905706A0903A05B0903B054F
:1019C000B4016A197B0990E080E00E94661C6B01FB
:1019D0007C01A818B908B50190E080E00E94661C5F
:1019E0004B015C0140915C0650915D0620915A06C6
:1019F00030915B06429FC001439F900D529F900D16
:101A0000112460913C0570913D05681B790B90E0B5
:101A100080E00E94661C2B013C0120913005309132
:101A200031054091320550913305C701B6010E943E
:101A30008A1D6D837E838F839887609330057093B2
:101A40003105809332059093330520913405309110
:101A500035054091360550913705C501B4010E9406
:101A60008A1D69877A878B879C876093340570937A
:101A70003505809336059093370520911E053091EA
:101A80001F054091200550912105C301B2010E941C
:101A9000A31C6D877E878F87988B4090160550908A
:101AA0001705609018057090190580911A0590919E
:101AB0001B05A0911C05B0911D0589839A83AB83FA
:101AC000BC83A3019201C501B4010E94A31C2D8512
:101AD0003E854F8558890E948A1D4B015C012981F2
:101AE0003A814B815C8169857A858B859C850E94D2
:101AF000A31C9B01AC01C501B4010E948A1D0E9478
:101B0000681E4B01A3019201C701B6010E94A31CEC
:101B10002D853E854F8558890E948A1D6B017C0169
:101B200029813A814B815C816D817E818F8198858D
:101B30000E94A31C9B01AC01C701B6010E948A1D33
:101B40000E94681ECB01B40160960FB6F894DEBF08
:101B50000FBECDBFDF91CF91FF90EF90DF90CF9080
:101B6000BF90AF909F908F907F906F905F904F90BD
:101B70000C94C00560960FB6F894DEBF0FBECDBFC3
:101B8000DF91CF91FF90EF90DF90CF90BF90AF901B
:101B90009F908F907F906F905F904F90089541E05D
:101BA0000E94A00810928803809387030895CF9322
:101BB000C82F81E08093B503C093D7031092B6037A
:101BC0001092D8036FE087EC94E00E94B4090E9461
:101BD000B90781110DC061E08C2F0E94CF0D90914B
:101BE000870380918803981719F0CF910C941D01F9
:101BF0008FEF9FEFCF910895CF92DF92EF92FF92F8
:101C00000F931F93CF93DF938091970691E090936A
:101C1000B5038093D7031092B6031092D80362E203
:101C200087EC94E00E94B4090E94B90766E08091B5
:101C300097060E94CF0D0E94B702EB0180918703A7
:101C400090918803891B990B2091980630919906F1
:101C500086309105D4F421153105D1F30E94B702E5
:101C60006C1B7D0B809198069091990686179707BB
:101C700028F781E080939A06DF91CF911F910F9111
:101C8000FF90EF90DF90CF9008950E941D01182FD4
:101C90000E941D01082F0E941D01C82F0E941D01D6
:101CA000D82F0E941D01F82E0E941D0160E0702FA8
:101CB000612B70937B0660937A0600E01D2F0C2B3E
:101CC00010937D0600937C06D82F80E0C82FCF2983
:101CD000D0937F06C0937E06C0908C06D0908D0670
:101CE000E0908E06F0908F06072E000C880B990B63
:101CF0000E94681CA70196010E94A31C20E030E00E
:101D00004AE754E40E94F61D6093800670938106B2
:101D10008093820690938306B801110F880B990B6C
:101D20000E94681CA70196010E94A31C20E030E0DD
:101D30004AE754E40E94F61D60938406709385067A
:101D40008093860690938706BE01DD0F880B990B62
:101D50000E94681CA70196010E94A31C20E030E0AD
:101D60004AE754E40E94F61D609388067093890642
:101D700080938A0690938B067FCFFF920F931F93D9
:101D8000CF93DF938091970691E09093B503809372
:101D9000D7031092B6031092D80368E287EC94E060
:101DA0000E94B4090E94B90766E0809197060E94DC
:101DB000CF0D0E94B702EB018091870390918803B9
:101DC000891B990B209198063091990686309105D0
:101DD000BCF421153105D1F30E94B7026C1B7D0BB9
:101DE00080919806909199068617970728F781E0C9
:101DF00080939A06DF91CF911F910F91FF900895E4
:101E00000E941D01082F0E941D01F82E0E941D0135
:101E1000D82F0E941D01182F0E941D01C82F0E945B
:101E20001D0120E03F2D202B309375062093740672
:101E300020E0312F2D2B309377062093760620E07B
:101E4000382F2C2B3093790620937806D3CF0F931D
:101E50001F93CF93DF930E94BD0E0E94FC0D009153
:101E6000760610917706C0917806D0917906609138
:101E70007406709175068CE695E00E94E609BC0137
:101E8000990F880B990B0E94681C23E23BED49E7F0
:101E90005DE30E94A31C0E94681E7093DC046093A3
:101EA000DB04B80188E595E00E94E609BC01990FC2
:101EB000880B990B0E94681C23E23BED49E75DE328
:101EC0000E94A31C0E94681E7093DE046093DD04D0
:101ED000BE0184E495E00E94E609BC01990F880BDD
:101EE000990B0E94681C23E23BED49E75DE30E94E9
:101EF000A31C0E94681E7093E0046093DF0420918D
:101F0000DB043091DC048091D3049091D404281731
:101F10003907BCF02091DD043091DE0437FF03C0A7
:101F200031952195310981E04091D5045091D60435
:101F3000421753070CF080E0DF91CF911F910F9172
:101F4000089581E0F9CFEF92FF920F931F93CF9303
:101F5000DF9370E060E090E080E00E94C005609157
:101F6000380570913905072E000C880B990B0E94DB
:101F7000681C2BEA3AEA4AE25EE30E94A31C0E9434
:101F8000681EEB010091610310916203EE24FF24AF
:101F9000E01AF10AA80117FDA70180916103909151
:101FA000620397FF03C09195819591099A01281BBF
:101FB000390B121613061CF09C01241B350BC2179B
:101FC000D3075CF020E030E048E452E460E070E0E9
:101FD00088E492EC0E94AA0ADDCF70E060E090E015
:101FE00080E00E94C00581E0DF91CF911F910F91A9
:101FF000FF90EF900895CF92DF92EF92FF92CF93F0
:10200000DF936C01990FEE08FF08F7FE1FC06DE229
:1020100086E794E00E941C05EC0166277727CB0138
:102020006C197D098E099F094AE00E94180CC80F9F
:10203000D91F81E891E00E940B0C8C0F9D1FDF914E
:10204000CF91FF90EF90DF90CF9008954AE0C701C5
:10205000B6010E94180CEC01ECCF4F925F926F9288
:102060007F928F929F92AF92BF92CF92DF92EF9228
:10207000FF920F931F93CF93DF93C2E1D5E08EA51C
:102080000E943C028C0188A90E943C02B801681B96
:10209000790B072E000C880B990B0E94681C6B01B2
:1020A0007C0188809980AA80BB80A50194010E9450
:1020B000A31C2B013C01C701B6019058A501940156
:1020C0000E94A31C6B017C0184E891E00E945C0CDF
:1020D0008EA50E943C020E94FB0F8BE891E00E94BB
:1020E0005C0C88A90E943C020E94FB0F20E030E0BB
:1020F00048E452E4C701B6010E948A1D0E94681E8E
:102100006B0120E030E048E452E4C301B2010E94D8
:102110008A1D0E94681ECB01B601DF91CF911F91ED
:102120000F91FF90EF90DF90CF90BF90AF909F9076
:102130008F907F906F905F904F900C94C005CF93DD
:10214000DF93BC0190E080E04AE00E94180CEC01B3
:1021500081E891E00E940B0C8C0F9D1FDF91CF91C5
:1021600008958BE891E00197F1F741E061E08DE39C
:102170000E94A0081092880380938703813019F48D
:102180000E941D01089580E0089585ED8093BC00B4
:102190008091B1039091B203A091B303B091B403C5
:1021A0000796A11DB11D23E0B695A7959795879534
:1021B0002A95D1F72091BC0024FD03C01092AF03F3
:1021C00008954091B1035091B2036091B3037091AF
:1021D000B403452B462B472B69F30097A105B105A6
:1021E00041F025E32A95F1F700000197A109B10913
:1021F000E1CF8091B0030C9498071F920F920FB615
:102200000F9211242F933F938F939F93AF93BF937C
:102210008091490390914A03A0914B03B0914C03E4
:102220003091480323E0230F2D3758F50196A11D67
:10223000B11D209348038093490390934A03A093D0
:102240004B03B0934C0380914D0390914E03A091AA
:102250004F03B09150030196A11DB11D80934D0312
:1022600090934E03A0934F03B0935003BF91AF914F
:102270009F918F913F912F910F900FBE0F901F90C4
:10228000189526E8230F0296A11DB11DD2CF1F92EB
:102290000F920FB60F9211242F933F934F935F939A
:1022A0006F937F938F939F93AF93BF93EF93FF931E
:1022B000E0911401F09115010995FF91EF91BF9103
:1022C000AF919F918F917F916F915F914F913F91CE
:1022D0002F910F900FBE0F901F9018951F920F9285
:1022E0000FB60F9211242F933F934F935F936F93E9
:1022F0007F938F939F93AF93BF93EF93FF93E0915F
:102300001201F09113010995FF91EF91BF91AF91E7
:102310009F918F917F916F915F914F913F912F91FD
:102320000F900FBE0F901F9018951F920F920FB62F
:102330000F9211242F933F934F935F936F937F934B
:102340008F939F93AF93BF93EF93FF93E09110010F
:10235000F09111010995FF91EF91BF91AF919F917C
:102360008F917F916F915F914F913F912F910F903E
:102370000FBE0F901F9018951F920F920FB60F92DD
:1023800011242F933F934F935F936F937F938F937A
:102390009F93AF93BF93EF93FF93E0910E01F09162
:1023A0000F010995FF91EF91BF91AF919F918F918F
:1023B0007F916F915F914F913F912F910F900FBE41
:1023C0000F901F9018951F920F920FB60F92112425
:1023D0002F933F934F935F936F937F938F939F932D
:1023E000AF93BF93EF93FF93E0910C01F0910D0138
:1023F0000995FF91EF91BF91AF919F918F917F913F
:102400006F915F914F913F912F910F900FBE0F9061
:102410001F9018951F920F920FB60F9211248F9351
:102420009F938091E1009091E100937F9093E10070
:1024300083FF0FC01092E90091E09093EB0010929F
:10244000EC0092E39093ED0010925E0398E090937D
:10245000F00082FF22C093E09093E9009091F20097
:10246000992319F09AE39093E800909141039923FE
:1024700041F090914103915090934103911101C01B
:102480005D9A90915D03992341F090915D03915085
:1024900090935D03911101C0289A84FF18C0809128
:1024A000E2008E7E81608093E2008091E1008F7E69
:1024B0008093E100809142038E7E8061809342038D
:1024C0009F918F910F900FBE0F901F90189580FFD6
:1024D000F7CF8091E2008E7E80618093E200809150
:1024E000E1008E7E8093E100809142038E7E8160C8
:1024F000E5CF1F920F920FB60F921124CF92DF9269
:10250000EF92FF920F931F932F933F934F935F93FD
:102510006F937F938F939F93AF93BF93EF93FF93AB
:10252000CF93DF93CDB7DEB76C97DEBFCDBF1092F0
:10253000E9008091E80083FF25C068E0CE01459660
:102540000E947F0382EF8093E8008D8987FF39C066
:102550009091E80090FFFCCF982F907609F034C15D
:102560009E894F89588D2F89F88C911131C0803800
:1025700061F5809143038093F1001092F1008EEF9A
:102580008093E8006C960FB6F894DEBF0FBECDBF07
:10259000DF91CF91FF91EF91BF91AF919F918F917B
:1025A0007F916F915F914F913F912F911F910F916B
:1025B000FF90EF90DF90CF900F900FBE0F901F9085
:1025C00018959EEF9093E800C7CF1092F100D5CFF9
:1025D000913059F48111D3CF4130510581F680916A
:1025E00043038D7F80934303CACF933049F4811115
:1025F000C6CF4130510519F6809143038260F2CF76
:10260000953041F48091E80080FFFCCF2068209352
:10261000E300B5CF963009F0A9C00B8D1C8D22E0E8
:102620001092E90010923F0310923E03F2122EC066
:1026300010923D0310923C030E944E031F8299E0CA
:102640009983FA8291E09E8390EA98879AEF99871E
:1026500020913E0330913F03275F3F4F3C832B8304
:102660008D831092E90010923F0310923E03109365
:102670003D0300933C0349E050E0BE016F5F7F4F94
:1026800080E00E9428030E944E0379CF10933D03FF
:1026900000933C030E947201DC0112960D911C9183
:1026A0000115110509F451C1D801ED91FC91048087
:1026B000F581E02DBE016B5E7F4FC8010995009743
:1026C00009F03EC1F80100851185EACFF3E0FF1261
:1026D0000EC08F89882309F440C0823061F440E83D
:1026E00062E185E291E00E94F502811148CF81E22A
:1026F0008093EB0047CF813029F440E862E182E12A
:1027000091E0F1CF833099F70E947201DC011296BB
:10271000ED90FC908E010F5F1F4F6801E114F104F2
:1027200079F0D701ED91FC910680F781E02DB80199
:10273000C7010995080F111DF701E084F184EECF60
:10274000D8011C92F60101900020E9F73197BF01F2
:102750006C197D0940E0C601C6CF6CEF70E0FB014B
:10276000449150E080E80E94280309CF973009F493
:10277000BECF983021F481E08093F10000CF9930F2
:1027800009F0FDCE837009F0B2CFEFE3F1E081E014
:1027900031E096E32191222371F08093E900309398
:1027A000EB00DF0111972C912093EC009093ED004A
:1027B0008F5F873079F78EE78093EA001092EA0006
:1027C0008F8980935E03DBCE8B8D9C8D1092E90008
:1027D00010923F0310923E0390933D0380933C037D
:1027E000898D811192C08E899D89913A49F48132F7
:1027F00009F07DCF47E050E064E071E080E0B3CFC6
:10280000913209F074CF833269F48F89988DB0E0EA
:10281000A0E08093000190930101A0930201B09386
:102820000301ADCE803269F48091E80082FFFCCFD5
:1028300067E084E091E00E947F038BEF8093E800E3
:102840009ECE823209F09BCE8F8980930B01EEEFF2
:10285000FFE7859194918B3F9C4D51F1E0E0F8E0CA
:102860008091040190910501A0910601B0910701AA
:10287000803B9440A105B105F1F480910B0180FDEE
:102880001AC0EE3F8AE0F80789F587E797E791835A
:102890008083809160008093400388E19BE00FB6C5
:1028A000F894A895809360000FBE9093600067CE67
:1028B000EEEFFAE0D5CF808191818737974709F015
:1028C0005ECEA895809160008861809360008091C1
:1028D000400380936000EE3F2AE0F20789F0809188
:1028E000FE0A9091FF0A9183808349CE8081918175
:1028F0008737980751F29093FF0A8093FE0AC5CF5D
:102900001092FF0A1092FE0A3ACE0E947201DC0178
:1029100012960D911C910115110509F4E8CED8010C
:10292000ED91FC910190F081E02DBE016B5E7F4F37
:10293000C8010995811123CEF80100851185EBCFDF
:10294000181619060CF41BCED2CEF1E0FF12BECE43
:1029500060E071E004CF1F920F920FB60F92112426
:102960002F933F934F935F936F937F938F939F9397
:10297000AF93BF93EF93FF9389ED93E00E940A0416
:10298000FF91EF91BF91AF919F918F917F916F9147
:102990005F914F913F912F910F900FBE0F901F901D
:1029A00018951F920F920FB60F9211242F938F93A9
:1029B0009F93EF93FF93E091E903F091EA03808105
:1029C000E091EF03F091F00382FD1BC090818091B4
:1029D000F2038F5F8F732091F303821741F0E09130
:1029E000F203F0E0E752FC4F958F8093F203FF91E2
:1029F000EF919F918F912F910F900FBE0F901F908D
:102A000018958081F4CF1F920F920FB60F92112468
:102A10002F933F934F935F936F937F938F939F93E6
:102A2000AF93BF93EF93FF93CF93DF9300D01F92A9
:102A3000CDB7DEB783B1898389819091C604892798
:102A40008A8380916B009A8189238B838B8180FF9D
:102A500005C0E0912C03F0912D0309958B8181FF36
:102A600005C0E0912E03F0912F0309958B8182FF21
:102A700005C0E0913003F091310309958B8183FF0C
:102A800005C0E0913203F091330309958B8184FFF7
:102A900005C0E0913403F091350309958B8185FFE2
:102AA00005C0E0913603F091370309958B8186FFCD
:102AB00005C0E0913803F091390309958B8187FFB8
:102AC00005C0E0913A03F0913B0309958981809319
:102AD000C6040F900F900F90DF91CF91FF91EF916F
:102AE000BF91AF919F918F917F916F915F914F9126
:102AF0003F912F910F900FBE0F901F9018951F922E
:102B00000F920FB60F9211242F933F934F935F9321
:102B10006F937F938F939F93AF93BF93EF93FF93A5
:102B20008091B900887F803609F44AC0F0F5883278
:102B300009F4A7C018F5803109F49BC0B8F48823C4
:102B400009F4F9C0883009F494C0FF91EF91BF9166
:102B5000AF919F918F917F916F915F914F913F9135
:102B60002F910F900FBE0F901F901895883109F488
:102B700088C0803251F78093AD0314C0803409F4CB
:102B80009DC040F48033B9F38833F9F68093AD03E8
:102B900085ECB0C0803509F485C0883509F496C04D
:102BA000883499F60E94C510D0CF883909F48CC0BA
:102BB00038F5883729F050F4883611F0803729F637
:102BC00083E08093AF031092200357C0883809F444
:102BD0007BC0803919F0803809F0B7CF809120038D
:102BE000803208F071C0E091200381E08E0F809365
:102BF00020038091BB00F0E0E050FD4F80833DC09A
:102C0000803B39F0E0F4803A09F479C0883A09F061
:102C10009CCF84E08093AF031092FF021092FE02DB
:102C2000E0914603F091470309958091FE028111DE
:102C30000FC081E08093FE021092DE0209C0803C4A
:102C400009F4A6CF883C09F4A3CF883B09F07DCFD7
:102C5000E091FF0281E08E0F8093FF02F0E0E252EC
:102C6000FD4F80818093BB009091FF028091FE0216
:102C700029C080918A038093BB0085EC8093BC00BF
:102C800064CF9091AC038091AB03981758F5E09115
:102C9000AC0381E08E0F8093AC03F0E0E557FC4F6E
:102CA0008081E9CFE091AC0381E08E0F8093AC038B
:102CB0008091BB00F0E0E557FC4F80839091AC031E
:102CC0008091AB039817C8F285E8D8CFE091AC03A8
:102CD00081E08E0F8093AC038091BB00F0E0E5575C
:102CE000FC4F80838091AE0381115CCF81E08093A3
:102CF000890384EA8093BC001092AF0326CF85EC51
:102D00008093BC001092AF0380912003803230F496
:102D1000E0912003F0E0E050FD4F1082609120032D
:102D200070E0E0914403F091450380E093E0099561
:102D3000109220030ACF1092AD0334CF1F93CF938C
:102D4000DF93162FC4E7D6E09BA121E02093B503C3
:102D50009093D7031092B6031092D803682F87EC94
:102D600094E00E94B409612F87EC94E00E94B409BA
:102D70000E94B90788A3DF91CF911F910895CF9347
:102D8000DF93C4E7D6E09BA121E02093B5039093A5
:102D9000D7031092B6031092D803682F87EC94E003
:102DA0000E94B4090E94B90788A361E08BA10E9428
:102DB000CF0D0E941D01C82F0E94B9078C2FDF91F3
:102DC000CF9108952AE0FC0111922A95E9F7089520
:102DD0000F931F93CF93DF93E9EDF3E013821282F9
:102DE00088EE93E0A0E0B0E084839583A683B78368
:102DF00029E431E0318320832DEC30E035872487CE
:102E00002CEC30E03787268728EC30E0318B208BA4
:102E100029EC30E0338B228B2AEC30E0358B248B8D
:102E20002EEC30E0378B268B118E128E138E148E83
:102E3000E6E7F4E01382128284839583A683B78346
:102E40002BE531E0318320832FEF3FEF3587248757
:102E500023B12093C604E7ECF4E01382128284834A
:102E60009583A683B7838DE691E091838083E3ED1C
:102E7000F4E082E99FEF9183808387E390E093837E
:102E800082838CED95E09583848386E990E0978337
:102E9000868386E0ABEDB4E0ED01982F19929A9508
:102EA000E9F71786168622E030E0318B208B138AF3
:102EB000128A158A148A40E351E1578B468B4DECF8
:102EC0005CEC6CEA7FE3428F538F648F758F468F83
:102ED000578F60A371A349E25CE56FE07DE342A3F5
:102EE00053A364A375A342E350E057A746A70AEF94
:102EF00010E011AB00AB12AA14AA13AAC1E0D0E0F3
:102F0000D6ABC5AB30AF27AB23E030E032AF21AF5B
:102F100024E030E034AF23AF25E030E036AF25AF1A
:102F2000EDEAF5E0DF011D928A95E9F71092A2051E
:102F30001092A10510929C05E0E8F5E0128215823E
:102F400010868EE0818781E0828783878FE791E01A
:102F5000918380838CE695E00E94E21688E595E0F7
:102F60000E94E21684E495E00E94E216E2E1F5E0B8
:102F70008DEC9CECACECBDE380839183A283B383A6
:102F800040E050E060E07FE34483558366837783CD
:102F900080879187A287B38783E393E3ABE2B1E4B1
:102FA00084879587A687B7878AE097EDA3E2BCE37D
:102FB000848B958BA68BB78B88E790E0958F848F59
:102FC00080E590E091A780A781E494E093A782A791
:102FD00015A704A784E190E097A786A786E190E073
:102FE00091AB80AB8BE296E00E94E2160E94B702A2
:102FF000109255061092540610924F0680E696E005
:103000000E94E216E4E7F6E0108E118E128E138E07
:10301000148E158E168E178ED2A3C1A315A214A2DC
:1030200016A2DF91CF911F910F910895789484B5E6
:10303000826084BD84B5816084BD85B5826085BDB4
:1030400085B5816085BD80916E00816080936E0042
:103050001092810080918100826080938100809134
:1030600081008160809381008091800081608093E5
:103070008000809191008260809391008091910006
:103080008160809391008091900081608093900096
:103090008091C10084608093C1008091C1008260F2
:1030A0008093C1008091C10081608093C1008091B4
:1030B000C30081608093C3008091C00082608093D0
:1030C000C0008091C20081608093C20080917A002C
:1030D000846080937A0080917A00826080937A0085
:1030E00080917A00816080937A0080917A00806874
:1030F00080937A0010925E03109243031092420371
:103100008091D70081608093D70080EA8093D800B7
:1031100089B5806189BD89B5826089BD09B400FE29
:10312000FDCF61E070E080E090E00E948502809138
:10313000D8008F7C80618093D8008091E000807FF0
:103140008093E0008091E1008E7E8093E1008DE02D
:103150008093E200559A209A109288031092870378
:103160001092B6031092D8030E947A0783EC92E083
:10317000909347038093460384EC92E09093450339
:10318000809344038BE60E94D70D8936910509F0A0
:10319000ACC010929606109295068BE68093970627
:1031A00080E10E94BF1660E080E10E949E1623E24B
:1031B000C22E2BEDD22E29E7E22E2DE3F22EC09265
:1031C0009006D0929106E0929206F092930680913A
:1031D000950690919606892B39F580E10E94BF16DD
:1031E00060E080E10E949E16C0929006D092910607
:1031F000E0929206F092930681E10E94BF16682F3A
:10320000607F81E10E949E1680E090E0ACE0B1E436
:1032100080938C0690938D06A0938E06B0938F06B4
:1032200064E082E10E949E1660E0809120010E948D
:10323000000261E080911C010E94000260E0809128
:103240001E010E94000260E080911A010E940002AB
:1032500061E0809116010E94000260E080911801F7
:103260000E9400028091E3049091E4048230910571
:1032700009F459C008F050C0009709F459C08130D2
:10328000910509F450C000E010E0EE24E394F12C25
:10329000C2E0D0E094E0C92ED12C0E94BD0E0E9465
:1032A000FC0D8DE995E00E946A0C0E94B11090E03F
:1032B0009093EC048093EB048091E1049091E204FC
:1032C0008230910509F4D8C1C0F5009709F4AEC069
:1032D000019709F4BFC001151105F9F20E94F60328
:1032E0008823D9F20E940000D8CF8AE60E94D70D29
:1032F0008936910531F410929606109295068AE669
:103300004DCF83E991E00E945C0C64E670E080E0C0
:1033100090E00E948502F5CF8330910521F0843042
:10332000910509F0B0CF9093E2048093E104ABCF14
:103330001092E2041092E104A6CF8330910509F4C3
:1033400049C2049741F68091E3049091E404049704
:1033500009F0B9C20E940907882331F01092E204F3
:103360001092E1040E940B068091EB049091EC0412
:10337000892B09F4B0CF8FE292E00E945C0C8DE9BA
:1033800095E00E946A0C882321F08EEA91E00E9469
:103390005C0C8091A1059091A205209110053091BF
:1033A00011058217930741F020910E0530910F050A
:1033B0008217930709F08FCF83E592E00E945C0C9F
:1033C0008091A7059091A8050E949F108091A90562
:1033D0009091AA050E949F1082E291E00E943D0A0E
:1033E000882309F478CF60E085E10E94D20168EC7F
:1033F00070E080E090E00E94850261E085E10E943B
:10340000D20168EC70E080E090E00E94850260E00C
:1034100085E10E94D20168EC70E080E090E00E94BB
:1034200085028FEC92E00E945C0CDDCF0E940907C0
:10343000882359F08091E3049091E4049093E2048E
:103440008093E1040E940B0646CF1092E204109292
:10345000E104F8CF8091E5049091E6048230910573
:1034600009F466C050F4009781F0019709F4A4C0F4
:10347000D093E604C093E50415C08330910591F024
:103480000497B1F70E94A30FF3CF0E940907882386
:1034900009F447C08091E7049091E8049093E60412
:1034A0008093E5048091E3049091E404019709F08E
:1034B00012CF8FE292E00E945C0C0E9409078823E1
:1034C00031F01092E2041092E1040E940B060E9477
:1034D000B1108823A1F08091A1059091A2052091BF
:1034E0000605309107058217930709F4A4C02091BF
:1034F0000A0530910B058217930709F49CC020E060
:1035000030E046E153E4CA01B9010E94AA0A0E94D0
:10351000270F882309F4DFCE0E94DD0B0E94A30F42
:10352000DACE1092E6041092E5040E940B06BACFA0
:103530000E940907882361F08091E5049091E604D8
:103540009093E8048093E7041092E6041092E50457
:103550000E942D100E94B110882391F08091A10546
:103560009091A205209106053091070582179307D7
:10357000B1F020910A0530910B058217930779F07D
:1035800085E00E943C0220910305309104058217DA
:1035900093070CF487CF8CE00E943C0283CFF0921B
:1035A000E604E092E5048EEA91E00E945C0C8DEB6B
:1035B00091E00E945C0C76CF0E94B70C82E291E011
:1035C0000E943D0A811112C08091A1059091A2052F
:1035D00020910605309107058217930719F1209174
:1035E0000A0530910B0582179307E1F082E291E022
:1035F0000E943D0A811156CF8091A1059091A205AC
:1036000020910805309109058217930741F0209118
:103610000C0530910D058217930709F043CF87E120
:1036200092E0C7CF85EE91E00E940B0CD092E604A9
:10363000C092E50437CF82E291E00E943D0A8823E0
:1036400019F00E94B70C47CE2091A1053091A20538
:1036500080910805909109052817390709F03BCE9C
:1036600082E291E00E943D0A81110E94B70C89E438
:1036700092E00E945C0C2FCE8091E3049091E404D0
:10368000029709F028CE0E940907882331F0109292
:10369000E2041092E1040E940B068091EB049091E9
:1036A000EC04892B09F46CC08FE292E00E945C0C60
:1036B0008091EB049091EC04892B09F40CCE8EEAF6
:1036C00091E00E945C0C8091A1059091A20520914F
:1036D0000605309107058217930739F020910A05F6
:1036E00030910B0582179307C1F483E592E00E94A5
:1036F0005C0C8091A7059091A8050E949F10809175
:10370000A9059091AA050E949F1082E291E00E9473
:103710003D0A882309F4DFCD94CF20910C05309128
:103720000D058217930709F0D6CD85E792E00E9438
:103730005C0C8091A7059091A8050E949F10809134
:10374000A9059091AA050E949F1082E291E00E9433
:103750003D0A811176CF82E291E00E943D0A8111FB
:10376000BACD6EEC7FEF82E390E00E94C0056BE47F
:1037700070E08BE490E00E94C00582EA92E079CF8D
:1037800020E030E046E153E4CA01B9010E94AA0AF0
:103790000E94270F882321F00E94DD0B0E94A30FB7
:1037A0000E94B70C4091A7055091A8058091A905EA
:1037B0009091AA05489F9001499F300D589F300D68
:1037C00011248091E9049091EA042817390709F03F
:1037D00082CD38CE8091E3049091E404039709F000
:1037E0006AC00E940907882331F01092E204109207
:1037F000E1040E940B068091EB049091EC04892B6C
:1038000009F459C08FE292E00E945C0C8091EB04B5
:103810009091EC04892B21F08EEA91E00E945C0CDF
:103820008091A1059091A20520911005309111057C
:103830008217930739F020910E0530910F058217FA
:103840009307C9F58EEA92E00E945C0C8091A7056F
:103850009091A8050E949F108091A9059091AA05BA
:103860000E949F1082E291E00E943D0A882319F194
:1038700060E085E10E94D20168EC70E080E090E0B9
:103880000E94850261E085E10E94D20168EC70E04F
:1038900080E090E00E94850260E085E10E94D20114
:1038A00068EC70E080E090E00E9485028FEC92E08E
:1038B0000E945C0CDDCF0E94270F882309F40BCDFA
:1038C0000E94DD0B08CD0E942D1021CEE89409C086
:1038D00097FB3EF490958095709561957F4F8F4F43
:1038E0009F4F9923A9F0F92F96E9BB279395F69559
:1038F000879577956795B795F111F8CFFAF4BB0FD7
:1039000011F460FF1BC06F5F7F4F8F4F9F4F16C03A
:10391000882311F096E911C0772321F09EE8872FC4
:10392000762F05C0662371F096E8862F70E060E080
:103930002AF09A95660F771F881FDAF7880F9695F9
:10394000879597F908950E94B61C0C94271D0E9434
:10395000191D38F00E94201D20F0952311F00C94C1
:10396000101D0C94161D11240C945B1D0E94381D13
:1039700070F3959FC1F3950F50E0551F629FF001C2
:10398000729FBB27F00DB11D639FAA27F00DB11DDB
:10399000AA1F649F6627B00DA11D661F829F222764
:1039A000B00DA11D621F739FB00DA11D621F839FEB
:1039B000A00D611D221F749F3327A00D611D231FC1
:1039C000849F600D211D822F762F6A2F11249F570F
:1039D00050409AF0F1F088234AF0EE0FFF1FBB1F12
:1039E000661F771F881F91505040A9F79E3F5105D1
:1039F00080F00C94101D0C945B1D5F3FE4F3983E27
:103A0000D4F3869577956795B795F795E7959F5F7A
:103A1000C1F7FE2B880F911D9695879597F908950C
:103A200097F99F6780E870E060E008959FEF80EC71
:103A3000089500240A941616170618060906089514
:103A400000240A9412161306140605060895092E7A
:103A50000394000C11F4882352F0BB0F40F4BF2BE9
:103A600011F460FF04C06F5F7F4F8F4F9F4F089529
:103A700057FD9058440F551F59F05F3F71F047951F
:103A8000880F97FB991F61F09F3F79F08795089504
:103A9000121613061406551FF2CF4695F1DF08C023
:103AA000161617061806991FF1CF86957105610540
:103AB00008940895E894BB2766277727CB0197F9E8
:103AC0000895A1E21A2EAA1BBB1BFD010DC0AA1F5F
:103AD000BB1FEE1FFF1FA217B307E407F50720F077
:103AE000A21BB30BE40BF50B661F771F881F991FF2
:103AF0001A9469F760957095809590959B01AC013B
:103B0000BD01CF010895EE0FFF1F0590F491E02D48
:103B100009945058BB27AA270E94A11D0C94271D69
:103B20000E94191D38F00E94201D20F039F49F3F9B
:103B300019F426F40C94161D0EF4E095E7FB0C9492
:103B4000101DE92F0E94381D58F3BA17620773073A
:103B50008407950720F079F4A6F50C945A1D0EF40D
:103B6000E0950B2EBA2FA02D0B01B90190010C018D
:103B7000CA01A0011124FF27591B99F0593F50F4A5
:103B8000503E68F11A16F040A22F232F342F4427FD
:103B9000585FF3CF469537952795A795F0405395F5
:103BA000C9F77EF41F16BA0B620B730B840BBAF0C5
:103BB0009150A1F0FF0FBB1F661F771F881FC2F730
:103BC0000EC0BA0F621F731F841F48F48795779544
:103BD0006795B795F7959E3F08F0B0CF9395880FFE
:103BE00008F09927EE0F9795879508950E940A1E71
:103BF0000C94271D0E94201D58F00E94191D40F0B2
:103C000029F45F3F29F00C94101D51110C945B1D99
:103C10000C94161D0E94381D68F39923B1F35523A7
:103C200091F3951B550BBB27AA27621773078407CF
:103C300038F09F5F5F4F220F331F441FAA1FA9F365
:103C400035D00E2E3AF0E0E832D091505040E69553
:103C5000001CCAF72BD0FE2F29D0660F771F881FB4
:103C6000BB1F261737074807AB07B0E809F0BB0BA7
:103C7000802DBF01FF2793585F4F3AF09E3F5105BB
:103C800078F00C94101D0C945B1D5F3FE4F3983E9C
:103C9000D4F3869577956795B795F7959F5FC9F7A4
:103CA000880F911D9695879597F90895E1E0660F25
:103CB000771F881FBB1F621773078407BA0720F09E
:103CC000621B730B840BBA0BEE1F88F7E095089507
:103CD0000E946F1E6894B1110C945B1D08950E94A0
:103CE000401D88F09F5798F0B92F9927B751B0F031
:103CF000E1F0660F771F881F991F1AF0BA95C9F770
:103D000014C0B13091F00E945A1DB1E008950C9496
:103D10005A1D672F782F8827B85F39F0B93FCCF349
:103D2000869577956795B395D9F73EF490958095EC
:103D3000709561957F4F8F4F9F4F0895F894FFCFF7
:103D4000FFFFFFFF00E1000000000000C602C60206
:103D5000C602C602C60200000100120000000100F7
:103D600012000000B44400000C4258E95B433200EA
:103D70000000B44400000C4258E95B43320000C12B
:103D80008081000000000000002B048C03B9037741
:103D900004EA03C803DC03000000001C0597043D8F
:103DA000053205830541055F0500000000B4098761
:103DB00009E309C50230010A01780900000000C8C2
:103DC000060D0A004C6566743A20005269676874F3
:103DD0003A20004661696C656420746F20646574E4
:103DE00065637420746865204C534D362E0049205D
:103DF000736565206120736B726577740049206D6F
:103E000075737420626520636F6D696E67207570CD
:103E1000206F6E20746865206368616C6C656E67E6
:103E200065203A2900546865206368616C6C656E92
:103E3000676520697320636F6D706C6574652E20F3
:103E400054686520736B72657774206973206465AC
:103E500066656174656400492073656520746865F2
:103E60002063757020636F6D696E672075700049FF
:103E7000207365652061207461736B206973206312
:103E80006F6D696E672075700057686F6F6F686F30
:103E90006F6F00204920616D20636F6D6D696E67E3
:103EA000207570206F6E20746865206368616C6C8B
:103EB000656E6765004920736565207468652063D9
:103EC000757020636F6D696E6720757020796179F8
:103ED0002E2E2E20776169742061206D696E7574B5
:103EE00065004148484848484848484848002049F3
:103EF00020616D20636F6D696E67207570206F6E35
:103F000020746865206368616C6C656E676500424B
:083F100079652042796500008B
:00000001FF
