:100000000C94DA000C942A0A0C94030A0C94DC0970
:100010000C94B5090C9402010C9402010C948E0905
:100020000C9402010C944A0D0C94510A0C94C00AD1
:100030000C9402010C9402010C9402010C94020134
:100040000C9402010C9402010C9402010C94020124
:100050000C9402010C9402010C9402010C944409CA
:100060000C9402010C94180D0C94F20C0C940201E7
:100070000C9402010C9402010C9402010C940201F4
:100080000C9402010C9402010C9402010C940201E4
:100090000C94B60D0C9402010C9402010C94020114
:1000A0000C9402010C9402010C9402010000000067
:1000B0002300260029002C002F00080B000202025A
:1000C00000000904000001020200000524001001E4
:1000D0000524010101042402060524060001070588
:1000E000810310004009040100020A000000070516
:1000F00002024000000705830240000004030904D7
:1001000012010002EF020140FB1F00230001010267
:100110000301506F6C6F6C7520436F72706F72616A
:1001200074696F6E00506F6C6F6C7520412D537445
:100130006172203332553400000000002400270093
:100140002A002D00300000000000250028002B00B0
:100150002E00310004040404040304050202020218
:100160000403020202020606060606060404020250
:100170000204040408020110408040102040804026
:1001800080080204018040201002011080102040ED
:1001900040200000000200090F0000030401000CD1
:1001A000000000000000000000000000000000004F
:1001B00000001F0F11241FBECFEFDAE0DEBFCDBF5E
:1001C00011E0A0E0B1E0E6E1F8E202C005900D9296
:1001D000A439B107D9F724E0A4E9B1E001C01D9228
:1001E000A13AB207E1F710E0CAEDD0E004C02197D0
:1001F000FE010E949612C93DD107C9F70E94C90F9E
:100200000C9409140C94000090912702809126020E
:100210002FEF3FEF981748F4E92FF0E0EA5FFD4F2A
:10022000208130E09F5F90932702C901089590914B
:100230002702809126022FEF3FEF981748F4E92F0D
:10024000F0E0EA5FFD4F208130E09F5F909327024E
:10025000C90108958091260290912702891B990B6C
:100260000895FC0180910402882311F13FB7F894AE
:1002700082E08093E9002091F200822F90E018162E
:10028000190614F481E090E0882339F0289844E6B8
:10029000409303024091F1004083222339F02091E2
:1002A000F200211103C02BE62093E8003FBF089520
:1002B0008FEF9FEF08952FB7F89483E08093E900C4
:1002C0009091E800892F807295FF04C09091F20010
:1002D00080E4891B2FBF08958091FB0181110DC01F
:1002E00082E08093F70184E08093F8011092FA0194
:1002F0001092F90181E08093FB0187EF91E008956E
:1003000081508F3008F047C0E82FF0E0E657FE4FED
:100310000C949612A701AB0199019F01A301CB0197
:10032000CB01CB01AE01B401B801BC01C201CB01CC
:10033000C601809180008F7780938000089580911E
:1003400080008F7DF9CF80918000877FF5CF84B5C5
:100350008F7784BD089584B58F7DFBCF8091900009
:100360008F77809390000895809190008F7DF9CFD2
:1003700080919000877FF5CF8091C0008F77809328
:10038000C00008958091C0008F7DF9CF8091C20098
:10039000877F8093C20008951F93CF93DF93282F08
:1003A00030E0F901EE56FE4F8491F901ED58FE4F11
:1003B000D491F901EC5AFE4FC491CC23A9F0162F29
:1003C00081110E948001EC2FF0E0EE0FFF1FEA5B2D
:1003D000FE4FA591B4918FB7F894EC91111108C01C
:1003E000D095DE23DC938FBFDF91CF911F910895CD
:1003F000DE2BF8CFCF93DF9390E0FC01ED58FE4F5A
:1004000024918C5A9E4FFC0184918823C9F090E07E
:10041000880F991FFC01E85CFE4FA591B491FC0187
:10042000EA5BFE4FC591D49161110DC09FB7F8945E
:100430008C91209582238C938881282328839FBFC9
:10044000DF91CF910895623051F49FB7F8943C91B9
:10045000822F809583238C93E8812E2BEFCF8FB74B
:10046000F894EC912E2B2C938FBFEACF3FB7F894E2
:100470008091F3019091F401A091F501B091F60102
:1004800026B5A89B05C02F3F19F00196A11DB11DEF
:100490003FBFBA2FA92F982F8827BC01CD01620F2B
:1004A000711D811D911D42E0660F771F881F991FE6
:1004B0004A95D1F708958F929F92AF92BF92CF92B3
:1004C000DF92EF92FF924B015C010E9436026B01BA
:1004D0007C010E9436026C197D098E099F09683ED5
:1004E000734081059105A8F321E0821A9108A108C3
:1004F000B10888EEC80E83E0D81EE11CF11C8114FF
:100500009104A104B10429F7FF90EF90DF90CF9000
:10051000BF90AF909F908F9008952FB7F8946091FF
:10052000EF017091F0018091F1019091F2012FBFE4
:10053000089508950895089508954091E401509113
:10054000E5012091E2013091E30142175307B4F431
:100550009091E8009570E1F39091E80092FD19C048
:100560008093F1008091E4019091E50101968F73F1
:100570009927892B19F48EEF8093E8008091E4018C
:100580009091E50101969093E5018093E40181E06B
:10059000089580E00895EF92FF920F931F93CF93F9
:1005A000DF93F82E192FE62E042F81E0860F880F97
:1005B0000E949D0283E00E949D02CF2DD12FEC0E60
:1005C000FD2EF11CCE15DF05B9F007FF13C0FE01AB
:1005D00084910E949D02182F80E00E949D02812339
:1005E00021968111EFCFDF91CF911F910F91FF9055
:1005F000EF9008958881EDCF81E0F5CFDF92EF9203
:10060000FF920F931F93CF93DF93D82E8A01EB01B4
:100610007B01E40EF51ECE15DF0559F0D7FE12C0A2
:10062000FE0184910E949D0221968111F4CF0FEF6B
:100630001FEFC801DF91CF911F910F91FF90EF90B5
:10064000DF9008958881EECF0F931F93CF93DF93B0
:100650001F92CDB7DEB782E0898342E450E06AEBB7
:1006600070E080E80E94FE020E946C01DC0112969C
:100670000D911C910115110589F0D801ED91FC91A6
:100680000280F381E02DBE016F5F7F4FC8010995A5
:1006900097FD04C0F80100851185ECCF89810F908A
:1006A000DF91CF911F910F910895615030F020910B
:1006B000F100FC0120830196F8CF289884E680930E
:1006C00003020895AF92BF92CF92DF92EF92FF9212
:1006D0000F931F93CF93DF936C017B018B01040F6A
:1006E000151FEB015E01AE18BF08C017D10759F006
:1006F0006991D601ED91FC910190F081E02DC60148
:100700000995892B79F7C501DF91CF911F910F9141
:10071000FF90EF90DF90CF90BF90AF900895FC01D5
:10072000538D448D252F30E0842F90E0821B930B56
:10073000541710F0CF96089501970895FC01918DFC
:10074000828D981761F0A28DAE0FBF2FB11D5D96FF
:100750008C91928D9F5F9F73928F90E008958FEFA1
:100760009FEF0895FC01918D828D981731F0828D55
:10077000E80FF11D858D90E008958FEF9FEF0895AC
:10078000FC01918D228D892F90E0805C9F4F821B10
:1007900091098F739927089588E792E00E94C0031A
:1007A00021E0892B09F420E0822F089580E090E079
:1007B000892B29F00E94CC0381110C94000008952C
:1007C000FC01A48DA80FB92FB11DA35ABF4F2C91C6
:1007D000848D90E001968F739927848FA689B789BD
:1007E0002C93A089B1898C9182748C93938D848D84
:1007F000981306C00288F389E02D80818F7D808365
:100800000895EF92FF920F931F93CF93DF93EC0124
:1008100081E0888F9B8D8C8D981319C0E889F989A8
:10082000808185FF14C09FB7F894EE89FF896083AB
:10083000E889F9898081827480839FBF81E090E09C
:10084000DF91CF911F910F91FF90EF900895F62EB9
:100850000B8D10E00F5F1F4F0F731127E02E8C8D53
:100860008E110CC00FB607FCFACFE889F989808198
:1008700085FFF5CFCE010E94E003F1CFEB8DEC0FA9
:10088000FD2FF11DE35AFF4FF0829FB7F8940B8FB5
:10089000EA89FB8980818062CFCFCF93DF93EC011F
:1008A000888D8823B9F0AA89BB89E889F9898C9158
:1008B00085FD03C0808186FD0DC00FB607FCF7CF14
:1008C0008C9185FFF2CF808185FFEDCFCE010E9414
:1008D000E003E9CFDF91CF9108958F929F92AF927D
:1008E000BF92CF92DF92EF92FF920F931F93CF931D
:1008F000DF936C017B018A0180910B01882309F44D
:100900005CC080910402882309F457C08091E801FB
:1009100080FF05C08091E00082608093E000E801E4
:10092000B12C8AEFA82E93E0892E2AE3922E2097ED
:1009300011F4BB20D9F10E945B0181110AC0AA9475
:10094000AA20D9F161E070E080E090E00E945B02B3
:10095000EECF8C171D0611F00CF08C2F9FB7F8947A
:100960008092E9002091E80025FD02C09FBFDFCF03
:10097000282F30E0C21BD30BF701815020F04191AA
:100980004093F100FACFE20EF31EBB2021F09092CB
:10099000E800B12CEBCF8091E80085FDE7CF909285
:1009A000E800BB24B394209709F3F3CF5D9884E665
:1009B0008093E701101611063CF081E090E0F6010B
:1009C0009383828310E000E0C801DF91CF911F91F3
:1009D0000F91FF90EF90DF90CF90BF90AF909F90DE
:1009E0008F900895CF93DF931F92CDB7DEB76983C1
:1009F000DC01ED91FC910280F381E02D41E050E0BB
:100A0000BE016F5F7F4F09950F90DF91CF910895E1
:100A100083E08093E9008091F200882319F08AE353
:100A20008093E80008950E945B0190E00895CF93C1
:100A3000DF931F92CDB7DEB7FC018485958597FDC6
:100A400008C02FEF3FEF358724870F90DF91CF91BC
:100A50000895CE0101960E943101019719F4898110
:100A600090E0F3CF8FEF9FEFF0CF0F931F93CF93D3
:100A7000DF931F92CDB7DEB78C01FC01848595858D
:100A800097FF0BC0CE0101960E943101019771F4CE
:100A9000898190E0F80195878487F80184859585A0
:100AA0000F90DF91CF911F910F9108958FEF9FEFDE
:100AB000F1CFFC018485958597FD0BC09FB7F89415
:100AC00082E08093E9008091F2009FBF90E0019660
:100AD00008959FB7F89482E08093E9008091F20036
:100AE0009FBF90E008952E98269A2D98259A2A98CF
:100AF000229A2998219A2F98279A8AEA809380002F
:100B000089E18093810084EA91E09093870080934B
:100B10008600109289001092880010928B0010922B
:100B20008A0010928D0010928C0008958091050229
:100B3000811105C081E0809305020E947305109227
:100B40008B0010928A002A98229A809105028111C6
:100B500005C081E0809305020E9473051092890010
:100B6000109288002998219A08950F931F93CF938C
:100B7000DF93EC01888581110EC0898591E098870B
:100B80009A8562E0911101C060E00E94FA018FE055
:100B900090E00197F1F7298530E0F901EE56FE4F1C
:100BA0008491F901ED58FE4F0491F901EC5AFE4F82
:100BB00014911123C9F081110E948001E12FF0E00E
:100BC000EE0FFF1FE455FF4FA591B491EC910E235A
:100BD00031E009F430E0832F2B8582278170DF918B
:100BE000CF911F910F91089580E0F6CFCF93DF93BF
:100BF00088EC93E00E94B505D1E0C82FCD270E9474
:100C00008D022091CD03213099F030F0223011F186
:100C1000233041F1C0E008C0C111FCCF7093CF0375
:100C20006093CE03D093CD038C2FDF91CF910895A5
:100C3000CC2319F01092CD03EDCF2091CE0330914B
:100C4000CF03621B730B6F30710570F382E08093EA
:100C5000CD03E0CFCC2341F37093CF036093CE0359
:100C600083E0F5CFCC2391F32091CE033091CF03D5
:100C7000621B730B6F30710568F21092CD03D4CFF5
:100C80002091BF01260F3327331F21323105ECF4A9
:100C900020914E02FC0190E080E0243069F082E077
:100CA0000895A091BF012191AC0141565E4FA40F60
:100CB000B52FB11D2C930196861798F38091BF0133
:100CC000680F6093BF0180E0089581E0089510925D
:100CD0004E0281E080934D021092280261E082E092
:100CE0000E94CC0161E083E00E94CC01E9EBF0E0DE
:100CF00080818E7F808380818D7F808388E4809354
:100D0000B80085E48093BC000895CF93DF9391E011
:100D100090939E018823B9F0C091B800D091BA0099
:100D20008091BC008A7B8093BC0060E082E00E94DE
:100D3000CC0160E083E00E94CC010E946706D09362
:100D4000BA00C093B800DF91CF910895CF92DF929F
:100D5000EF92FF920F931F93CF93DF93D09177027F
:100D600081E0D13208F09CC0C09176020E94360228
:100D70006B017C0180914E0281116CC082E08093F6
:100D80004E0281E080934D028FEF80934C021092CF
:100D90004B02D0934A02A6E5B2E0EAE2F2E080E03C
:100DA000D8138DC01092290280912902CC0FC82B34
:100DB000C093290280912802813009F084C01092EA
:100DC00028020E9436026B017C01809129028093E7
:100DD000BB008091500290915102A0915202B091BB
:100DE0005302892B8A2B8B2BA1F00E943602009193
:100DF00050021091510220915202309153026C190D
:100E00007D098E099F09061717072807390708F477
:100E100042C08091BC0083FDD8CF85EC8093BC009C
:100E20000E9436026B017C0180914E02823009F4EF
:100E30004CC080914C028F3F09F469C080914C02F4
:100E4000803209F466C080914C02803309F463C09B
:100E500084E026C08091500290915102A0915202EC
:100E6000B0915302892B8A2B8B2B09F483CF0E94DC
:100E7000360200915002109151022091520230919D
:100E800053026C197D098E099F0906171707280759
:100E9000390708F06FCF80914F020E94850685E0E8
:100EA000109255021092770210925402DF91CF9166
:100EB0001F910F91FF90EF90DF90CF9008959D913B
:100EC00091938F5F6DCF85EEA9CF80915002909165
:100ED0005102A0915202B0915302892B8A2B8B2B85
:100EE00009F4A2CF0E9436020091500210915102E3
:100EF00020915202309153026C197D098E099F098D
:100F0000061717072807390708F08ECFC4CF80E0EF
:100F1000C7CF82E0C5CF83E0C3CFE09127028091A5
:100F20002602E81730F4F0E0EA5FFD4F808190E0A0
:100F300008958FEF9FEF0895CF92DF92EF92FF9287
:100F40000F931F93CF93DF937C01CB018A012091F4
:100F50005402222389F0EB016B01C40ED51ECC157F
:100F6000DD0569F06991D701ED91FC910190F08167
:100F7000E02DC7010995F3CF642F0E944006C801F8
:100F8000DF91CF911F910F91FF90EF90DF90CF9065
:100F90000895CF93DF931F92CDB7DEB76983209179
:100FA00054022223F9F020917702203258F021E0F8
:100FB00030E0FC013383228390E080E00F90DF91EA
:100FC000CF91089580915502E82FF0E0EA5AFD4F45
:100FD000998190838F5F809355028093770281E09F
:100FE00090E0ECCF61E0CE0101960E944006F7CF81
:100FF00090E080E00895CF93DF93FC010190002002
:10100000E9F73197AF01481B590BBC0185E193E02B
:101010000E946D04EC0142E050E065E771E085E17B
:1010200093E00E946D048C0F9D1FDF91CF91089576
:10103000CF92DF92EF92FF920F931F93CF93DF93A4
:10104000D82FC62F0E9436026B017C0180914E0280
:10105000811165C081E080934E0280934D029FEF25
:1010600090934C0210924B029C0F90934A028093F3
:10107000290280912902DD0FD82BD093290280917B
:101080002802813009F07FC0109228020E943602A7
:101090006B017C01809129028093BB0080915002FA
:1010A00090915102A0915202B0915302892B8A2B48
:1010B0008B2BA1F00E943602009150021091510238
:1010C00020915202309153026C197D098E099F09BB
:1010D000061717072807390708F442C08091BC009B
:1010E00083FDD8CF85EC8093BC000E9436026B0153
:1010F0007C0180914E02813009F447C080914B02FF
:101100008C1710F4C0914B02AAE2B2E0E6E0F2E0E4
:1011100080E08C1751F19D9191938F5FFACF809170
:10112000500290915102A0915202B0915302892B2A
:101130008A2B8B2B09F48ACF0E9436020091500231
:101140001091510220915202309153026C197D0985
:101150008E099F09061717072807390708F076CF69
:1011600080914F020E948506C0E010922702C09332
:1011700026028C2FDF91CF911F910F91FF90EF905E
:10118000DF90CF90089585EEAECF80915002909180
:101190005102A0915202B0915302892B8A2B8B2BC2
:1011A00009F4A7CF0E94360200915002109151021B
:1011B00020915202309153026C197D098E099F09CA
:1011C000061717072807390708F093CFC9CFCF9321
:1011D000C82F81E080935402C0937602109255028A
:1011E000109277026FE086E693E00E94C9070E94A2
:1011F000A60681110DC061E08C2F0E941808909105
:10120000260280912702981719F0CF910C941701AC
:101210008FEF9FEFCF91089585ED8093BC00809173
:10122000500290915102A0915202B0915302079640
:10123000A11DB11D23E0B695A795979587952A9591
:10124000D1F72091BC0024FD03C010924E020895F6
:10125000409150025091510260915202709153029C
:10126000452B462B472B69F30097A105B10541F0AB
:1012700025E32A95F1F700000197A109B109E1CF13
:1012800080914F020C9485061F920F920FB60F9219
:1012900011242F933F938F939F93AF93BF9380918C
:1012A000EF019091F001A091F101B091F201309124
:1012B000EE0123E0230F2D3758F50196A11DB11D36
:1012C0002093EE018093EF019093F001A093F10140
:1012D000B093F2018091F3019091F401A091F50196
:1012E000B091F6010196A11DB11D8093F301909379
:1012F000F401A093F501B093F601BF91AF919F91D6
:101300008F913F912F910F900FBE0F901F901895C6
:1013100026E8230F0296A11DB11DD2CF1F920F9276
:101320000FB60F9211242F933F934F935F936F93B8
:101330007F938F939F93AF93BF93EF93FF93E0912E
:101340001401F09115010995FF91EF91BF91AF91B3
:101350009F918F917F916F915F914F913F912F91CD
:101360000F900FBE0F901F9018951F920F920FB6FF
:101370000F9211242F933F934F935F936F937F931B
:101380008F939F93AF93BF93EF93FF93E0911201DD
:10139000F09113010995FF91EF91BF91AF919F914A
:1013A0008F917F916F915F914F913F912F910F900E
:1013B0000FBE0F901F9018951F920F920FB60F92AD
:1013C00011242F933F934F935F936F937F938F934A
:1013D0009F93AF93BF93EF93FF93E0911001F09130
:1013E00011010995FF91EF91BF91AF919F918F915D
:1013F0007F916F915F914F913F912F910F900FBE11
:101400000F901F9018951F920F920FB60F921124F4
:101410002F933F934F935F936F937F938F939F93FC
:10142000AF93BF93EF93FF93E0910E01F0910F0103
:101430000995FF91EF91BF91AF919F918F917F910E
:101440006F915F914F913F912F910F900FBE0F9031
:101450001F9018951F920F920FB60F9211242F9381
:101460003F934F935F936F937F938F939F93AF932C
:10147000BF93EF93FF93E0910C01F0910D0109955B
:10148000FF91EF91BF91AF919F918F917F916F915C
:101490005F914F913F912F910F900FBE0F901F9032
:1014A00018951F920F920FB60F9211248F939F934E
:1014B0008091E1009091E100937F9093E10083FFA0
:1014C0000FC01092E90091E09093EB001092EC00B5
:1014D00092E39093ED001092040298E09093F00054
:1014E00082FF22C093E09093E9009091F20099234B
:1014F00019F09AE39093E8009091E701992341F065
:101500009091E70191509093E701911101C05D9A8C
:1015100090910302992341F090910302915090938E
:101520000302911101C0289A84FF18C08091E20043
:101530008E7E81608093E2008091E1008F7E8093B7
:10154000E1008091E8018E7E80618093E8019F91A7
:101550008F910F900FBE0F901F90189580FFF7CFBF
:101560008091E2008E7E80618093E2008091E100B4
:101570008E7E8093E1008091E8018E7E8160E5CFD0
:101580001F920F920FB60F921124CF92DF92EF921B
:10159000FF920F931F932F933F934F935F936F93FC
:1015A0007F938F939F93AF93BF93EF93FF93CF93CB
:1015B000DF93CDB7DEB76C97DEBFCDBF1092E900E9
:1015C0008091E80083FF25C068E0CE0145960E9427
:1015D000550382EF8093E8008D8987FF39C0909191
:1015E000E80090FFFCCF982F907609F034C19E89D7
:1015F0004F89588D2F89F88C911131C0803861F551
:101600008091E9018093F1001092F1008EEF8093B8
:10161000E8006C960FB6F894DEBF0FBECDBFDF9129
:10162000CF91FF91EF91BF91AF919F918F917F915A
:101630006F915F914F913F912F911F910F91FF906B
:10164000EF90DF90CF900F900FBE0F901F901895E6
:101650009EEF9093E800C7CF1092F100D5CF913064
:1016600059F48111D3CF4130510581F68091E901C0
:101670008D7F8093E901CACF933049F48111C6CFA1
:101680004130510519F68091E9018260F2CF953021
:1016900041F48091E80080FFFCCF20682093E300B4
:1016A000B5CF963009F0A9C00B8D1C8D22E01092A9
:1016B000E9001092E5011092E401F2122EC010929E
:1016C000E3011092E2010E9424031F8299E09983B2
:1016D000FA8291E09E8390EA98879AEF9987209109
:1016E000E4013091E501275F3F4F3C832B838D83DD
:1016F0001092E9001092E5011092E4011093E301C9
:101700000093E20149E050E0BE016F5F7F4F80E04F
:101710000E94FE020E94240379CF1093E3010093FC
:10172000E2010E946C01DC0112960D911C910115E1
:10173000110509F451C1D801ED91FC910480F581A6
:10174000E02DBE016B5E7F4FC8010995009709F03F
:101750003EC1F80100851185EACFF3E0FF120EC00B
:101760008F89882309F440C0823061F440E862E147
:1017700085E291E00E94CB02811148CF81E2809303
:10178000EB0047CF813029F440E862E182E191E04B
:10179000F1CF833099F70E946C01DC011296ED9035
:1017A000FC908E010F5F1F4F6801E114F10479F086
:1017B000D701ED91FC910680F781E02DB801C701BA
:1017C0000995080F111DF701E084F184EECFD801CF
:1017D0001C92F60101900020E9F73197BF016C19C6
:1017E0007D0940E0C601C6CF6CEF70E0FB0144917B
:1017F00050E080E80E94FE0209CF973009F4BECF86
:10180000983021F481E08093F10000CF993009F005
:10181000FDCE837009F0B2CFE3E3F1E081E031E087
:1018200096E32191222371F08093E9003093EB003D
:10183000DF0111972C912093EC009093ED008F5FC6
:10184000873079F78EE78093EA001092EA008F895B
:1018500080930402DBCE8B8D9C8D1092E900109258
:10186000E5011092E4019093E3018093E201898DF8
:10187000811192C08E899D89913A49F4813209F093
:101880007DCF47E050E064E071E080E0B3CF91327B
:1018900009F074CF833269F48F89988DB0E0A0E0AD
:1018A0008093000190930101A0930201B093030182
:1018B000ADCE803269F48091E80082FFFCCF67E012
:1018C00084E091E00E9455038BEF8093E8009ECE68
:1018D000823209F09BCE8F8980930B01EEEFFFE7F8
:1018E000859194918B3F9C4D51F1E0E0F8E080911F
:1018F000040190910501A0910601B0910701803B80
:101900009440A105B105F1F480910B0180FD1AC04E
:10191000EE3F8AE0F80789F587E797E791838083B0
:10192000809160008093E60188E19BE00FB6F89417
:10193000A895809360000FBE9093600067CEEEEF95
:10194000FAE0D5CF808191818737974709F05ECE45
:10195000A895809160008861809360008091E60185
:1019600080936000EE3F2AE0F20789F08091FE0A42
:101970009091FF0A9183808349CE8081918187373E
:10198000980751F29093FF0A8093FE0AC5CF1092F8
:10199000FF0A1092FE0A3ACE0E946C01DC011296F8
:1019A0000D911C910115110509F4E8CED801ED91B6
:1019B000FC910190F081E02DBE016B5E7F4FC8016C
:1019C0000995811123CEF80100851185EBCF1816FA
:1019D00019060CF41BCED2CEF1E0FF12BECE60E0B1
:1019E00071E004CF1F920F920FB60F9211242F9324
:1019F0003F934F935F936F937F938F939F93AF9397
:101A0000BF93EF93FF9388E792E00E94E003FF917A
:101A1000EF91BF91AF919F918F917F916F915F9166
:101A20004F913F912F910F900FBE0F901F901895DF
:101A30001F920F920FB60F9211242F938F939F93A3
:101A4000EF93FF93E0918802F09189028081E09109
:101A50008E02F0918F0282FD1BC0908180919102D5
:101A60008F5F8F7320919202821741F0E091910273
:101A7000F0E0E858FD4F958F80939102FF91EF9130
:101A80009F918F912F910F900FBE0F901F901895DF
:101A90008081F4CF1F920F920FB60F9211242F93D3
:101AA0003F934F935F936F937F938F939F93AF93E6
:101AB000BF93EF93FF93CF93DF9300D01F92CDB7E7
:101AC000DEB783B1898389819091650389278A83F1
:101AD00080916B009A8189238B838B8180FF03C067
:101AE000F0E0E0E009958B8181FF03C0F0E0E0E0E9
:101AF00009958B8182FF03C0F0E0E0E009958B81BE
:101B000083FF03C0F0E0E0E009958B8184FF03C010
:101B1000F0E0E0E009958B8185FF03C0F0E0E0E0B4
:101B200009958B8186FF03C0F0E0E0E009958B8189
:101B300087FF03C0F0E0E0E00995898180936503A9
:101B40000F900F900F90DF91CF91FF91EF91BF9188
:101B5000AF919F918F917F916F915F914F913F9145
:101B60002F910F900FBE0F901F9018951F920F92FC
:101B70000FB60F9211242F933F934F935F936F9360
:101B80007F938F939F93AF93BF93EF93FF93809136
:101B9000B900887F803609F44AC0F0F5883209F42C
:101BA000A7C018F5803109F49BC0B8F4882309F464
:101BB000F9C0883009F494C0FF91EF91BF91AF91C3
:101BC0009F918F917F916F915F914F913F912F9155
:101BD0000F900FBE0F901F901895883109F488C0A0
:101BE000803251F780934C0214C0803409F49DC0B8
:101BF00040F48033B9F38833F9F680934C0285ECD6
:101C0000B0C0803509F485C0883509F496C08834A1
:101C100099F60E940C09D0CF883909F48CC038F5A8
:101C2000883729F050F4883611F0803729F683E0A0
:101C300080934E021092E10157C0883809F47BC0AE
:101C4000803919F0803809F0B7CF8091E1018032F6
:101C500008F071C0E091E10181E08E0F8093E10115
:101C60008091BB00F0E0EF53FE4F80833DC0803B8E
:101C700039F0E0F4803A09F479C0883A09F09CCF51
:101C800084E080934E021092C0011092BF01E09157
:101C9000EC01F091ED0109958091BF0181110FC018
:101CA00081E08093BF0110929F0109C0803C09F43C
:101CB000A6CF883C09F4A3CF883B09F07DCFE09103
:101CC000C00181E08E0F8093C001F0E0E156FE4F2D
:101CD00080818093BB009091C0018091BF0129C099
:101CE000809129028093BB0085EC8093BC0064CF77
:101CF00090914B0280914A02981758F5E0914B025F
:101D000081E08E0F80934B02F0E0E65DFD4F808115
:101D1000E9CFE0914B0281E08E0F80934B028091DE
:101D2000BB00F0E0E65DFD4F808390914B02809117
:101D30004A029817C8F285E8D8CFE0914B0281E0BB
:101D40008E0F80934B028091BB00F0E0E65DFD4F6B
:101D5000808380914D0281115CCF81E080932802C5
:101D600084EA8093BC0010924E0226CF85EC8093CB
:101D7000BC0010924E028091E101803230F4E0917B
:101D8000E101F0E0EF53FE4F10826091E10170E05D
:101D9000E091EA01F091EB0181EC91E0099510925C
:101DA000E1010ACF10924C0234CF1F93CF93DF93FF
:101DB000162FCAE7D4E09BA121E020935402909310
:101DC00076021092550210927702682F86E693E011
:101DD0000E94C907612F86E693E00E94C9070E940E
:101DE000A60688A3DF91CF911F910895CF93DF932B
:101DF000CAE7D4E09BA121E020935402909376029D
:101E00001092550210927702682F86E693E00E94A6
:101E1000C9070E94A60688A361E08BA10E9418084A
:101E20000E941701C82F0E94A6068C2FDF91CF9128
:101E300008952AE0FC0111922A95E9F70895E8E750
:101E4000F2E01382128288EE93E0A0E0B0E0848397
:101E50009583A683B7832DE331E0318320832DEC76
:101E600030E0358724872CEC30E03787268728EC54
:101E700030E0318B208B29EC30E0338B228B2AEC45
:101E800030E0358B248B2EEC30E0378B268B118E97
:101E9000128E138E148EE5E1F3E013821282848396
:101EA0009583A683B7832FE431E0318320832FEF1E
:101EB0003FEF3587248723B120936503E6E6F3E0FF
:101EC0001382128284839583A683B78381E691E08F
:101ED0009183808386E0E4EDF3E0DF011D928A9533
:101EE000E9F7E8ECF3E01282158210868EE0818734
:101EF00081E08287838783E791E09183808384EB0D
:101F000093E00E94190F80EA93E00E94190F8CE879
:101F100093E00E94190FE2E7F3E080E090E0A0E098
:101F2000BFE380839183A283B3838DEC9CECACEC04
:101F3000BDE384839583A683B78383E393E3ABE216
:101F4000B1E480879187A287B38780E590E0978B83
:101F5000868B81E494E0918F808F82E594E00E94EB
:101F6000190F0E948D0286E694E00E94190FEAE79D
:101F7000F4E0108E118E128E138E148E158E168E26
:101F8000178E81E090E092A381A315A214A216A25D
:101F90000895CF93DF9300D000D0CDB7DEB778940B
:101FA00084B5826084BD84B5816084BD85B582605E
:101FB00085BD85B5816085BD80916E00816080930F
:101FC0006E00109281008091810082608093810078
:101FD0008091810081608093810080918000816088
:101FE0008093800080919100826080939100809125
:101FF0009100816080939100809190008160809336
:1020000090008091C10084608093C1008091C100E4
:1020100082608093C1008091C10081608093C10083
:102020008091C30081608093C3008091C000826072
:102030008093C0008091C20081608093C200809133
:102040007A00846080937A0080917A008260809325
:102050007A0080917A00816080937A0080917A0082
:10206000806880937A00109204021092E901109225
:10207000E8018091D70081608093D70080EA809347
:10208000D80089B5806189BD89B5826089BD09B4F0
:1020900000FEFDCF61E070E080E090E00E945B0216
:1020A0008091D8008F7C80618093D8008091E0007F
:1020B000807F8093E0008091E1008E7E8093E1003C
:1020C0008DE08093E200559A209A10922702109298
:1020D000260210925502109277020E94670689E943
:1020E00092E09093ED018093EC018AE992E0909365
:1020F000EB018093EA018BE60E94E708893691059F
:1021000009F009C110929C0410929B048BE6809305
:102110009D0480E10E94F60E60E080E10E94D50EF1
:1021200083E2482E8BED582E89E7682E8DE3782EBA
:102130004092960450929704609298047092990489
:1021400080919B0490919C04892B39F580E10E9439
:10215000F60E60E080E10E94D50E40929604509207
:102160009704609298047092990481E10E94F60E9F
:10217000682F607F81E10E94D50E80E090E0ACE0A6
:10218000B1E48093920490939304A0939404B09349
:10219000950464E082E10E94D50E60E08091200108
:1021A0000E94FA0161E080911C010E94FA0160E046
:1021B00080911E010E94FA0160E080911A010E9444
:1021C000FA0161E0809116010E94FA0160E08091BD
:1021D00018010E94FA018091300190913101823002
:1021E000910509F4B6C008F0ADC0009709F4B6C077
:1021F0008130910509F4ADC080919D0491E09093E8
:10220000540280937602109255021092770268E28F
:1022100086E693E00E94C9070E94A60666E08091C8
:102220009D040E9418080E948D028B018091260255
:1022300090912702891B990B20919E0430919F0455
:10224000863091050CF08FC021153105C9F30E942D
:102250008D02601B710B80919E0490919F048617E4
:10226000970720F781E08093A00480919D0491E07E
:102270009093540280937602109255021092770246
:1022800062E286E693E00E94C9070E94A60666E025
:1022900080919D040E9418080E948D028B018091FC
:1022A000260290912702891B990B20919E04309160
:1022B0009F04863091050CF082C021153105C9F3C9
:1022C0000E948D02601B710B80919E0490919F046F
:1022D0008617970720F781E08093A00480912E0154
:1022E00090912F018230910509F412C108F0E2C0EB
:1022F000009709F4EDC0019709F4F9C080E090E07F
:10230000892B09F479CF0E94CC03882309F474CF78
:102310000E94000071CF8AE60E94E7088936910585
:1023200031F410929C0410929B048AE6F0CE88E768
:1023300091E00E94FB0764E670E080E090E00E947C
:102340005B02F5CF8330910521F08430910509F0CF
:1023500053CF90932F0180932E014ECF10922F01D7
:1023600010922E0149CF0E941701E82E0E941701FA
:10237000782E0E941701082F0E941701F82E0E9444
:102380001701182F0E941701972C812C94012E29D8
:1023900030937B0420937A04FA82198229813A814E
:1023A000202B30937D0420937C048C831B828B81B3
:1023B0009C81812B90937F0480937E0456CF0E9452
:1023C0001701E82E0E941701782E0E941701082F8E
:1023D0000E941701F82E0E941701182F0E94170162
:1023E000372C212CB1016E297093810460938004F5
:1023F000DF2CC12C7601E02AF0928304E092820463
:10240000B82EA12CC501812B8C011093850400935B
:1024100084044090920450909304609094047090CF
:102420009504072E000C880B990B0E941013A30132
:1024300092010E949C1320E030E04AE754E40E949D
:102440009C12609386047093870480938804909311
:102450008904B701FF0C880B990B0E941013A3018C
:1024600092010E949C1320E030E04AE754E40E946D
:102470009C1260938A0470938B0480938C049093D5
:102480008D04B801110F880B990B0E941013A30142
:1024900092010E949C1320E030E04AE754E40E943D
:1024A0009C1260938E0470938F0480939004909399
:1024B000910414CF8330910589F1049709F01ECF60
:1024C0008091300190913101049709F017CF16C027
:1024D0000E94F6058823B9F0809130019091310176
:1024E00090932F0180932E010E94960507CF809133
:1024F000300190913101019709F000CF0E94F6055B
:10250000882309F4FBCE10922F0110922E01ECCFFC
:102510008091300190913101029781F380913001D7
:1025200090913101039709F0E9CEE8CFEE0FFF1F3C
:102530000590F491E02D09940E94B0120C9462135E
:102540000E945B1358F00E94541340F029F45F3F3F
:1025500029F00C944B1351110C9496130C945113B5
:102560000E94731368F39923B1F3552391F3951BDC
:10257000550BBB27AA2762177307840738F09F5FA4
:102580005F4F220F331F441FAA1FA9F335D00E2E11
:102590003AF0E0E832D091505040E695001CCAF77E
:1025A0002BD0FE2F29D0660F771F881FBB1F261741
:1025B00037074807AB07B0E809F0BB0B802DBF0118
:1025C000FF2793585F4F3AF09E3F510578F00C94E7
:1025D0004B130C9496135F3FE4F3983ED4F3869527
:1025E00077956795B795F7959F5FC9F7880F911D08
:1025F0009695879597F90895E1E0660F771F881FF4
:10260000BB1F621773078407BA0720F0621B730BA6
:10261000840BBA0BEE1F88F7E0950895E89409C083
:1026200097FB3EF490958095709561957F4F8F4F05
:102630009F4F9923A9F0F92F96E9BB279395F6951B
:10264000879577956795B795F111F8CFFAF4BB0F99
:1026500011F460FF1BC06F5F7F4F8F4F9F4F16C0FD
:10266000882311F096E911C0772321F09EE8872F87
:10267000762F05C0662371F096E8862F70E060E043
:102680002AF09A95660F771F881FDAF7880F9695BC
:10269000879597F9089597F99F6780E870E060E063
:1026A00008959FEF80EC089500240A9416161706EB
:1026B00018060906089500240A9412161306140633
:1026C00005060895092E0394000C11F4882352F096
:1026D000BB0F40F4BF2B11F460FF04C06F5F7F4F4E
:1026E0008F4F9F4F089557FD9058440F551F59F035
:1026F0005F3F71F04795880F97FB991F61F09F3FEF
:1027000079F087950895121613061406551FF2CF17
:102710004695F1DF08C0161617061806991FF1CF67
:1027200086957105610508940895E894BB2766278E
:102730007727CB0197F908950E94AF130C94621389
:102740000E94541338F00E945B1320F0952311F07F
:102750000C944B130C94511311240C9496130E9457
:10276000731370F3959FC1F3950F50E0551F629F4F
:10277000F001729FBB27F00DB11D639FAA27F00DDA
:10278000B11DAA1F649F6627B00DA11D661F829F01
:102790002227B00DA11D621F739FB00DA11D621FE6
:1027A000839FA00D611D221F749F3327A00D611D03
:1027B000231F849F600D211D822F762F6A2F1124E5
:1027C0009F5750409AF0F1F088234AF0EE0FFF1F18
:1027D000BB1F661F771F881F91505040A9F79E3F6F
:1027E000510580F00C944B130C9496135F3FE4F367
:1027F000983ED4F3869577956795B795F795E795C5
:102800009F5FC1F7FE2B880F911D9695879597F9CD
:062810000895F894FFCFCB
:10281600FFFFFFFF00E10000000000009C029C0299
:102826009C029C029C0200000100120000000100B4
:10283600120092FFDC059600000000000000000078
:10284600000000C180810000000000000001046259
:10285600038F034D04C0039E03B20300000000F281
:10286600046D041305080559051705350500000014
:1028760000C9079C07F8079B022A0104018D07007F
:10288600000000B5050D0A004661696C6564207498
:102896006F2064657465637420746865204C534DBD
:0428A600362E0000CA
:00000001FF
